{
	"contracts/AllKeywords.sol": {
		"SimpleContract": {
			"abi": [
				{
					"inputs": [],
					"stateMutability": "nonpayable",
					"type": "constructor"
				},
				{
					"inputs": [],
					"name": "Unauthorized",
					"type": "error"
				},
				{
					"anonymous": false,
					"inputs": [
						{
							"indexed": true,
							"internalType": "address",
							"name": "from",
							"type": "address"
						},
						{
							"indexed": true,
							"internalType": "address",
							"name": "to",
							"type": "address"
						},
						{
							"indexed": false,
							"internalType": "uint256",
							"name": "value",
							"type": "uint256"
						}
					],
					"name": "Sent",
					"type": "event"
				},
				{
					"stateMutability": "payable",
					"type": "fallback"
				},
				{
					"inputs": [],
					"name": "abstractFunction",
					"outputs": [
						{
							"internalType": "string",
							"name": "",
							"type": "string"
						}
					],
					"stateMutability": "pure",
					"type": "function"
				},
				{
					"inputs": [
						{
							"internalType": "uint256",
							"name": "a",
							"type": "uint256"
						}
					],
					"name": "assemblyExample",
					"outputs": [
						{
							"internalType": "uint256",
							"name": "result",
							"type": "uint256"
						}
					],
					"stateMutability": "pure",
					"type": "function"
				},
				{
					"inputs": [
						{
							"internalType": "address",
							"name": "",
							"type": "address"
						}
					],
					"name": "balances",
					"outputs": [
						{
							"internalType": "uint256",
							"name": "",
							"type": "uint256"
						}
					],
					"stateMutability": "view",
					"type": "function"
				},
				{
					"inputs": [
						{
							"internalType": "uint256",
							"name": "a",
							"type": "uint256"
						},
						{
							"internalType": "uint256",
							"name": "b",
							"type": "uint256"
						}
					],
					"name": "calculate",
					"outputs": [
						{
							"internalType": "uint256",
							"name": "",
							"type": "uint256"
						}
					],
					"stateMutability": "pure",
					"type": "function"
				},
				{
					"inputs": [],
					"name": "destroyContract",
					"outputs": [],
					"stateMutability": "nonpayable",
					"type": "function"
				},
				{
					"inputs": [],
					"name": "getStoreData",
					"outputs": [
						{
							"internalType": "uint256",
							"name": "",
							"type": "uint256"
						}
					],
					"stateMutability": "view",
					"type": "function"
				},
				{
					"inputs": [],
					"name": "interfaceFunction",
					"outputs": [
						{
							"internalType": "bool",
							"name": "",
							"type": "bool"
						}
					],
					"stateMutability": "nonpayable",
					"type": "function"
				},
				{
					"inputs": [],
					"name": "isCompleted",
					"outputs": [
						{
							"internalType": "bool",
							"name": "",
							"type": "bool"
						}
					],
					"stateMutability": "view",
					"type": "function"
				},
				{
					"inputs": [
						{
							"internalType": "uint256",
							"name": "",
							"type": "uint256"
						}
					],
					"name": "orders",
					"outputs": [
						{
							"internalType": "uint256",
							"name": "id",
							"type": "uint256"
						},
						{
							"internalType": "address",
							"name": "buyer",
							"type": "address"
						},
						{
							"internalType": "enum SimpleContract.Status",
							"name": "status",
							"type": "uint8"
						}
					],
					"stateMutability": "view",
					"type": "function"
				},
				{
					"inputs": [],
					"name": "owner",
					"outputs": [
						{
							"internalType": "address",
							"name": "",
							"type": "address"
						}
					],
					"stateMutability": "view",
					"type": "function"
				},
				{
					"inputs": [],
					"name": "restrictedFunction",
					"outputs": [],
					"stateMutability": "nonpayable",
					"type": "function"
				},
				{
					"inputs": [
						{
							"internalType": "address payable",
							"name": "_to",
							"type": "address"
						},
						{
							"internalType": "uint256",
							"name": "_amount",
							"type": "uint256"
						}
					],
					"name": "sendEther",
					"outputs": [],
					"stateMutability": "nonpayable",
					"type": "function"
				},
				{
					"inputs": [
						{
							"internalType": "uint256",
							"name": "x",
							"type": "uint256"
						}
					],
					"name": "set",
					"outputs": [],
					"stateMutability": "nonpayable",
					"type": "function"
				},
				{
					"inputs": [],
					"name": "storeData",
					"outputs": [
						{
							"internalType": "uint256",
							"name": "",
							"type": "uint256"
						}
					],
					"stateMutability": "view",
					"type": "function"
				},
				{
					"inputs": [
						{
							"internalType": "address",
							"name": "_contract",
							"type": "address"
						}
					],
					"name": "tryCatchExample",
					"outputs": [],
					"stateMutability": "nonpayable",
					"type": "function"
				},
				{
					"stateMutability": "payable",
					"type": "receive"
				}
			],
			"devdoc": {
				"kind": "dev",
				"methods": {},
				"version": 1
			},
			"evm": {
				"assembly": "    /* \"contracts/AllKeywords.sol\":399:3414  contract SimpleContract is AbstractContract, ExampleInterface {... */\n  mstore(0x40, 0x80)\n    /* \"contracts/AllKeywords.sol\":1104:1153  constructor() {... */\n  callvalue\n  dup1\n  iszero\n  tag_1\n  jumpi\n  0x00\n  dup1\n  revert\ntag_1:\n  pop\n    /* \"contracts/AllKeywords.sol\":1136:1146  msg.sender */\n  caller\n    /* \"contracts/AllKeywords.sol\":1128:1133  owner */\n  0x00\n  dup1\n    /* \"contracts/AllKeywords.sol\":1128:1146  owner = msg.sender */\n  0x0100\n  exp\n  dup2\n  sload\n  dup2\n  0xffffffffffffffffffffffffffffffffffffffff\n  mul\n  not\n  and\n  swap1\n  dup4\n  0xffffffffffffffffffffffffffffffffffffffff\n  and\n  mul\n  or\n  swap1\n  sstore\n  pop\n    /* \"contracts/AllKeywords.sol\":399:3414  contract SimpleContract is AbstractContract, ExampleInterface {... */\n  dataSize(sub_0)\n  dup1\n  dataOffset(sub_0)\n  0x00\n  codecopy\n  0x00\n  return\nstop\n\nsub_0: assembly {\n        /* \"contracts/AllKeywords.sol\":399:3414  contract SimpleContract is AbstractContract, ExampleInterface {... */\n      mstore(0x40, 0x80)\n      jumpi(tag_1, lt(calldatasize, 0x04))\n      shr(0xe0, calldataload(0x00))\n      dup1\n      0x777acf37\n      gt\n      tag_18\n      jumpi\n      dup1\n      0xbfe9ef4f\n      gt\n      tag_19\n      jumpi\n      dup1\n      0xbfe9ef4f\n      eq\n      tag_14\n      jumpi\n      dup1\n      0xc1756a2c\n      eq\n      tag_15\n      jumpi\n      dup1\n      0xc816f038\n      eq\n      tag_16\n      jumpi\n      dup1\n      0xfa391c64\n      eq\n      tag_17\n      jumpi\n      jump(tag_2)\n    tag_19:\n      dup1\n      0x777acf37\n      eq\n      tag_10\n      jumpi\n      dup1\n      0x8da5cb5b\n      eq\n      tag_11\n      jumpi\n      dup1\n      0x8dfa4363\n      eq\n      tag_12\n      jumpi\n      dup1\n      0xa85c38ef\n      eq\n      tag_13\n      jumpi\n      jump(tag_2)\n    tag_18:\n      dup1\n      0x3de0ec4e\n      gt\n      tag_20\n      jumpi\n      dup1\n      0x3de0ec4e\n      eq\n      tag_6\n      jumpi\n      dup1\n      0x4abe3052\n      eq\n      tag_7\n      jumpi\n      dup1\n      0x5eb45731\n      eq\n      tag_8\n      jumpi\n      dup1\n      0x60fe47b1\n      eq\n      tag_9\n      jumpi\n      jump(tag_2)\n    tag_20:\n      dup1\n      0x092a5cce\n      eq\n      tag_3\n      jumpi\n      dup1\n      0x27e235e3\n      eq\n      tag_4\n      jumpi\n      dup1\n      0x2c964371\n      eq\n      tag_5\n      jumpi\n      jump(tag_2)\n    tag_1:\n      jumpi(tag_2, calldatasize)\n      stop\n    tag_2:\n      stop\n        /* \"contracts/AllKeywords.sol\":3323:3412  function destroyContract() public onlyOwner {... */\n    tag_3:\n      callvalue\n      dup1\n      iszero\n      tag_25\n      jumpi\n      0x00\n      dup1\n      revert\n    tag_25:\n      pop\n      tag_26\n      tag_27\n      jump\t// in\n    tag_26:\n      stop\n        /* \"contracts/AllKeywords.sol\":580:620  mapping(address => uint) public balances */\n    tag_4:\n      callvalue\n      dup1\n      iszero\n      tag_28\n      jumpi\n      0x00\n      dup1\n      revert\n    tag_28:\n      pop\n      tag_29\n      0x04\n      dup1\n      calldatasize\n      sub\n      dup2\n      add\n      swap1\n      tag_30\n      swap2\n      swap1\n      tag_31\n      jump\t// in\n    tag_30:\n      tag_32\n      jump\t// in\n    tag_29:\n      mload(0x40)\n      tag_33\n      swap2\n      swap1\n      tag_34\n      jump\t// in\n    tag_33:\n      mload(0x40)\n      dup1\n      swap2\n      sub\n      swap1\n      return\n        /* \"contracts/AllKeywords.sol\":2287:2422  function assemblyExample(uint a) public pure returns (uint result) {... */\n    tag_5:\n      callvalue\n      dup1\n      iszero\n      tag_35\n      jumpi\n      0x00\n      dup1\n      revert\n    tag_35:\n      pop\n      tag_36\n      0x04\n      dup1\n      calldatasize\n      sub\n      dup2\n      add\n      swap1\n      tag_37\n      swap2\n      swap1\n      tag_38\n      jump\t// in\n    tag_37:\n      tag_39\n      jump\t// in\n    tag_36:\n      mload(0x40)\n      tag_40\n      swap2\n      swap1\n      tag_34\n      jump\t// in\n    tag_40:\n      mload(0x40)\n      dup1\n      swap2\n      sub\n      swap1\n      return\n        /* \"contracts/AllKeywords.sol\":1995:2079  function getStoreData() public view returns (uint) {... */\n    tag_6:\n      callvalue\n      dup1\n      iszero\n      tag_41\n      jumpi\n      0x00\n      dup1\n      revert\n    tag_41:\n      pop\n      tag_42\n      tag_43\n      jump\t// in\n    tag_42:\n      mload(0x40)\n      tag_44\n      swap2\n      swap1\n      tag_34\n      jump\t// in\n    tag_44:\n      mload(0x40)\n      dup1\n      swap2\n      sub\n      swap1\n      return\n        /* \"contracts/AllKeywords.sol\":524:545  uint public storeData */\n    tag_7:\n      callvalue\n      dup1\n      iszero\n      tag_45\n      jumpi\n      0x00\n      dup1\n      revert\n    tag_45:\n      pop\n      tag_46\n      tag_47\n      jump\t// in\n    tag_46:\n      mload(0x40)\n      tag_48\n      swap2\n      swap1\n      tag_34\n      jump\t// in\n    tag_48:\n      mload(0x40)\n      dup1\n      swap2\n      sub\n      swap1\n      return\n        /* \"contracts/AllKeywords.sol\":1740:1830  function interfaceFunction() external override returns (bool) {... */\n    tag_8:\n      callvalue\n      dup1\n      iszero\n      tag_49\n      jumpi\n      0x00\n      dup1\n      revert\n    tag_49:\n      pop\n      tag_50\n      tag_51\n      jump\t// in\n    tag_50:\n      mload(0x40)\n      tag_52\n      swap2\n      swap1\n      tag_53\n      jump\t// in\n    tag_52:\n      mload(0x40)\n      dup1\n      swap2\n      sub\n      swap1\n      return\n        /* \"contracts/AllKeywords.sol\":1353:1421  function set(uint x) public onlyOwner {... */\n    tag_9:\n      callvalue\n      dup1\n      iszero\n      tag_54\n      jumpi\n      0x00\n      dup1\n      revert\n    tag_54:\n      pop\n      tag_55\n      0x04\n      dup1\n      calldatasize\n      sub\n      dup2\n      add\n      swap1\n      tag_56\n      swap2\n      swap1\n      tag_38\n      jump\t// in\n    tag_56:\n      tag_57\n      jump\t// in\n    tag_55:\n      stop\n        /* \"contracts/AllKeywords.sol\":2897:3021  function restrictedFunction() public {... */\n    tag_10:\n      callvalue\n      dup1\n      iszero\n      tag_58\n      jumpi\n      0x00\n      dup1\n      revert\n    tag_58:\n      pop\n      tag_59\n      tag_60\n      jump\t// in\n    tag_59:\n      stop\n        /* \"contracts/AllKeywords.sol\":498:518  address public owner */\n    tag_11:\n      callvalue\n      dup1\n      iszero\n      tag_61\n      jumpi\n      0x00\n      dup1\n      revert\n    tag_61:\n      pop\n      tag_62\n      tag_63\n      jump\t// in\n    tag_62:\n      mload(0x40)\n      tag_64\n      swap2\n      swap1\n      tag_65\n      jump\t// in\n    tag_64:\n      mload(0x40)\n      dup1\n      swap2\n      sub\n      swap1\n      return\n        /* \"contracts/AllKeywords.sol\":2138:2229  function calculate(uint a, uint b) public pure returns (uint) {... */\n    tag_12:\n      callvalue\n      dup1\n      iszero\n      tag_66\n      jumpi\n      0x00\n      dup1\n      revert\n    tag_66:\n      pop\n      tag_67\n      0x04\n      dup1\n      calldatasize\n      sub\n      dup2\n      add\n      swap1\n      tag_68\n      swap2\n      swap1\n      tag_69\n      jump\t// in\n    tag_68:\n      tag_70\n      jump\t// in\n    tag_67:\n      mload(0x40)\n      tag_71\n      swap2\n      swap1\n      tag_34\n      jump\t// in\n    tag_71:\n      mload(0x40)\n      dup1\n      swap2\n      sub\n      swap1\n      return\n        /* \"contracts/AllKeywords.sol\":844:865  Order[] public orders */\n    tag_13:\n      callvalue\n      dup1\n      iszero\n      tag_72\n      jumpi\n      0x00\n      dup1\n      revert\n    tag_72:\n      pop\n      tag_73\n      0x04\n      dup1\n      calldatasize\n      sub\n      dup2\n      add\n      swap1\n      tag_74\n      swap2\n      swap1\n      tag_38\n      jump\t// in\n    tag_74:\n      tag_75\n      jump\t// in\n    tag_73:\n      mload(0x40)\n      tag_76\n      swap4\n      swap3\n      swap2\n      swap1\n      tag_77\n      jump\t// in\n    tag_76:\n      mload(0x40)\n      dup1\n      swap2\n      sub\n      swap1\n      return\n        /* \"contracts/AllKeywords.sol\":3104:3232  function abstractFunction() public pure override returns (string memory) {... */\n    tag_14:\n      callvalue\n      dup1\n      iszero\n      tag_78\n      jumpi\n      0x00\n      dup1\n      revert\n    tag_78:\n      pop\n      tag_79\n      tag_80\n      jump\t// in\n    tag_79:\n      mload(0x40)\n      tag_81\n      swap2\n      swap1\n      tag_82\n      jump\t// in\n    tag_81:\n      mload(0x40)\n      dup1\n      swap2\n      sub\n      swap1\n      return\n        /* \"contracts/AllKeywords.sol\":1450:1679  function sendEther(address payable _to, uint _amount) public onlyOwner {... */\n    tag_15:\n      callvalue\n      dup1\n      iszero\n      tag_83\n      jumpi\n      0x00\n      dup1\n      revert\n    tag_83:\n      pop\n      tag_84\n      0x04\n      dup1\n      calldatasize\n      sub\n      dup2\n      add\n      swap1\n      tag_85\n      swap2\n      swap1\n      tag_86\n      jump\t// in\n    tag_85:\n      tag_87\n      jump\t// in\n    tag_84:\n      stop\n        /* \"contracts/AllKeywords.sol\":2478:2807  function tryCatchExample(address _contract) public {... */\n    tag_16:\n      callvalue\n      dup1\n      iszero\n      tag_88\n      jumpi\n      0x00\n      dup1\n      revert\n    tag_88:\n      pop\n      tag_89\n      0x04\n      dup1\n      calldatasize\n      sub\n      dup2\n      add\n      swap1\n      tag_90\n      swap2\n      swap1\n      tag_31\n      jump\t// in\n    tag_90:\n      tag_91\n      jump\t// in\n    tag_89:\n      stop\n        /* \"contracts/AllKeywords.sol\":551:574  bool public isCompleted */\n    tag_17:\n      callvalue\n      dup1\n      iszero\n      tag_92\n      jumpi\n      0x00\n      dup1\n      revert\n    tag_92:\n      pop\n      tag_93\n      tag_94\n      jump\t// in\n    tag_93:\n      mload(0x40)\n      tag_95\n      swap2\n      swap1\n      tag_53\n      jump\t// in\n    tag_95:\n      mload(0x40)\n      dup1\n      swap2\n      sub\n      swap1\n      return\n        /* \"contracts/AllKeywords.sol\":3323:3412  function destroyContract() public onlyOwner {... */\n    tag_27:\n        /* \"contracts/AllKeywords.sol\":1038:1043  owner */\n      0x00\n      dup1\n      sload\n      swap1\n      0x0100\n      exp\n      swap1\n      div\n      0xffffffffffffffffffffffffffffffffffffffff\n      and\n        /* \"contracts/AllKeywords.sol\":1024:1043  msg.sender == owner */\n      0xffffffffffffffffffffffffffffffffffffffff\n      and\n        /* \"contracts/AllKeywords.sol\":1024:1034  msg.sender */\n      caller\n        /* \"contracts/AllKeywords.sol\":1024:1043  msg.sender == owner */\n      0xffffffffffffffffffffffffffffffffffffffff\n      and\n      eq\n        /* \"contracts/AllKeywords.sol\":1016:1061  require(msg.sender == owner, \"Not the owner\") */\n      tag_97\n      jumpi\n      mload(0x40)\n      0x08c379a000000000000000000000000000000000000000000000000000000000\n      dup2\n      mstore\n      0x04\n      add\n      tag_98\n      swap1\n      tag_99\n      jump\t// in\n    tag_98:\n      mload(0x40)\n      dup1\n      swap2\n      sub\n      swap1\n      revert\n    tag_97:\n        /* \"contracts/AllKeywords.sol\":3398:3403  owner */\n      0x00\n      dup1\n      sload\n      swap1\n      0x0100\n      exp\n      swap1\n      div\n      0xffffffffffffffffffffffffffffffffffffffff\n      and\n        /* \"contracts/AllKeywords.sol\":3377:3405  selfdestruct(payable(owner)) */\n      0xffffffffffffffffffffffffffffffffffffffff\n      and\n      selfdestruct\n        /* \"contracts/AllKeywords.sol\":580:620  mapping(address => uint) public balances */\n    tag_32:\n      mstore(0x20, 0x03)\n      dup1\n      0x00\n      mstore\n      keccak256(0x00, 0x40)\n      0x00\n      swap2\n      pop\n      swap1\n      pop\n      sload\n      dup2\n      jump\t// out\n        /* \"contracts/AllKeywords.sol\":2287:2422  function assemblyExample(uint a) public pure returns (uint result) {... */\n    tag_39:\n        /* \"contracts/AllKeywords.sol\":2341:2352  uint result */\n      0x00\n        /* \"contracts/AllKeywords.sol\":2404:2405  1 */\n      0x01\n        /* \"contracts/AllKeywords.sol\":2401:2402  a */\n      dup3\n        /* \"contracts/AllKeywords.sol\":2397:2406  add(a, 1) */\n      add\n        /* \"contracts/AllKeywords.sol\":2387:2406  result := add(a, 1) */\n      swap1\n      pop\n        /* \"contracts/AllKeywords.sol\":2287:2422  function assemblyExample(uint a) public pure returns (uint result) {... */\n      swap2\n      swap1\n      pop\n      jump\t// out\n        /* \"contracts/AllKeywords.sol\":1995:2079  function getStoreData() public view returns (uint) {... */\n    tag_43:\n        /* \"contracts/AllKeywords.sol\":2040:2044  uint */\n      0x00\n        /* \"contracts/AllKeywords.sol\":2063:2072  storeData */\n      sload(0x01)\n        /* \"contracts/AllKeywords.sol\":2056:2072  return storeData */\n      swap1\n      pop\n        /* \"contracts/AllKeywords.sol\":1995:2079  function getStoreData() public view returns (uint) {... */\n      swap1\n      jump\t// out\n        /* \"contracts/AllKeywords.sol\":524:545  uint public storeData */\n    tag_47:\n      sload(0x01)\n      dup2\n      jump\t// out\n        /* \"contracts/AllKeywords.sol\":1740:1830  function interfaceFunction() external override returns (bool) {... */\n    tag_51:\n        /* \"contracts/AllKeywords.sol\":1796:1800  bool */\n      0x00\n        /* \"contracts/AllKeywords.sol\":1819:1823  true */\n      0x01\n        /* \"contracts/AllKeywords.sol\":1812:1823  return true */\n      swap1\n      pop\n        /* \"contracts/AllKeywords.sol\":1740:1830  function interfaceFunction() external override returns (bool) {... */\n      swap1\n      jump\t// out\n        /* \"contracts/AllKeywords.sol\":1353:1421  function set(uint x) public onlyOwner {... */\n    tag_57:\n        /* \"contracts/AllKeywords.sol\":1038:1043  owner */\n      0x00\n      dup1\n      sload\n      swap1\n      0x0100\n      exp\n      swap1\n      div\n      0xffffffffffffffffffffffffffffffffffffffff\n      and\n        /* \"contracts/AllKeywords.sol\":1024:1043  msg.sender == owner */\n      0xffffffffffffffffffffffffffffffffffffffff\n      and\n        /* \"contracts/AllKeywords.sol\":1024:1034  msg.sender */\n      caller\n        /* \"contracts/AllKeywords.sol\":1024:1043  msg.sender == owner */\n      0xffffffffffffffffffffffffffffffffffffffff\n      and\n      eq\n        /* \"contracts/AllKeywords.sol\":1016:1061  require(msg.sender == owner, \"Not the owner\") */\n      tag_105\n      jumpi\n      mload(0x40)\n      0x08c379a000000000000000000000000000000000000000000000000000000000\n      dup2\n      mstore\n      0x04\n      add\n      tag_106\n      swap1\n      tag_99\n      jump\t// in\n    tag_106:\n      mload(0x40)\n      dup1\n      swap2\n      sub\n      swap1\n      revert\n    tag_105:\n        /* \"contracts/AllKeywords.sol\":1413:1414  x */\n      dup1\n        /* \"contracts/AllKeywords.sol\":1401:1410  storeData */\n      0x01\n        /* \"contracts/AllKeywords.sol\":1401:1414  storeData = x */\n      dup2\n      swap1\n      sstore\n      pop\n        /* \"contracts/AllKeywords.sol\":1353:1421  function set(uint x) public onlyOwner {... */\n      pop\n      jump\t// out\n        /* \"contracts/AllKeywords.sol\":2897:3021  function restrictedFunction() public {... */\n    tag_60:\n        /* \"contracts/AllKeywords.sol\":2962:2967  owner */\n      0x00\n      dup1\n      sload\n      swap1\n      0x0100\n      exp\n      swap1\n      div\n      0xffffffffffffffffffffffffffffffffffffffff\n      and\n        /* \"contracts/AllKeywords.sol\":2948:2967  msg.sender != owner */\n      0xffffffffffffffffffffffffffffffffffffffff\n      and\n        /* \"contracts/AllKeywords.sol\":2948:2958  msg.sender */\n      caller\n        /* \"contracts/AllKeywords.sol\":2948:2967  msg.sender != owner */\n      0xffffffffffffffffffffffffffffffffffffffff\n      and\n      eq\n        /* \"contracts/AllKeywords.sol\":2944:3015  if (msg.sender != owner) {... */\n      tag_109\n      jumpi\n        /* \"contracts/AllKeywords.sol\":2990:3004  Unauthorized() */\n      mload(0x40)\n      0x82b4290000000000000000000000000000000000000000000000000000000000\n      dup2\n      mstore\n      0x04\n      add\n      mload(0x40)\n      dup1\n      swap2\n      sub\n      swap1\n      revert\n        /* \"contracts/AllKeywords.sol\":2944:3015  if (msg.sender != owner) {... */\n    tag_109:\n        /* \"contracts/AllKeywords.sol\":2897:3021  function restrictedFunction() public {... */\n      jump\t// out\n        /* \"contracts/AllKeywords.sol\":498:518  address public owner */\n    tag_63:\n      0x00\n      dup1\n      sload\n      swap1\n      0x0100\n      exp\n      swap1\n      div\n      0xffffffffffffffffffffffffffffffffffffffff\n      and\n      dup2\n      jump\t// out\n        /* \"contracts/AllKeywords.sol\":2138:2229  function calculate(uint a, uint b) public pure returns (uint) {... */\n    tag_70:\n        /* \"contracts/AllKeywords.sol\":2194:2198  uint */\n      0x00\n        /* \"contracts/AllKeywords.sol\":2221:2222  b */\n      dup2\n        /* \"contracts/AllKeywords.sol\":2217:2218  a */\n      dup4\n        /* \"contracts/AllKeywords.sol\":2217:2222  a + b */\n      tag_111\n      swap2\n      swap1\n      tag_112\n      jump\t// in\n    tag_111:\n        /* \"contracts/AllKeywords.sol\":2210:2222  return a + b */\n      swap1\n      pop\n        /* \"contracts/AllKeywords.sol\":2138:2229  function calculate(uint a, uint b) public pure returns (uint) {... */\n      swap3\n      swap2\n      pop\n      pop\n      jump\t// out\n        /* \"contracts/AllKeywords.sol\":844:865  Order[] public orders */\n    tag_75:\n      0x04\n      dup2\n      dup2\n      sload\n      dup2\n      lt\n      tag_113\n      jumpi\n      0x00\n      dup1\n      revert\n    tag_113:\n      swap1\n      0x00\n      mstore\n      keccak256(0x00, 0x20)\n      swap1\n      0x02\n      mul\n      add\n      0x00\n      swap2\n      pop\n      swap1\n      pop\n      dup1\n      0x00\n      add\n      sload\n      swap1\n      dup1\n      0x01\n      add\n      0x00\n      swap1\n      sload\n      swap1\n      0x0100\n      exp\n      swap1\n      div\n      0xffffffffffffffffffffffffffffffffffffffff\n      and\n      swap1\n      dup1\n      0x01\n      add\n      0x14\n      swap1\n      sload\n      swap1\n      0x0100\n      exp\n      swap1\n      div\n      0xff\n      and\n      swap1\n      pop\n      dup4\n      jump\t// out\n        /* \"contracts/AllKeywords.sol\":3104:3232  function abstractFunction() public pure override returns (string memory) {... */\n    tag_80:\n        /* \"contracts/AllKeywords.sol\":3162:3175  string memory */\n      0x60\n        /* \"contracts/AllKeywords.sol\":3187:3225  return \"Abstract function implemented\" */\n      mload(0x40)\n      dup1\n      0x40\n      add\n      0x40\n      mstore\n      dup1\n      0x1d\n      dup2\n      mstore\n      0x20\n      add\n      0x41627374726163742066756e6374696f6e20696d706c656d656e746564000000\n      dup2\n      mstore\n      pop\n      swap1\n      pop\n        /* \"contracts/AllKeywords.sol\":3104:3232  function abstractFunction() public pure override returns (string memory) {... */\n      swap1\n      jump\t// out\n        /* \"contracts/AllKeywords.sol\":1450:1679  function sendEther(address payable _to, uint _amount) public onlyOwner {... */\n    tag_87:\n        /* \"contracts/AllKeywords.sol\":1038:1043  owner */\n      0x00\n      dup1\n      sload\n      swap1\n      0x0100\n      exp\n      swap1\n      div\n      0xffffffffffffffffffffffffffffffffffffffff\n      and\n        /* \"contracts/AllKeywords.sol\":1024:1043  msg.sender == owner */\n      0xffffffffffffffffffffffffffffffffffffffff\n      and\n        /* \"contracts/AllKeywords.sol\":1024:1034  msg.sender */\n      caller\n        /* \"contracts/AllKeywords.sol\":1024:1043  msg.sender == owner */\n      0xffffffffffffffffffffffffffffffffffffffff\n      and\n      eq\n        /* \"contracts/AllKeywords.sol\":1016:1061  require(msg.sender == owner, \"Not the owner\") */\n      tag_117\n      jumpi\n      mload(0x40)\n      0x08c379a000000000000000000000000000000000000000000000000000000000\n      dup2\n      mstore\n      0x04\n      add\n      tag_118\n      swap1\n      tag_99\n      jump\t// in\n    tag_118:\n      mload(0x40)\n      dup1\n      swap2\n      sub\n      swap1\n      revert\n    tag_117:\n        /* \"contracts/AllKeywords.sol\":1564:1571  _amount */\n      dup1\n        /* \"contracts/AllKeywords.sol\":1539:1560  address(this).balance */\n      selfbalance\n        /* \"contracts/AllKeywords.sol\":1539:1571  address(this).balance >= _amount */\n      lt\n      iszero\n        /* \"contracts/AllKeywords.sol\":1531:1596  require(address(this).balance >= _amount, \"Insufficient balance\") */\n      tag_120\n      jumpi\n      mload(0x40)\n      0x08c379a000000000000000000000000000000000000000000000000000000000\n      dup2\n      mstore\n      0x04\n      add\n      tag_121\n      swap1\n      tag_122\n      jump\t// in\n    tag_121:\n      mload(0x40)\n      dup1\n      swap2\n      sub\n      swap1\n      revert\n    tag_120:\n        /* \"contracts/AllKeywords.sol\":1606:1609  _to */\n      dup2\n        /* \"contracts/AllKeywords.sol\":1606:1618  _to.transfer */\n      0xffffffffffffffffffffffffffffffffffffffff\n      and\n        /* \"contracts/AllKeywords.sol\":1606:1627  _to.transfer(_amount) */\n      0x08fc\n        /* \"contracts/AllKeywords.sol\":1619:1626  _amount */\n      dup3\n        /* \"contracts/AllKeywords.sol\":1606:1627  _to.transfer(_amount) */\n      swap1\n      dup2\n      iszero\n      mul\n      swap1\n      mload(0x40)\n      0x00\n      mload(0x40)\n      dup1\n      dup4\n      sub\n      dup2\n      dup6\n      dup9\n      dup9\n      call\n      swap4\n      pop\n      pop\n      pop\n      pop\n      iszero\n      dup1\n      iszero\n      tag_124\n      jumpi\n      returndatasize\n      0x00\n      dup1\n      returndatacopy\n      revert(0x00, returndatasize)\n    tag_124:\n      pop\n        /* \"contracts/AllKeywords.sol\":1659:1662  _to */\n      dup2\n        /* \"contracts/AllKeywords.sol\":1642:1672  Sent(msg.sender, _to, _amount) */\n      0xffffffffffffffffffffffffffffffffffffffff\n      and\n        /* \"contracts/AllKeywords.sol\":1647:1657  msg.sender */\n      caller\n        /* \"contracts/AllKeywords.sol\":1642:1672  Sent(msg.sender, _to, _amount) */\n      0xffffffffffffffffffffffffffffffffffffffff\n      and\n      0x3990db2d31862302a685e8086b5755072a6e2b5b780af1ee81ece35ee3cd3345\n        /* \"contracts/AllKeywords.sol\":1664:1671  _amount */\n      dup4\n        /* \"contracts/AllKeywords.sol\":1642:1672  Sent(msg.sender, _to, _amount) */\n      mload(0x40)\n      tag_125\n      swap2\n      swap1\n      tag_34\n      jump\t// in\n    tag_125:\n      mload(0x40)\n      dup1\n      swap2\n      sub\n      swap1\n      log3\n        /* \"contracts/AllKeywords.sol\":1450:1679  function sendEther(address payable _to, uint _amount) public onlyOwner {... */\n      pop\n      pop\n      jump\t// out\n        /* \"contracts/AllKeywords.sol\":2478:2807  function tryCatchExample(address _contract) public {... */\n    tag_91:\n        /* \"contracts/AllKeywords.sol\":2539:2563  ExampleInterface example */\n      0x00\n        /* \"contracts/AllKeywords.sol\":2583:2592  _contract */\n      dup2\n        /* \"contracts/AllKeywords.sol\":2539:2593  ExampleInterface example = ExampleInterface(_contract) */\n      swap1\n      pop\n        /* \"contracts/AllKeywords.sol\":2607:2614  example */\n      dup1\n        /* \"contracts/AllKeywords.sol\":2607:2632  example.interfaceFunction */\n      0xffffffffffffffffffffffffffffffffffffffff\n      and\n      0x5eb45731\n        /* \"contracts/AllKeywords.sol\":2607:2634  example.interfaceFunction() */\n      mload(0x40)\n      dup2\n      0xffffffff\n      and\n      0xe0\n      shl\n      dup2\n      mstore\n      0x04\n      add\n      0x20\n      mload(0x40)\n      dup1\n      dup4\n      sub\n      dup2\n      0x00\n      dup8\n      gas\n      call\n      swap3\n      pop\n      pop\n      pop\n      dup1\n      iszero\n      tag_127\n      jumpi\n      pop\n      mload(0x40)\n      returndatasize\n      not(0x1f)\n      0x1f\n      dup3\n      add\n      and\n      dup3\n      add\n      dup1\n      0x40\n      mstore\n      pop\n      dup2\n      add\n      swap1\n      tag_128\n      swap2\n      swap1\n      tag_129\n      jump\t// in\n    tag_128:\n      0x01\n    tag_127:\n        /* \"contracts/AllKeywords.sol\":2603:2801  try example.interfaceFunction() {... */\n      tag_130\n      jumpi\n        /* \"contracts/AllKeywords.sol\":2785:2790  false */\n      0x00\n        /* \"contracts/AllKeywords.sol\":2771:2782  isCompleted */\n      0x02\n      0x00\n        /* \"contracts/AllKeywords.sol\":2771:2790  isCompleted = false */\n      0x0100\n      exp\n      dup2\n      sload\n      dup2\n      0xff\n      mul\n      not\n      and\n      swap1\n      dup4\n      iszero\n      iszero\n      mul\n      or\n      swap1\n      sstore\n      pop\n        /* \"contracts/AllKeywords.sol\":2603:2801  try example.interfaceFunction() {... */\n      jump(tag_134)\n    tag_130:\n      pop\n        /* \"contracts/AllKeywords.sol\":2705:2709  true */\n      0x01\n        /* \"contracts/AllKeywords.sol\":2691:2702  isCompleted */\n      0x02\n      0x00\n        /* \"contracts/AllKeywords.sol\":2691:2709  isCompleted = true */\n      0x0100\n      exp\n      dup2\n      sload\n      dup2\n      0xff\n      mul\n      not\n      and\n      swap1\n      dup4\n      iszero\n      iszero\n      mul\n      or\n      swap1\n      sstore\n      pop\n        /* \"contracts/AllKeywords.sol\":2603:2801  try example.interfaceFunction() {... */\n    tag_134:\n        /* \"contracts/AllKeywords.sol\":2529:2807  {... */\n      pop\n        /* \"contracts/AllKeywords.sol\":2478:2807  function tryCatchExample(address _contract) public {... */\n      pop\n      jump\t// out\n        /* \"contracts/AllKeywords.sol\":551:574  bool public isCompleted */\n    tag_94:\n      0x02\n      0x00\n      swap1\n      sload\n      swap1\n      0x0100\n      exp\n      swap1\n      div\n      0xff\n      and\n      dup2\n      jump\t// out\n        /* \"#utility.yul\":88:205   */\n    tag_136:\n        /* \"#utility.yul\":197:198   */\n      0x00\n        /* \"#utility.yul\":194:195   */\n      dup1\n        /* \"#utility.yul\":187:199   */\n      revert\n        /* \"#utility.yul\":334:460   */\n    tag_138:\n        /* \"#utility.yul\":371:378   */\n      0x00\n        /* \"#utility.yul\":411:453   */\n      0xffffffffffffffffffffffffffffffffffffffff\n        /* \"#utility.yul\":404:409   */\n      dup3\n        /* \"#utility.yul\":400:454   */\n      and\n        /* \"#utility.yul\":389:454   */\n      swap1\n      pop\n        /* \"#utility.yul\":334:460   */\n      swap2\n      swap1\n      pop\n      jump\t// out\n        /* \"#utility.yul\":466:562   */\n    tag_139:\n        /* \"#utility.yul\":503:510   */\n      0x00\n        /* \"#utility.yul\":532:556   */\n      tag_175\n        /* \"#utility.yul\":550:555   */\n      dup3\n        /* \"#utility.yul\":532:556   */\n      tag_138\n      jump\t// in\n    tag_175:\n        /* \"#utility.yul\":521:556   */\n      swap1\n      pop\n        /* \"#utility.yul\":466:562   */\n      swap2\n      swap1\n      pop\n      jump\t// out\n        /* \"#utility.yul\":568:690   */\n    tag_140:\n        /* \"#utility.yul\":641:665   */\n      tag_177\n        /* \"#utility.yul\":659:664   */\n      dup2\n        /* \"#utility.yul\":641:665   */\n      tag_139\n      jump\t// in\n    tag_177:\n        /* \"#utility.yul\":634:639   */\n      dup2\n        /* \"#utility.yul\":631:666   */\n      eq\n        /* \"#utility.yul\":621:684   */\n      tag_178\n      jumpi\n        /* \"#utility.yul\":680:681   */\n      0x00\n        /* \"#utility.yul\":677:678   */\n      dup1\n        /* \"#utility.yul\":670:682   */\n      revert\n        /* \"#utility.yul\":621:684   */\n    tag_178:\n        /* \"#utility.yul\":568:690   */\n      pop\n      jump\t// out\n        /* \"#utility.yul\":696:835   */\n    tag_141:\n        /* \"#utility.yul\":742:747   */\n      0x00\n        /* \"#utility.yul\":780:786   */\n      dup2\n        /* \"#utility.yul\":767:787   */\n      calldataload\n        /* \"#utility.yul\":758:787   */\n      swap1\n      pop\n        /* \"#utility.yul\":796:829   */\n      tag_180\n        /* \"#utility.yul\":823:828   */\n      dup2\n        /* \"#utility.yul\":796:829   */\n      tag_140\n      jump\t// in\n    tag_180:\n        /* \"#utility.yul\":696:835   */\n      swap3\n      swap2\n      pop\n      pop\n      jump\t// out\n        /* \"#utility.yul\":841:1170   */\n    tag_31:\n        /* \"#utility.yul\":900:906   */\n      0x00\n        /* \"#utility.yul\":949:951   */\n      0x20\n        /* \"#utility.yul\":937:946   */\n      dup3\n        /* \"#utility.yul\":928:935   */\n      dup5\n        /* \"#utility.yul\":924:947   */\n      sub\n        /* \"#utility.yul\":920:952   */\n      slt\n        /* \"#utility.yul\":917:1036   */\n      iszero\n      tag_182\n      jumpi\n        /* \"#utility.yul\":955:1034   */\n      tag_183\n      tag_136\n      jump\t// in\n    tag_183:\n        /* \"#utility.yul\":917:1036   */\n    tag_182:\n        /* \"#utility.yul\":1075:1076   */\n      0x00\n        /* \"#utility.yul\":1100:1153   */\n      tag_184\n        /* \"#utility.yul\":1145:1152   */\n      dup5\n        /* \"#utility.yul\":1136:1142   */\n      dup3\n        /* \"#utility.yul\":1125:1134   */\n      dup6\n        /* \"#utility.yul\":1121:1143   */\n      add\n        /* \"#utility.yul\":1100:1153   */\n      tag_141\n      jump\t// in\n    tag_184:\n        /* \"#utility.yul\":1090:1153   */\n      swap2\n      pop\n        /* \"#utility.yul\":1046:1163   */\n      pop\n        /* \"#utility.yul\":841:1170   */\n      swap3\n      swap2\n      pop\n      pop\n      jump\t// out\n        /* \"#utility.yul\":1176:1253   */\n    tag_142:\n        /* \"#utility.yul\":1213:1220   */\n      0x00\n        /* \"#utility.yul\":1242:1247   */\n      dup2\n        /* \"#utility.yul\":1231:1247   */\n      swap1\n      pop\n        /* \"#utility.yul\":1176:1253   */\n      swap2\n      swap1\n      pop\n      jump\t// out\n        /* \"#utility.yul\":1259:1377   */\n    tag_143:\n        /* \"#utility.yul\":1346:1370   */\n      tag_187\n        /* \"#utility.yul\":1364:1369   */\n      dup2\n        /* \"#utility.yul\":1346:1370   */\n      tag_142\n      jump\t// in\n    tag_187:\n        /* \"#utility.yul\":1341:1344   */\n      dup3\n        /* \"#utility.yul\":1334:1371   */\n      mstore\n        /* \"#utility.yul\":1259:1377   */\n      pop\n      pop\n      jump\t// out\n        /* \"#utility.yul\":1383:1605   */\n    tag_34:\n        /* \"#utility.yul\":1476:1480   */\n      0x00\n        /* \"#utility.yul\":1514:1516   */\n      0x20\n        /* \"#utility.yul\":1503:1512   */\n      dup3\n        /* \"#utility.yul\":1499:1517   */\n      add\n        /* \"#utility.yul\":1491:1517   */\n      swap1\n      pop\n        /* \"#utility.yul\":1527:1598   */\n      tag_189\n        /* \"#utility.yul\":1595:1596   */\n      0x00\n        /* \"#utility.yul\":1584:1593   */\n      dup4\n        /* \"#utility.yul\":1580:1597   */\n      add\n        /* \"#utility.yul\":1571:1577   */\n      dup5\n        /* \"#utility.yul\":1527:1598   */\n      tag_143\n      jump\t// in\n    tag_189:\n        /* \"#utility.yul\":1383:1605   */\n      swap3\n      swap2\n      pop\n      pop\n      jump\t// out\n        /* \"#utility.yul\":1611:1733   */\n    tag_144:\n        /* \"#utility.yul\":1684:1708   */\n      tag_191\n        /* \"#utility.yul\":1702:1707   */\n      dup2\n        /* \"#utility.yul\":1684:1708   */\n      tag_142\n      jump\t// in\n    tag_191:\n        /* \"#utility.yul\":1677:1682   */\n      dup2\n        /* \"#utility.yul\":1674:1709   */\n      eq\n        /* \"#utility.yul\":1664:1727   */\n      tag_192\n      jumpi\n        /* \"#utility.yul\":1723:1724   */\n      0x00\n        /* \"#utility.yul\":1720:1721   */\n      dup1\n        /* \"#utility.yul\":1713:1725   */\n      revert\n        /* \"#utility.yul\":1664:1727   */\n    tag_192:\n        /* \"#utility.yul\":1611:1733   */\n      pop\n      jump\t// out\n        /* \"#utility.yul\":1739:1878   */\n    tag_145:\n        /* \"#utility.yul\":1785:1790   */\n      0x00\n        /* \"#utility.yul\":1823:1829   */\n      dup2\n        /* \"#utility.yul\":1810:1830   */\n      calldataload\n        /* \"#utility.yul\":1801:1830   */\n      swap1\n      pop\n        /* \"#utility.yul\":1839:1872   */\n      tag_194\n        /* \"#utility.yul\":1866:1871   */\n      dup2\n        /* \"#utility.yul\":1839:1872   */\n      tag_144\n      jump\t// in\n    tag_194:\n        /* \"#utility.yul\":1739:1878   */\n      swap3\n      swap2\n      pop\n      pop\n      jump\t// out\n        /* \"#utility.yul\":1884:2213   */\n    tag_38:\n        /* \"#utility.yul\":1943:1949   */\n      0x00\n        /* \"#utility.yul\":1992:1994   */\n      0x20\n        /* \"#utility.yul\":1980:1989   */\n      dup3\n        /* \"#utility.yul\":1971:1978   */\n      dup5\n        /* \"#utility.yul\":1967:1990   */\n      sub\n        /* \"#utility.yul\":1963:1995   */\n      slt\n        /* \"#utility.yul\":1960:2079   */\n      iszero\n      tag_196\n      jumpi\n        /* \"#utility.yul\":1998:2077   */\n      tag_197\n      tag_136\n      jump\t// in\n    tag_197:\n        /* \"#utility.yul\":1960:2079   */\n    tag_196:\n        /* \"#utility.yul\":2118:2119   */\n      0x00\n        /* \"#utility.yul\":2143:2196   */\n      tag_198\n        /* \"#utility.yul\":2188:2195   */\n      dup5\n        /* \"#utility.yul\":2179:2185   */\n      dup3\n        /* \"#utility.yul\":2168:2177   */\n      dup6\n        /* \"#utility.yul\":2164:2186   */\n      add\n        /* \"#utility.yul\":2143:2196   */\n      tag_145\n      jump\t// in\n    tag_198:\n        /* \"#utility.yul\":2133:2196   */\n      swap2\n      pop\n        /* \"#utility.yul\":2089:2206   */\n      pop\n        /* \"#utility.yul\":1884:2213   */\n      swap3\n      swap2\n      pop\n      pop\n      jump\t// out\n        /* \"#utility.yul\":2219:2309   */\n    tag_146:\n        /* \"#utility.yul\":2253:2260   */\n      0x00\n        /* \"#utility.yul\":2296:2301   */\n      dup2\n        /* \"#utility.yul\":2289:2302   */\n      iszero\n        /* \"#utility.yul\":2282:2303   */\n      iszero\n        /* \"#utility.yul\":2271:2303   */\n      swap1\n      pop\n        /* \"#utility.yul\":2219:2309   */\n      swap2\n      swap1\n      pop\n      jump\t// out\n        /* \"#utility.yul\":2315:2424   */\n    tag_147:\n        /* \"#utility.yul\":2396:2417   */\n      tag_201\n        /* \"#utility.yul\":2411:2416   */\n      dup2\n        /* \"#utility.yul\":2396:2417   */\n      tag_146\n      jump\t// in\n    tag_201:\n        /* \"#utility.yul\":2391:2394   */\n      dup3\n        /* \"#utility.yul\":2384:2418   */\n      mstore\n        /* \"#utility.yul\":2315:2424   */\n      pop\n      pop\n      jump\t// out\n        /* \"#utility.yul\":2430:2640   */\n    tag_53:\n        /* \"#utility.yul\":2517:2521   */\n      0x00\n        /* \"#utility.yul\":2555:2557   */\n      0x20\n        /* \"#utility.yul\":2544:2553   */\n      dup3\n        /* \"#utility.yul\":2540:2558   */\n      add\n        /* \"#utility.yul\":2532:2558   */\n      swap1\n      pop\n        /* \"#utility.yul\":2568:2633   */\n      tag_203\n        /* \"#utility.yul\":2630:2631   */\n      0x00\n        /* \"#utility.yul\":2619:2628   */\n      dup4\n        /* \"#utility.yul\":2615:2632   */\n      add\n        /* \"#utility.yul\":2606:2612   */\n      dup5\n        /* \"#utility.yul\":2568:2633   */\n      tag_147\n      jump\t// in\n    tag_203:\n        /* \"#utility.yul\":2430:2640   */\n      swap3\n      swap2\n      pop\n      pop\n      jump\t// out\n        /* \"#utility.yul\":2646:2764   */\n    tag_148:\n        /* \"#utility.yul\":2733:2757   */\n      tag_205\n        /* \"#utility.yul\":2751:2756   */\n      dup2\n        /* \"#utility.yul\":2733:2757   */\n      tag_139\n      jump\t// in\n    tag_205:\n        /* \"#utility.yul\":2728:2731   */\n      dup3\n        /* \"#utility.yul\":2721:2758   */\n      mstore\n        /* \"#utility.yul\":2646:2764   */\n      pop\n      pop\n      jump\t// out\n        /* \"#utility.yul\":2770:2992   */\n    tag_65:\n        /* \"#utility.yul\":2863:2867   */\n      0x00\n        /* \"#utility.yul\":2901:2903   */\n      0x20\n        /* \"#utility.yul\":2890:2899   */\n      dup3\n        /* \"#utility.yul\":2886:2904   */\n      add\n        /* \"#utility.yul\":2878:2904   */\n      swap1\n      pop\n        /* \"#utility.yul\":2914:2985   */\n      tag_207\n        /* \"#utility.yul\":2982:2983   */\n      0x00\n        /* \"#utility.yul\":2971:2980   */\n      dup4\n        /* \"#utility.yul\":2967:2984   */\n      add\n        /* \"#utility.yul\":2958:2964   */\n      dup5\n        /* \"#utility.yul\":2914:2985   */\n      tag_148\n      jump\t// in\n    tag_207:\n        /* \"#utility.yul\":2770:2992   */\n      swap3\n      swap2\n      pop\n      pop\n      jump\t// out\n        /* \"#utility.yul\":2998:3472   */\n    tag_69:\n        /* \"#utility.yul\":3066:3072   */\n      0x00\n        /* \"#utility.yul\":3074:3080   */\n      dup1\n        /* \"#utility.yul\":3123:3125   */\n      0x40\n        /* \"#utility.yul\":3111:3120   */\n      dup4\n        /* \"#utility.yul\":3102:3109   */\n      dup6\n        /* \"#utility.yul\":3098:3121   */\n      sub\n        /* \"#utility.yul\":3094:3126   */\n      slt\n        /* \"#utility.yul\":3091:3210   */\n      iszero\n      tag_209\n      jumpi\n        /* \"#utility.yul\":3129:3208   */\n      tag_210\n      tag_136\n      jump\t// in\n    tag_210:\n        /* \"#utility.yul\":3091:3210   */\n    tag_209:\n        /* \"#utility.yul\":3249:3250   */\n      0x00\n        /* \"#utility.yul\":3274:3327   */\n      tag_211\n        /* \"#utility.yul\":3319:3326   */\n      dup6\n        /* \"#utility.yul\":3310:3316   */\n      dup3\n        /* \"#utility.yul\":3299:3308   */\n      dup7\n        /* \"#utility.yul\":3295:3317   */\n      add\n        /* \"#utility.yul\":3274:3327   */\n      tag_145\n      jump\t// in\n    tag_211:\n        /* \"#utility.yul\":3264:3327   */\n      swap3\n      pop\n        /* \"#utility.yul\":3220:3337   */\n      pop\n        /* \"#utility.yul\":3376:3378   */\n      0x20\n        /* \"#utility.yul\":3402:3455   */\n      tag_212\n        /* \"#utility.yul\":3447:3454   */\n      dup6\n        /* \"#utility.yul\":3438:3444   */\n      dup3\n        /* \"#utility.yul\":3427:3436   */\n      dup7\n        /* \"#utility.yul\":3423:3445   */\n      add\n        /* \"#utility.yul\":3402:3455   */\n      tag_145\n      jump\t// in\n    tag_212:\n        /* \"#utility.yul\":3392:3455   */\n      swap2\n      pop\n        /* \"#utility.yul\":3347:3465   */\n      pop\n        /* \"#utility.yul\":2998:3472   */\n      swap3\n      pop\n      swap3\n      swap1\n      pop\n      jump\t// out\n        /* \"#utility.yul\":3478:3658   */\n    tag_149:\n        /* \"#utility.yul\":3526:3603   */\n      0x4e487b7100000000000000000000000000000000000000000000000000000000\n        /* \"#utility.yul\":3523:3524   */\n      0x00\n        /* \"#utility.yul\":3516:3604   */\n      mstore\n        /* \"#utility.yul\":3623:3627   */\n      0x21\n        /* \"#utility.yul\":3620:3621   */\n      0x04\n        /* \"#utility.yul\":3613:3628   */\n      mstore\n        /* \"#utility.yul\":3647:3651   */\n      0x24\n        /* \"#utility.yul\":3644:3645   */\n      0x00\n        /* \"#utility.yul\":3637:3652   */\n      revert\n        /* \"#utility.yul\":3664:3778   */\n    tag_150:\n        /* \"#utility.yul\":3746:3747   */\n      0x03\n        /* \"#utility.yul\":3739:3744   */\n      dup2\n        /* \"#utility.yul\":3736:3748   */\n      lt\n        /* \"#utility.yul\":3726:3772   */\n      tag_215\n      jumpi\n        /* \"#utility.yul\":3752:3770   */\n      tag_216\n      tag_149\n      jump\t// in\n    tag_216:\n        /* \"#utility.yul\":3726:3772   */\n    tag_215:\n        /* \"#utility.yul\":3664:3778   */\n      pop\n      jump\t// out\n        /* \"#utility.yul\":3784:3913   */\n    tag_151:\n        /* \"#utility.yul\":3830:3837   */\n      0x00\n        /* \"#utility.yul\":3859:3864   */\n      dup2\n        /* \"#utility.yul\":3848:3864   */\n      swap1\n      pop\n        /* \"#utility.yul\":3865:3907   */\n      tag_218\n        /* \"#utility.yul\":3901:3906   */\n      dup3\n        /* \"#utility.yul\":3865:3907   */\n      tag_150\n      jump\t// in\n    tag_218:\n        /* \"#utility.yul\":3784:3913   */\n      swap2\n      swap1\n      pop\n      jump\t// out\n        /* \"#utility.yul\":3919:4048   */\n    tag_152:\n        /* \"#utility.yul\":3976:3985   */\n      0x00\n        /* \"#utility.yul\":4009:4042   */\n      tag_220\n        /* \"#utility.yul\":4036:4041   */\n      dup3\n        /* \"#utility.yul\":4009:4042   */\n      tag_151\n      jump\t// in\n    tag_220:\n        /* \"#utility.yul\":3996:4042   */\n      swap1\n      pop\n        /* \"#utility.yul\":3919:4048   */\n      swap2\n      swap1\n      pop\n      jump\t// out\n        /* \"#utility.yul\":4054:4199   */\n    tag_153:\n        /* \"#utility.yul\":4148:4192   */\n      tag_222\n        /* \"#utility.yul\":4186:4191   */\n      dup2\n        /* \"#utility.yul\":4148:4192   */\n      tag_152\n      jump\t// in\n    tag_222:\n        /* \"#utility.yul\":4143:4146   */\n      dup3\n        /* \"#utility.yul\":4136:4193   */\n      mstore\n        /* \"#utility.yul\":4054:4199   */\n      pop\n      pop\n      jump\t// out\n        /* \"#utility.yul\":4205:4661   */\n    tag_77:\n        /* \"#utility.yul\":4361:4365   */\n      0x00\n        /* \"#utility.yul\":4399:4401   */\n      0x60\n        /* \"#utility.yul\":4388:4397   */\n      dup3\n        /* \"#utility.yul\":4384:4402   */\n      add\n        /* \"#utility.yul\":4376:4402   */\n      swap1\n      pop\n        /* \"#utility.yul\":4412:4483   */\n      tag_224\n        /* \"#utility.yul\":4480:4481   */\n      0x00\n        /* \"#utility.yul\":4469:4478   */\n      dup4\n        /* \"#utility.yul\":4465:4482   */\n      add\n        /* \"#utility.yul\":4456:4462   */\n      dup7\n        /* \"#utility.yul\":4412:4483   */\n      tag_143\n      jump\t// in\n    tag_224:\n        /* \"#utility.yul\":4493:4565   */\n      tag_225\n        /* \"#utility.yul\":4561:4563   */\n      0x20\n        /* \"#utility.yul\":4550:4559   */\n      dup4\n        /* \"#utility.yul\":4546:4564   */\n      add\n        /* \"#utility.yul\":4537:4543   */\n      dup6\n        /* \"#utility.yul\":4493:4565   */\n      tag_148\n      jump\t// in\n    tag_225:\n        /* \"#utility.yul\":4575:4654   */\n      tag_226\n        /* \"#utility.yul\":4650:4652   */\n      0x40\n        /* \"#utility.yul\":4639:4648   */\n      dup4\n        /* \"#utility.yul\":4635:4653   */\n      add\n        /* \"#utility.yul\":4626:4632   */\n      dup5\n        /* \"#utility.yul\":4575:4654   */\n      tag_153\n      jump\t// in\n    tag_226:\n        /* \"#utility.yul\":4205:4661   */\n      swap5\n      swap4\n      pop\n      pop\n      pop\n      pop\n      jump\t// out\n        /* \"#utility.yul\":4667:4766   */\n    tag_154:\n        /* \"#utility.yul\":4719:4725   */\n      0x00\n        /* \"#utility.yul\":4753:4758   */\n      dup2\n        /* \"#utility.yul\":4747:4759   */\n      mload\n        /* \"#utility.yul\":4737:4759   */\n      swap1\n      pop\n        /* \"#utility.yul\":4667:4766   */\n      swap2\n      swap1\n      pop\n      jump\t// out\n        /* \"#utility.yul\":4772:4941   */\n    tag_155:\n        /* \"#utility.yul\":4856:4867   */\n      0x00\n        /* \"#utility.yul\":4890:4896   */\n      dup3\n        /* \"#utility.yul\":4885:4888   */\n      dup3\n        /* \"#utility.yul\":4878:4897   */\n      mstore\n        /* \"#utility.yul\":4930:4934   */\n      0x20\n        /* \"#utility.yul\":4925:4928   */\n      dup3\n        /* \"#utility.yul\":4921:4935   */\n      add\n        /* \"#utility.yul\":4906:4935   */\n      swap1\n      pop\n        /* \"#utility.yul\":4772:4941   */\n      swap3\n      swap2\n      pop\n      pop\n      jump\t// out\n        /* \"#utility.yul\":4947:5193   */\n    tag_156:\n        /* \"#utility.yul\":5028:5029   */\n      0x00\n        /* \"#utility.yul\":5038:5151   */\n    tag_230:\n        /* \"#utility.yul\":5052:5058   */\n      dup4\n        /* \"#utility.yul\":5049:5050   */\n      dup2\n        /* \"#utility.yul\":5046:5059   */\n      lt\n        /* \"#utility.yul\":5038:5151   */\n      iszero\n      tag_232\n      jumpi\n        /* \"#utility.yul\":5137:5138   */\n      dup1\n        /* \"#utility.yul\":5132:5135   */\n      dup3\n        /* \"#utility.yul\":5128:5139   */\n      add\n        /* \"#utility.yul\":5122:5140   */\n      mload\n        /* \"#utility.yul\":5118:5119   */\n      dup2\n        /* \"#utility.yul\":5113:5116   */\n      dup5\n        /* \"#utility.yul\":5109:5120   */\n      add\n        /* \"#utility.yul\":5102:5141   */\n      mstore\n        /* \"#utility.yul\":5074:5076   */\n      0x20\n        /* \"#utility.yul\":5071:5072   */\n      dup2\n        /* \"#utility.yul\":5067:5077   */\n      add\n        /* \"#utility.yul\":5062:5077   */\n      swap1\n      pop\n        /* \"#utility.yul\":5038:5151   */\n      jump(tag_230)\n    tag_232:\n        /* \"#utility.yul\":5185:5186   */\n      0x00\n        /* \"#utility.yul\":5176:5182   */\n      dup5\n        /* \"#utility.yul\":5171:5174   */\n      dup5\n        /* \"#utility.yul\":5167:5183   */\n      add\n        /* \"#utility.yul\":5160:5187   */\n      mstore\n        /* \"#utility.yul\":5009:5193   */\n      pop\n        /* \"#utility.yul\":4947:5193   */\n      pop\n      pop\n      pop\n      jump\t// out\n        /* \"#utility.yul\":5199:5301   */\n    tag_157:\n        /* \"#utility.yul\":5240:5246   */\n      0x00\n        /* \"#utility.yul\":5291:5293   */\n      0x1f\n        /* \"#utility.yul\":5287:5294   */\n      not\n        /* \"#utility.yul\":5282:5284   */\n      0x1f\n        /* \"#utility.yul\":5275:5280   */\n      dup4\n        /* \"#utility.yul\":5271:5285   */\n      add\n        /* \"#utility.yul\":5267:5295   */\n      and\n        /* \"#utility.yul\":5257:5295   */\n      swap1\n      pop\n        /* \"#utility.yul\":5199:5301   */\n      swap2\n      swap1\n      pop\n      jump\t// out\n        /* \"#utility.yul\":5307:5684   */\n    tag_158:\n        /* \"#utility.yul\":5395:5398   */\n      0x00\n        /* \"#utility.yul\":5423:5462   */\n      tag_235\n        /* \"#utility.yul\":5456:5461   */\n      dup3\n        /* \"#utility.yul\":5423:5462   */\n      tag_154\n      jump\t// in\n    tag_235:\n        /* \"#utility.yul\":5478:5549   */\n      tag_236\n        /* \"#utility.yul\":5542:5548   */\n      dup2\n        /* \"#utility.yul\":5537:5540   */\n      dup6\n        /* \"#utility.yul\":5478:5549   */\n      tag_155\n      jump\t// in\n    tag_236:\n        /* \"#utility.yul\":5471:5549   */\n      swap4\n      pop\n        /* \"#utility.yul\":5558:5623   */\n      tag_237\n        /* \"#utility.yul\":5616:5622   */\n      dup2\n        /* \"#utility.yul\":5611:5614   */\n      dup6\n        /* \"#utility.yul\":5604:5608   */\n      0x20\n        /* \"#utility.yul\":5597:5602   */\n      dup7\n        /* \"#utility.yul\":5593:5609   */\n      add\n        /* \"#utility.yul\":5558:5623   */\n      tag_156\n      jump\t// in\n    tag_237:\n        /* \"#utility.yul\":5648:5677   */\n      tag_238\n        /* \"#utility.yul\":5670:5676   */\n      dup2\n        /* \"#utility.yul\":5648:5677   */\n      tag_157\n      jump\t// in\n    tag_238:\n        /* \"#utility.yul\":5643:5646   */\n      dup5\n        /* \"#utility.yul\":5639:5678   */\n      add\n        /* \"#utility.yul\":5632:5678   */\n      swap2\n      pop\n        /* \"#utility.yul\":5399:5684   */\n      pop\n        /* \"#utility.yul\":5307:5684   */\n      swap3\n      swap2\n      pop\n      pop\n      jump\t// out\n        /* \"#utility.yul\":5690:6003   */\n    tag_82:\n        /* \"#utility.yul\":5803:5807   */\n      0x00\n        /* \"#utility.yul\":5841:5843   */\n      0x20\n        /* \"#utility.yul\":5830:5839   */\n      dup3\n        /* \"#utility.yul\":5826:5844   */\n      add\n        /* \"#utility.yul\":5818:5844   */\n      swap1\n      pop\n        /* \"#utility.yul\":5890:5899   */\n      dup2\n        /* \"#utility.yul\":5884:5888   */\n      dup2\n        /* \"#utility.yul\":5880:5900   */\n      sub\n        /* \"#utility.yul\":5876:5877   */\n      0x00\n        /* \"#utility.yul\":5865:5874   */\n      dup4\n        /* \"#utility.yul\":5861:5878   */\n      add\n        /* \"#utility.yul\":5854:5901   */\n      mstore\n        /* \"#utility.yul\":5918:5996   */\n      tag_240\n        /* \"#utility.yul\":5991:5995   */\n      dup2\n        /* \"#utility.yul\":5982:5988   */\n      dup5\n        /* \"#utility.yul\":5918:5996   */\n      tag_158\n      jump\t// in\n    tag_240:\n        /* \"#utility.yul\":5910:5996   */\n      swap1\n      pop\n        /* \"#utility.yul\":5690:6003   */\n      swap3\n      swap2\n      pop\n      pop\n      jump\t// out\n        /* \"#utility.yul\":6009:6113   */\n    tag_159:\n        /* \"#utility.yul\":6054:6061   */\n      0x00\n        /* \"#utility.yul\":6083:6107   */\n      tag_242\n        /* \"#utility.yul\":6101:6106   */\n      dup3\n        /* \"#utility.yul\":6083:6107   */\n      tag_138\n      jump\t// in\n    tag_242:\n        /* \"#utility.yul\":6072:6107   */\n      swap1\n      pop\n        /* \"#utility.yul\":6009:6113   */\n      swap2\n      swap1\n      pop\n      jump\t// out\n        /* \"#utility.yul\":6119:6257   */\n    tag_160:\n        /* \"#utility.yul\":6200:6232   */\n      tag_244\n        /* \"#utility.yul\":6226:6231   */\n      dup2\n        /* \"#utility.yul\":6200:6232   */\n      tag_159\n      jump\t// in\n    tag_244:\n        /* \"#utility.yul\":6193:6198   */\n      dup2\n        /* \"#utility.yul\":6190:6233   */\n      eq\n        /* \"#utility.yul\":6180:6251   */\n      tag_245\n      jumpi\n        /* \"#utility.yul\":6247:6248   */\n      0x00\n        /* \"#utility.yul\":6244:6245   */\n      dup1\n        /* \"#utility.yul\":6237:6249   */\n      revert\n        /* \"#utility.yul\":6180:6251   */\n    tag_245:\n        /* \"#utility.yul\":6119:6257   */\n      pop\n      jump\t// out\n        /* \"#utility.yul\":6263:6418   */\n    tag_161:\n        /* \"#utility.yul\":6317:6322   */\n      0x00\n        /* \"#utility.yul\":6355:6361   */\n      dup2\n        /* \"#utility.yul\":6342:6362   */\n      calldataload\n        /* \"#utility.yul\":6333:6362   */\n      swap1\n      pop\n        /* \"#utility.yul\":6371:6412   */\n      tag_247\n        /* \"#utility.yul\":6406:6411   */\n      dup2\n        /* \"#utility.yul\":6371:6412   */\n      tag_160\n      jump\t// in\n    tag_247:\n        /* \"#utility.yul\":6263:6418   */\n      swap3\n      swap2\n      pop\n      pop\n      jump\t// out\n        /* \"#utility.yul\":6424:6914   */\n    tag_86:\n        /* \"#utility.yul\":6500:6506   */\n      0x00\n        /* \"#utility.yul\":6508:6514   */\n      dup1\n        /* \"#utility.yul\":6557:6559   */\n      0x40\n        /* \"#utility.yul\":6545:6554   */\n      dup4\n        /* \"#utility.yul\":6536:6543   */\n      dup6\n        /* \"#utility.yul\":6532:6555   */\n      sub\n        /* \"#utility.yul\":6528:6560   */\n      slt\n        /* \"#utility.yul\":6525:6644   */\n      iszero\n      tag_249\n      jumpi\n        /* \"#utility.yul\":6563:6642   */\n      tag_250\n      tag_136\n      jump\t// in\n    tag_250:\n        /* \"#utility.yul\":6525:6644   */\n    tag_249:\n        /* \"#utility.yul\":6683:6684   */\n      0x00\n        /* \"#utility.yul\":6708:6769   */\n      tag_251\n        /* \"#utility.yul\":6761:6768   */\n      dup6\n        /* \"#utility.yul\":6752:6758   */\n      dup3\n        /* \"#utility.yul\":6741:6750   */\n      dup7\n        /* \"#utility.yul\":6737:6759   */\n      add\n        /* \"#utility.yul\":6708:6769   */\n      tag_161\n      jump\t// in\n    tag_251:\n        /* \"#utility.yul\":6698:6769   */\n      swap3\n      pop\n        /* \"#utility.yul\":6654:6779   */\n      pop\n        /* \"#utility.yul\":6818:6820   */\n      0x20\n        /* \"#utility.yul\":6844:6897   */\n      tag_252\n        /* \"#utility.yul\":6889:6896   */\n      dup6\n        /* \"#utility.yul\":6880:6886   */\n      dup3\n        /* \"#utility.yul\":6869:6878   */\n      dup7\n        /* \"#utility.yul\":6865:6887   */\n      add\n        /* \"#utility.yul\":6844:6897   */\n      tag_145\n      jump\t// in\n    tag_252:\n        /* \"#utility.yul\":6834:6897   */\n      swap2\n      pop\n        /* \"#utility.yul\":6789:6907   */\n      pop\n        /* \"#utility.yul\":6424:6914   */\n      swap3\n      pop\n      swap3\n      swap1\n      pop\n      jump\t// out\n        /* \"#utility.yul\":6920:7083   */\n    tag_162:\n        /* \"#utility.yul\":7060:7075   */\n      0x4e6f7420746865206f776e657200000000000000000000000000000000000000\n        /* \"#utility.yul\":7056:7057   */\n      0x00\n        /* \"#utility.yul\":7048:7054   */\n      dup3\n        /* \"#utility.yul\":7044:7058   */\n      add\n        /* \"#utility.yul\":7037:7076   */\n      mstore\n        /* \"#utility.yul\":6920:7083   */\n      pop\n      jump\t// out\n        /* \"#utility.yul\":7089:7455   */\n    tag_163:\n        /* \"#utility.yul\":7231:7234   */\n      0x00\n        /* \"#utility.yul\":7252:7319   */\n      tag_255\n        /* \"#utility.yul\":7316:7318   */\n      0x0d\n        /* \"#utility.yul\":7311:7314   */\n      dup4\n        /* \"#utility.yul\":7252:7319   */\n      tag_155\n      jump\t// in\n    tag_255:\n        /* \"#utility.yul\":7245:7319   */\n      swap2\n      pop\n        /* \"#utility.yul\":7328:7421   */\n      tag_256\n        /* \"#utility.yul\":7417:7420   */\n      dup3\n        /* \"#utility.yul\":7328:7421   */\n      tag_162\n      jump\t// in\n    tag_256:\n        /* \"#utility.yul\":7446:7448   */\n      0x20\n        /* \"#utility.yul\":7441:7444   */\n      dup3\n        /* \"#utility.yul\":7437:7449   */\n      add\n        /* \"#utility.yul\":7430:7449   */\n      swap1\n      pop\n        /* \"#utility.yul\":7089:7455   */\n      swap2\n      swap1\n      pop\n      jump\t// out\n        /* \"#utility.yul\":7461:7880   */\n    tag_99:\n        /* \"#utility.yul\":7627:7631   */\n      0x00\n        /* \"#utility.yul\":7665:7667   */\n      0x20\n        /* \"#utility.yul\":7654:7663   */\n      dup3\n        /* \"#utility.yul\":7650:7668   */\n      add\n        /* \"#utility.yul\":7642:7668   */\n      swap1\n      pop\n        /* \"#utility.yul\":7714:7723   */\n      dup2\n        /* \"#utility.yul\":7708:7712   */\n      dup2\n        /* \"#utility.yul\":7704:7724   */\n      sub\n        /* \"#utility.yul\":7700:7701   */\n      0x00\n        /* \"#utility.yul\":7689:7698   */\n      dup4\n        /* \"#utility.yul\":7685:7702   */\n      add\n        /* \"#utility.yul\":7678:7725   */\n      mstore\n        /* \"#utility.yul\":7742:7873   */\n      tag_258\n        /* \"#utility.yul\":7868:7872   */\n      dup2\n        /* \"#utility.yul\":7742:7873   */\n      tag_163\n      jump\t// in\n    tag_258:\n        /* \"#utility.yul\":7734:7873   */\n      swap1\n      pop\n        /* \"#utility.yul\":7461:7880   */\n      swap2\n      swap1\n      pop\n      jump\t// out\n        /* \"#utility.yul\":7886:8066   */\n    tag_164:\n        /* \"#utility.yul\":7934:8011   */\n      0x4e487b7100000000000000000000000000000000000000000000000000000000\n        /* \"#utility.yul\":7931:7932   */\n      0x00\n        /* \"#utility.yul\":7924:8012   */\n      mstore\n        /* \"#utility.yul\":8031:8035   */\n      0x11\n        /* \"#utility.yul\":8028:8029   */\n      0x04\n        /* \"#utility.yul\":8021:8036   */\n      mstore\n        /* \"#utility.yul\":8055:8059   */\n      0x24\n        /* \"#utility.yul\":8052:8053   */\n      0x00\n        /* \"#utility.yul\":8045:8060   */\n      revert\n        /* \"#utility.yul\":8072:8263   */\n    tag_112:\n        /* \"#utility.yul\":8112:8115   */\n      0x00\n        /* \"#utility.yul\":8131:8151   */\n      tag_261\n        /* \"#utility.yul\":8149:8150   */\n      dup3\n        /* \"#utility.yul\":8131:8151   */\n      tag_142\n      jump\t// in\n    tag_261:\n        /* \"#utility.yul\":8126:8151   */\n      swap2\n      pop\n        /* \"#utility.yul\":8165:8185   */\n      tag_262\n        /* \"#utility.yul\":8183:8184   */\n      dup4\n        /* \"#utility.yul\":8165:8185   */\n      tag_142\n      jump\t// in\n    tag_262:\n        /* \"#utility.yul\":8160:8185   */\n      swap3\n      pop\n        /* \"#utility.yul\":8208:8209   */\n      dup3\n        /* \"#utility.yul\":8205:8206   */\n      dup3\n        /* \"#utility.yul\":8201:8210   */\n      add\n        /* \"#utility.yul\":8194:8210   */\n      swap1\n      pop\n        /* \"#utility.yul\":8229:8232   */\n      dup1\n        /* \"#utility.yul\":8226:8227   */\n      dup3\n        /* \"#utility.yul\":8223:8233   */\n      gt\n        /* \"#utility.yul\":8220:8256   */\n      iszero\n      tag_263\n      jumpi\n        /* \"#utility.yul\":8236:8254   */\n      tag_264\n      tag_164\n      jump\t// in\n    tag_264:\n        /* \"#utility.yul\":8220:8256   */\n    tag_263:\n        /* \"#utility.yul\":8072:8263   */\n      swap3\n      swap2\n      pop\n      pop\n      jump\t// out\n        /* \"#utility.yul\":8269:8439   */\n    tag_165:\n        /* \"#utility.yul\":8409:8431   */\n      0x496e73756666696369656e742062616c616e6365000000000000000000000000\n        /* \"#utility.yul\":8405:8406   */\n      0x00\n        /* \"#utility.yul\":8397:8403   */\n      dup3\n        /* \"#utility.yul\":8393:8407   */\n      add\n        /* \"#utility.yul\":8386:8432   */\n      mstore\n        /* \"#utility.yul\":8269:8439   */\n      pop\n      jump\t// out\n        /* \"#utility.yul\":8445:8811   */\n    tag_166:\n        /* \"#utility.yul\":8587:8590   */\n      0x00\n        /* \"#utility.yul\":8608:8675   */\n      tag_267\n        /* \"#utility.yul\":8672:8674   */\n      0x14\n        /* \"#utility.yul\":8667:8670   */\n      dup4\n        /* \"#utility.yul\":8608:8675   */\n      tag_155\n      jump\t// in\n    tag_267:\n        /* \"#utility.yul\":8601:8675   */\n      swap2\n      pop\n        /* \"#utility.yul\":8684:8777   */\n      tag_268\n        /* \"#utility.yul\":8773:8776   */\n      dup3\n        /* \"#utility.yul\":8684:8777   */\n      tag_165\n      jump\t// in\n    tag_268:\n        /* \"#utility.yul\":8802:8804   */\n      0x20\n        /* \"#utility.yul\":8797:8800   */\n      dup3\n        /* \"#utility.yul\":8793:8805   */\n      add\n        /* \"#utility.yul\":8786:8805   */\n      swap1\n      pop\n        /* \"#utility.yul\":8445:8811   */\n      swap2\n      swap1\n      pop\n      jump\t// out\n        /* \"#utility.yul\":8817:9236   */\n    tag_122:\n        /* \"#utility.yul\":8983:8987   */\n      0x00\n        /* \"#utility.yul\":9021:9023   */\n      0x20\n        /* \"#utility.yul\":9010:9019   */\n      dup3\n        /* \"#utility.yul\":9006:9024   */\n      add\n        /* \"#utility.yul\":8998:9024   */\n      swap1\n      pop\n        /* \"#utility.yul\":9070:9079   */\n      dup2\n        /* \"#utility.yul\":9064:9068   */\n      dup2\n        /* \"#utility.yul\":9060:9080   */\n      sub\n        /* \"#utility.yul\":9056:9057   */\n      0x00\n        /* \"#utility.yul\":9045:9054   */\n      dup4\n        /* \"#utility.yul\":9041:9058   */\n      add\n        /* \"#utility.yul\":9034:9081   */\n      mstore\n        /* \"#utility.yul\":9098:9229   */\n      tag_270\n        /* \"#utility.yul\":9224:9228   */\n      dup2\n        /* \"#utility.yul\":9098:9229   */\n      tag_166\n      jump\t// in\n    tag_270:\n        /* \"#utility.yul\":9090:9229   */\n      swap1\n      pop\n        /* \"#utility.yul\":8817:9236   */\n      swap2\n      swap1\n      pop\n      jump\t// out\n        /* \"#utility.yul\":9242:9358   */\n    tag_167:\n        /* \"#utility.yul\":9312:9333   */\n      tag_272\n        /* \"#utility.yul\":9327:9332   */\n      dup2\n        /* \"#utility.yul\":9312:9333   */\n      tag_146\n      jump\t// in\n    tag_272:\n        /* \"#utility.yul\":9305:9310   */\n      dup2\n        /* \"#utility.yul\":9302:9334   */\n      eq\n        /* \"#utility.yul\":9292:9352   */\n      tag_273\n      jumpi\n        /* \"#utility.yul\":9348:9349   */\n      0x00\n        /* \"#utility.yul\":9345:9346   */\n      dup1\n        /* \"#utility.yul\":9338:9350   */\n      revert\n        /* \"#utility.yul\":9292:9352   */\n    tag_273:\n        /* \"#utility.yul\":9242:9358   */\n      pop\n      jump\t// out\n        /* \"#utility.yul\":9364:9501   */\n    tag_168:\n        /* \"#utility.yul\":9418:9423   */\n      0x00\n        /* \"#utility.yul\":9449:9455   */\n      dup2\n        /* \"#utility.yul\":9443:9456   */\n      mload\n        /* \"#utility.yul\":9434:9456   */\n      swap1\n      pop\n        /* \"#utility.yul\":9465:9495   */\n      tag_275\n        /* \"#utility.yul\":9489:9494   */\n      dup2\n        /* \"#utility.yul\":9465:9495   */\n      tag_167\n      jump\t// in\n    tag_275:\n        /* \"#utility.yul\":9364:9501   */\n      swap3\n      swap2\n      pop\n      pop\n      jump\t// out\n        /* \"#utility.yul\":9507:9852   */\n    tag_129:\n        /* \"#utility.yul\":9574:9580   */\n      0x00\n        /* \"#utility.yul\":9623:9625   */\n      0x20\n        /* \"#utility.yul\":9611:9620   */\n      dup3\n        /* \"#utility.yul\":9602:9609   */\n      dup5\n        /* \"#utility.yul\":9598:9621   */\n      sub\n        /* \"#utility.yul\":9594:9626   */\n      slt\n        /* \"#utility.yul\":9591:9710   */\n      iszero\n      tag_277\n      jumpi\n        /* \"#utility.yul\":9629:9708   */\n      tag_278\n      tag_136\n      jump\t// in\n    tag_278:\n        /* \"#utility.yul\":9591:9710   */\n    tag_277:\n        /* \"#utility.yul\":9749:9750   */\n      0x00\n        /* \"#utility.yul\":9774:9835   */\n      tag_279\n        /* \"#utility.yul\":9827:9834   */\n      dup5\n        /* \"#utility.yul\":9818:9824   */\n      dup3\n        /* \"#utility.yul\":9807:9816   */\n      dup6\n        /* \"#utility.yul\":9803:9825   */\n      add\n        /* \"#utility.yul\":9774:9835   */\n      tag_168\n      jump\t// in\n    tag_279:\n        /* \"#utility.yul\":9764:9835   */\n      swap2\n      pop\n        /* \"#utility.yul\":9720:9845   */\n      pop\n        /* \"#utility.yul\":9507:9852   */\n      swap3\n      swap2\n      pop\n      pop\n      jump\t// out\n\n    auxdata: 0xa2646970667358221220d35f8433b3a9a6c0ba610853e3d80730df34ebc02b7bcfabd293b7135e1469cd64736f6c63430008160033\n}\n",
				"bytecode": {
					"linkReferences": {},
					"object": "608060405234801561000f575f80fd5b50335f806101000a81548173ffffffffffffffffffffffffffffffffffffffff021916908373ffffffffffffffffffffffffffffffffffffffff160217905550610de28061005c5f395ff3fe6080604052600436106100eb575f3560e01c8063777acf3711610089578063bfe9ef4f11610058578063bfe9ef4f146102e2578063c1756a2c1461030c578063c816f03814610334578063fa391c641461035c576100f2565b8063777acf37146102285780638da5cb5b1461023e5780638dfa436314610268578063a85c38ef146102a4576100f2565b80633de0ec4e116100c55780633de0ec4e146101825780634abe3052146101ac5780635eb45731146101d657806360fe47b114610200576100f2565b8063092a5cce146100f457806327e235e31461010a5780632c96437114610146576100f2565b366100f257005b005b3480156100ff575f80fd5b50610108610386565b005b348015610115575f80fd5b50610130600480360381019061012b9190610912565b61044b565b60405161013d9190610955565b60405180910390f35b348015610151575f80fd5b5061016c60048036038101906101679190610998565b610460565b6040516101799190610955565b60405180910390f35b34801561018d575f80fd5b5061019661046c565b6040516101a39190610955565b60405180910390f35b3480156101b7575f80fd5b506101c0610475565b6040516101cd9190610955565b60405180910390f35b3480156101e1575f80fd5b506101ea61047b565b6040516101f791906109dd565b60405180910390f35b34801561020b575f80fd5b5061022660048036038101906102219190610998565b610483565b005b348015610233575f80fd5b5061023c61051a565b005b348015610249575f80fd5b506102526105a0565b60405161025f9190610a05565b60405180910390f35b348015610273575f80fd5b5061028e60048036038101906102899190610a1e565b6105c3565b60405161029b9190610955565b60405180910390f35b3480156102af575f80fd5b506102ca60048036038101906102c59190610998565b6105d8565b6040516102d993929190610acf565b60405180910390f35b3480156102ed575f80fd5b506102f6610639565b6040516103039190610b8e565b60405180910390f35b348015610317575f80fd5b50610332600480360381019061032d9190610be9565b610676565b005b34801561033f575f80fd5b5061035a60048036038101906103559190610912565b6107f3565b005b348015610367575f80fd5b506103706108a2565b60405161037d91906109dd565b60405180910390f35b5f8054906101000a900473ffffffffffffffffffffffffffffffffffffffff1673ffffffffffffffffffffffffffffffffffffffff163373ffffffffffffffffffffffffffffffffffffffff1614610413576040517f08c379a000000000000000000000000000000000000000000000000000000000815260040161040a90610c71565b60405180910390fd5b5f8054906101000a900473ffffffffffffffffffffffffffffffffffffffff1673ffffffffffffffffffffffffffffffffffffffff16ff5b6003602052805f5260405f205f915090505481565b5f600182019050919050565b5f600154905090565b60015481565b5f6001905090565b5f8054906101000a900473ffffffffffffffffffffffffffffffffffffffff1673ffffffffffffffffffffffffffffffffffffffff163373ffffffffffffffffffffffffffffffffffffffff1614610510576040517f08c379a000000000000000000000000000000000000000000000000000000000815260040161050790610c71565b60405180910390fd5b8060018190555050565b5f8054906101000a900473ffffffffffffffffffffffffffffffffffffffff1673ffffffffffffffffffffffffffffffffffffffff163373ffffffffffffffffffffffffffffffffffffffff161461059e576040517f82b4290000000000000000000000000000000000000000000000000000000000815260040160405180910390fd5b565b5f8054906101000a900473ffffffffffffffffffffffffffffffffffffffff1681565b5f81836105d09190610cbc565b905092915050565b600481815481106105e7575f80fd5b905f5260205f2090600202015f91509050805f015490806001015f9054906101000a900473ffffffffffffffffffffffffffffffffffffffff16908060010160149054906101000a900460ff16905083565b60606040518060400160405280601d81526020017f41627374726163742066756e6374696f6e20696d706c656d656e746564000000815250905090565b5f8054906101000a900473ffffffffffffffffffffffffffffffffffffffff1673ffffffffffffffffffffffffffffffffffffffff163373ffffffffffffffffffffffffffffffffffffffff1614610703576040517f08c379a00000000000000000000000000000000000000000000000000000000081526004016106fa90610c71565b60405180910390fd5b80471015610746576040517f08c379a000000000000000000000000000000000000000000000000000000000815260040161073d90610d39565b60405180910390fd5b8173ffffffffffffffffffffffffffffffffffffffff166108fc8290811502906040515f60405180830381858888f19350505050158015610789573d5f803e3d5ffd5b508173ffffffffffffffffffffffffffffffffffffffff163373ffffffffffffffffffffffffffffffffffffffff167f3990db2d31862302a685e8086b5755072a6e2b5b780af1ee81ece35ee3cd3345836040516107e79190610955565b60405180910390a35050565b5f8190508073ffffffffffffffffffffffffffffffffffffffff16635eb457316040518163ffffffff1660e01b81526004016020604051808303815f875af192505050801561086057506040513d601f19601f8201168201806040525081019061085d9190610d81565b60015b610882575f60025f6101000a81548160ff02191690831515021790555061089e565b50600160025f6101000a81548160ff0219169083151502179055505b5050565b60025f9054906101000a900460ff1681565b5f80fd5b5f73ffffffffffffffffffffffffffffffffffffffff82169050919050565b5f6108e1826108b8565b9050919050565b6108f1816108d7565b81146108fb575f80fd5b50565b5f8135905061090c816108e8565b92915050565b5f60208284031215610927576109266108b4565b5b5f610934848285016108fe565b91505092915050565b5f819050919050565b61094f8161093d565b82525050565b5f6020820190506109685f830184610946565b92915050565b6109778161093d565b8114610981575f80fd5b50565b5f813590506109928161096e565b92915050565b5f602082840312156109ad576109ac6108b4565b5b5f6109ba84828501610984565b91505092915050565b5f8115159050919050565b6109d7816109c3565b82525050565b5f6020820190506109f05f8301846109ce565b92915050565b6109ff816108d7565b82525050565b5f602082019050610a185f8301846109f6565b92915050565b5f8060408385031215610a3457610a336108b4565b5b5f610a4185828601610984565b9250506020610a5285828601610984565b9150509250929050565b7f4e487b71000000000000000000000000000000000000000000000000000000005f52602160045260245ffd5b60038110610a9a57610a99610a5c565b5b50565b5f819050610aaa82610a89565b919050565b5f610ab982610a9d565b9050919050565b610ac981610aaf565b82525050565b5f606082019050610ae25f830186610946565b610aef60208301856109f6565b610afc6040830184610ac0565b949350505050565b5f81519050919050565b5f82825260208201905092915050565b5f5b83811015610b3b578082015181840152602081019050610b20565b5f8484015250505050565b5f601f19601f8301169050919050565b5f610b6082610b04565b610b6a8185610b0e565b9350610b7a818560208601610b1e565b610b8381610b46565b840191505092915050565b5f6020820190508181035f830152610ba68184610b56565b905092915050565b5f610bb8826108b8565b9050919050565b610bc881610bae565b8114610bd2575f80fd5b50565b5f81359050610be381610bbf565b92915050565b5f8060408385031215610bff57610bfe6108b4565b5b5f610c0c85828601610bd5565b9250506020610c1d85828601610984565b9150509250929050565b7f4e6f7420746865206f776e6572000000000000000000000000000000000000005f82015250565b5f610c5b600d83610b0e565b9150610c6682610c27565b602082019050919050565b5f6020820190508181035f830152610c8881610c4f565b9050919050565b7f4e487b71000000000000000000000000000000000000000000000000000000005f52601160045260245ffd5b5f610cc68261093d565b9150610cd18361093d565b9250828201905080821115610ce957610ce8610c8f565b5b92915050565b7f496e73756666696369656e742062616c616e63650000000000000000000000005f82015250565b5f610d23601483610b0e565b9150610d2e82610cef565b602082019050919050565b5f6020820190508181035f830152610d5081610d17565b9050919050565b610d60816109c3565b8114610d6a575f80fd5b50565b5f81519050610d7b81610d57565b92915050565b5f60208284031215610d9657610d956108b4565b5b5f610da384828501610d6d565b9150509291505056fea2646970667358221220d35f8433b3a9a6c0ba610853e3d80730df34ebc02b7bcfabd293b7135e1469cd64736f6c63430008160033",
					"opcodes": "PUSH1 0x80 PUSH1 0x40 MSTORE CALLVALUE DUP1 ISZERO PUSH2 0xF JUMPI PUSH0 DUP1 REVERT JUMPDEST POP CALLER PUSH0 DUP1 PUSH2 0x100 EXP DUP2 SLOAD DUP2 PUSH20 0xFFFFFFFFFFFFFFFFFFFFFFFFFFFFFFFFFFFFFFFF MUL NOT AND SWAP1 DUP4 PUSH20 0xFFFFFFFFFFFFFFFFFFFFFFFFFFFFFFFFFFFFFFFF AND MUL OR SWAP1 SSTORE POP PUSH2 0xDE2 DUP1 PUSH2 0x5C PUSH0 CODECOPY PUSH0 RETURN INVALID PUSH1 0x80 PUSH1 0x40 MSTORE PUSH1 0x4 CALLDATASIZE LT PUSH2 0xEB JUMPI PUSH0 CALLDATALOAD PUSH1 0xE0 SHR DUP1 PUSH4 0x777ACF37 GT PUSH2 0x89 JUMPI DUP1 PUSH4 0xBFE9EF4F GT PUSH2 0x58 JUMPI DUP1 PUSH4 0xBFE9EF4F EQ PUSH2 0x2E2 JUMPI DUP1 PUSH4 0xC1756A2C EQ PUSH2 0x30C JUMPI DUP1 PUSH4 0xC816F038 EQ PUSH2 0x334 JUMPI DUP1 PUSH4 0xFA391C64 EQ PUSH2 0x35C JUMPI PUSH2 0xF2 JUMP JUMPDEST DUP1 PUSH4 0x777ACF37 EQ PUSH2 0x228 JUMPI DUP1 PUSH4 0x8DA5CB5B EQ PUSH2 0x23E JUMPI DUP1 PUSH4 0x8DFA4363 EQ PUSH2 0x268 JUMPI DUP1 PUSH4 0xA85C38EF EQ PUSH2 0x2A4 JUMPI PUSH2 0xF2 JUMP JUMPDEST DUP1 PUSH4 0x3DE0EC4E GT PUSH2 0xC5 JUMPI DUP1 PUSH4 0x3DE0EC4E EQ PUSH2 0x182 JUMPI DUP1 PUSH4 0x4ABE3052 EQ PUSH2 0x1AC JUMPI DUP1 PUSH4 0x5EB45731 EQ PUSH2 0x1D6 JUMPI DUP1 PUSH4 0x60FE47B1 EQ PUSH2 0x200 JUMPI PUSH2 0xF2 JUMP JUMPDEST DUP1 PUSH4 0x92A5CCE EQ PUSH2 0xF4 JUMPI DUP1 PUSH4 0x27E235E3 EQ PUSH2 0x10A JUMPI DUP1 PUSH4 0x2C964371 EQ PUSH2 0x146 JUMPI PUSH2 0xF2 JUMP JUMPDEST CALLDATASIZE PUSH2 0xF2 JUMPI STOP JUMPDEST STOP JUMPDEST CALLVALUE DUP1 ISZERO PUSH2 0xFF JUMPI PUSH0 DUP1 REVERT JUMPDEST POP PUSH2 0x108 PUSH2 0x386 JUMP JUMPDEST STOP JUMPDEST CALLVALUE DUP1 ISZERO PUSH2 0x115 JUMPI PUSH0 DUP1 REVERT JUMPDEST POP PUSH2 0x130 PUSH1 0x4 DUP1 CALLDATASIZE SUB DUP2 ADD SWAP1 PUSH2 0x12B SWAP2 SWAP1 PUSH2 0x912 JUMP JUMPDEST PUSH2 0x44B JUMP JUMPDEST PUSH1 0x40 MLOAD PUSH2 0x13D SWAP2 SWAP1 PUSH2 0x955 JUMP JUMPDEST PUSH1 0x40 MLOAD DUP1 SWAP2 SUB SWAP1 RETURN JUMPDEST CALLVALUE DUP1 ISZERO PUSH2 0x151 JUMPI PUSH0 DUP1 REVERT JUMPDEST POP PUSH2 0x16C PUSH1 0x4 DUP1 CALLDATASIZE SUB DUP2 ADD SWAP1 PUSH2 0x167 SWAP2 SWAP1 PUSH2 0x998 JUMP JUMPDEST PUSH2 0x460 JUMP JUMPDEST PUSH1 0x40 MLOAD PUSH2 0x179 SWAP2 SWAP1 PUSH2 0x955 JUMP JUMPDEST PUSH1 0x40 MLOAD DUP1 SWAP2 SUB SWAP1 RETURN JUMPDEST CALLVALUE DUP1 ISZERO PUSH2 0x18D JUMPI PUSH0 DUP1 REVERT JUMPDEST POP PUSH2 0x196 PUSH2 0x46C JUMP JUMPDEST PUSH1 0x40 MLOAD PUSH2 0x1A3 SWAP2 SWAP1 PUSH2 0x955 JUMP JUMPDEST PUSH1 0x40 MLOAD DUP1 SWAP2 SUB SWAP1 RETURN JUMPDEST CALLVALUE DUP1 ISZERO PUSH2 0x1B7 JUMPI PUSH0 DUP1 REVERT JUMPDEST POP PUSH2 0x1C0 PUSH2 0x475 JUMP JUMPDEST PUSH1 0x40 MLOAD PUSH2 0x1CD SWAP2 SWAP1 PUSH2 0x955 JUMP JUMPDEST PUSH1 0x40 MLOAD DUP1 SWAP2 SUB SWAP1 RETURN JUMPDEST CALLVALUE DUP1 ISZERO PUSH2 0x1E1 JUMPI PUSH0 DUP1 REVERT JUMPDEST POP PUSH2 0x1EA PUSH2 0x47B JUMP JUMPDEST PUSH1 0x40 MLOAD PUSH2 0x1F7 SWAP2 SWAP1 PUSH2 0x9DD JUMP JUMPDEST PUSH1 0x40 MLOAD DUP1 SWAP2 SUB SWAP1 RETURN JUMPDEST CALLVALUE DUP1 ISZERO PUSH2 0x20B JUMPI PUSH0 DUP1 REVERT JUMPDEST POP PUSH2 0x226 PUSH1 0x4 DUP1 CALLDATASIZE SUB DUP2 ADD SWAP1 PUSH2 0x221 SWAP2 SWAP1 PUSH2 0x998 JUMP JUMPDEST PUSH2 0x483 JUMP JUMPDEST STOP JUMPDEST CALLVALUE DUP1 ISZERO PUSH2 0x233 JUMPI PUSH0 DUP1 REVERT JUMPDEST POP PUSH2 0x23C PUSH2 0x51A JUMP JUMPDEST STOP JUMPDEST CALLVALUE DUP1 ISZERO PUSH2 0x249 JUMPI PUSH0 DUP1 REVERT JUMPDEST POP PUSH2 0x252 PUSH2 0x5A0 JUMP JUMPDEST PUSH1 0x40 MLOAD PUSH2 0x25F SWAP2 SWAP1 PUSH2 0xA05 JUMP JUMPDEST PUSH1 0x40 MLOAD DUP1 SWAP2 SUB SWAP1 RETURN JUMPDEST CALLVALUE DUP1 ISZERO PUSH2 0x273 JUMPI PUSH0 DUP1 REVERT JUMPDEST POP PUSH2 0x28E PUSH1 0x4 DUP1 CALLDATASIZE SUB DUP2 ADD SWAP1 PUSH2 0x289 SWAP2 SWAP1 PUSH2 0xA1E JUMP JUMPDEST PUSH2 0x5C3 JUMP JUMPDEST PUSH1 0x40 MLOAD PUSH2 0x29B SWAP2 SWAP1 PUSH2 0x955 JUMP JUMPDEST PUSH1 0x40 MLOAD DUP1 SWAP2 SUB SWAP1 RETURN JUMPDEST CALLVALUE DUP1 ISZERO PUSH2 0x2AF JUMPI PUSH0 DUP1 REVERT JUMPDEST POP PUSH2 0x2CA PUSH1 0x4 DUP1 CALLDATASIZE SUB DUP2 ADD SWAP1 PUSH2 0x2C5 SWAP2 SWAP1 PUSH2 0x998 JUMP JUMPDEST PUSH2 0x5D8 JUMP JUMPDEST PUSH1 0x40 MLOAD PUSH2 0x2D9 SWAP4 SWAP3 SWAP2 SWAP1 PUSH2 0xACF JUMP JUMPDEST PUSH1 0x40 MLOAD DUP1 SWAP2 SUB SWAP1 RETURN JUMPDEST CALLVALUE DUP1 ISZERO PUSH2 0x2ED JUMPI PUSH0 DUP1 REVERT JUMPDEST POP PUSH2 0x2F6 PUSH2 0x639 JUMP JUMPDEST PUSH1 0x40 MLOAD PUSH2 0x303 SWAP2 SWAP1 PUSH2 0xB8E JUMP JUMPDEST PUSH1 0x40 MLOAD DUP1 SWAP2 SUB SWAP1 RETURN JUMPDEST CALLVALUE DUP1 ISZERO PUSH2 0x317 JUMPI PUSH0 DUP1 REVERT JUMPDEST POP PUSH2 0x332 PUSH1 0x4 DUP1 CALLDATASIZE SUB DUP2 ADD SWAP1 PUSH2 0x32D SWAP2 SWAP1 PUSH2 0xBE9 JUMP JUMPDEST PUSH2 0x676 JUMP JUMPDEST STOP JUMPDEST CALLVALUE DUP1 ISZERO PUSH2 0x33F JUMPI PUSH0 DUP1 REVERT JUMPDEST POP PUSH2 0x35A PUSH1 0x4 DUP1 CALLDATASIZE SUB DUP2 ADD SWAP1 PUSH2 0x355 SWAP2 SWAP1 PUSH2 0x912 JUMP JUMPDEST PUSH2 0x7F3 JUMP JUMPDEST STOP JUMPDEST CALLVALUE DUP1 ISZERO PUSH2 0x367 JUMPI PUSH0 DUP1 REVERT JUMPDEST POP PUSH2 0x370 PUSH2 0x8A2 JUMP JUMPDEST PUSH1 0x40 MLOAD PUSH2 0x37D SWAP2 SWAP1 PUSH2 0x9DD JUMP JUMPDEST PUSH1 0x40 MLOAD DUP1 SWAP2 SUB SWAP1 RETURN JUMPDEST PUSH0 DUP1 SLOAD SWAP1 PUSH2 0x100 EXP SWAP1 DIV PUSH20 0xFFFFFFFFFFFFFFFFFFFFFFFFFFFFFFFFFFFFFFFF AND PUSH20 0xFFFFFFFFFFFFFFFFFFFFFFFFFFFFFFFFFFFFFFFF AND CALLER PUSH20 0xFFFFFFFFFFFFFFFFFFFFFFFFFFFFFFFFFFFFFFFF AND EQ PUSH2 0x413 JUMPI PUSH1 0x40 MLOAD PUSH32 0x8C379A000000000000000000000000000000000000000000000000000000000 DUP2 MSTORE PUSH1 0x4 ADD PUSH2 0x40A SWAP1 PUSH2 0xC71 JUMP JUMPDEST PUSH1 0x40 MLOAD DUP1 SWAP2 SUB SWAP1 REVERT JUMPDEST PUSH0 DUP1 SLOAD SWAP1 PUSH2 0x100 EXP SWAP1 DIV PUSH20 0xFFFFFFFFFFFFFFFFFFFFFFFFFFFFFFFFFFFFFFFF AND PUSH20 0xFFFFFFFFFFFFFFFFFFFFFFFFFFFFFFFFFFFFFFFF AND SELFDESTRUCT JUMPDEST PUSH1 0x3 PUSH1 0x20 MSTORE DUP1 PUSH0 MSTORE PUSH1 0x40 PUSH0 KECCAK256 PUSH0 SWAP2 POP SWAP1 POP SLOAD DUP2 JUMP JUMPDEST PUSH0 PUSH1 0x1 DUP3 ADD SWAP1 POP SWAP2 SWAP1 POP JUMP JUMPDEST PUSH0 PUSH1 0x1 SLOAD SWAP1 POP SWAP1 JUMP JUMPDEST PUSH1 0x1 SLOAD DUP2 JUMP JUMPDEST PUSH0 PUSH1 0x1 SWAP1 POP SWAP1 JUMP JUMPDEST PUSH0 DUP1 SLOAD SWAP1 PUSH2 0x100 EXP SWAP1 DIV PUSH20 0xFFFFFFFFFFFFFFFFFFFFFFFFFFFFFFFFFFFFFFFF AND PUSH20 0xFFFFFFFFFFFFFFFFFFFFFFFFFFFFFFFFFFFFFFFF AND CALLER PUSH20 0xFFFFFFFFFFFFFFFFFFFFFFFFFFFFFFFFFFFFFFFF AND EQ PUSH2 0x510 JUMPI PUSH1 0x40 MLOAD PUSH32 0x8C379A000000000000000000000000000000000000000000000000000000000 DUP2 MSTORE PUSH1 0x4 ADD PUSH2 0x507 SWAP1 PUSH2 0xC71 JUMP JUMPDEST PUSH1 0x40 MLOAD DUP1 SWAP2 SUB SWAP1 REVERT JUMPDEST DUP1 PUSH1 0x1 DUP2 SWAP1 SSTORE POP POP JUMP JUMPDEST PUSH0 DUP1 SLOAD SWAP1 PUSH2 0x100 EXP SWAP1 DIV PUSH20 0xFFFFFFFFFFFFFFFFFFFFFFFFFFFFFFFFFFFFFFFF AND PUSH20 0xFFFFFFFFFFFFFFFFFFFFFFFFFFFFFFFFFFFFFFFF AND CALLER PUSH20 0xFFFFFFFFFFFFFFFFFFFFFFFFFFFFFFFFFFFFFFFF AND EQ PUSH2 0x59E JUMPI PUSH1 0x40 MLOAD PUSH32 0x82B4290000000000000000000000000000000000000000000000000000000000 DUP2 MSTORE PUSH1 0x4 ADD PUSH1 0x40 MLOAD DUP1 SWAP2 SUB SWAP1 REVERT JUMPDEST JUMP JUMPDEST PUSH0 DUP1 SLOAD SWAP1 PUSH2 0x100 EXP SWAP1 DIV PUSH20 0xFFFFFFFFFFFFFFFFFFFFFFFFFFFFFFFFFFFFFFFF AND DUP2 JUMP JUMPDEST PUSH0 DUP2 DUP4 PUSH2 0x5D0 SWAP2 SWAP1 PUSH2 0xCBC JUMP JUMPDEST SWAP1 POP SWAP3 SWAP2 POP POP JUMP JUMPDEST PUSH1 0x4 DUP2 DUP2 SLOAD DUP2 LT PUSH2 0x5E7 JUMPI PUSH0 DUP1 REVERT JUMPDEST SWAP1 PUSH0 MSTORE PUSH1 0x20 PUSH0 KECCAK256 SWAP1 PUSH1 0x2 MUL ADD PUSH0 SWAP2 POP SWAP1 POP DUP1 PUSH0 ADD SLOAD SWAP1 DUP1 PUSH1 0x1 ADD PUSH0 SWAP1 SLOAD SWAP1 PUSH2 0x100 EXP SWAP1 DIV PUSH20 0xFFFFFFFFFFFFFFFFFFFFFFFFFFFFFFFFFFFFFFFF AND SWAP1 DUP1 PUSH1 0x1 ADD PUSH1 0x14 SWAP1 SLOAD SWAP1 PUSH2 0x100 EXP SWAP1 DIV PUSH1 0xFF AND SWAP1 POP DUP4 JUMP JUMPDEST PUSH1 0x60 PUSH1 0x40 MLOAD DUP1 PUSH1 0x40 ADD PUSH1 0x40 MSTORE DUP1 PUSH1 0x1D DUP2 MSTORE PUSH1 0x20 ADD PUSH32 0x41627374726163742066756E6374696F6E20696D706C656D656E746564000000 DUP2 MSTORE POP SWAP1 POP SWAP1 JUMP JUMPDEST PUSH0 DUP1 SLOAD SWAP1 PUSH2 0x100 EXP SWAP1 DIV PUSH20 0xFFFFFFFFFFFFFFFFFFFFFFFFFFFFFFFFFFFFFFFF AND PUSH20 0xFFFFFFFFFFFFFFFFFFFFFFFFFFFFFFFFFFFFFFFF AND CALLER PUSH20 0xFFFFFFFFFFFFFFFFFFFFFFFFFFFFFFFFFFFFFFFF AND EQ PUSH2 0x703 JUMPI PUSH1 0x40 MLOAD PUSH32 0x8C379A000000000000000000000000000000000000000000000000000000000 DUP2 MSTORE PUSH1 0x4 ADD PUSH2 0x6FA SWAP1 PUSH2 0xC71 JUMP JUMPDEST PUSH1 0x40 MLOAD DUP1 SWAP2 SUB SWAP1 REVERT JUMPDEST DUP1 SELFBALANCE LT ISZERO PUSH2 0x746 JUMPI PUSH1 0x40 MLOAD PUSH32 0x8C379A000000000000000000000000000000000000000000000000000000000 DUP2 MSTORE PUSH1 0x4 ADD PUSH2 0x73D SWAP1 PUSH2 0xD39 JUMP JUMPDEST PUSH1 0x40 MLOAD DUP1 SWAP2 SUB SWAP1 REVERT JUMPDEST DUP2 PUSH20 0xFFFFFFFFFFFFFFFFFFFFFFFFFFFFFFFFFFFFFFFF AND PUSH2 0x8FC DUP3 SWAP1 DUP2 ISZERO MUL SWAP1 PUSH1 0x40 MLOAD PUSH0 PUSH1 0x40 MLOAD DUP1 DUP4 SUB DUP2 DUP6 DUP9 DUP9 CALL SWAP4 POP POP POP POP ISZERO DUP1 ISZERO PUSH2 0x789 JUMPI RETURNDATASIZE PUSH0 DUP1 RETURNDATACOPY RETURNDATASIZE PUSH0 REVERT JUMPDEST POP DUP2 PUSH20 0xFFFFFFFFFFFFFFFFFFFFFFFFFFFFFFFFFFFFFFFF AND CALLER PUSH20 0xFFFFFFFFFFFFFFFFFFFFFFFFFFFFFFFFFFFFFFFF AND PUSH32 0x3990DB2D31862302A685E8086B5755072A6E2B5B780AF1EE81ECE35EE3CD3345 DUP4 PUSH1 0x40 MLOAD PUSH2 0x7E7 SWAP2 SWAP1 PUSH2 0x955 JUMP JUMPDEST PUSH1 0x40 MLOAD DUP1 SWAP2 SUB SWAP1 LOG3 POP POP JUMP JUMPDEST PUSH0 DUP2 SWAP1 POP DUP1 PUSH20 0xFFFFFFFFFFFFFFFFFFFFFFFFFFFFFFFFFFFFFFFF AND PUSH4 0x5EB45731 PUSH1 0x40 MLOAD DUP2 PUSH4 0xFFFFFFFF AND PUSH1 0xE0 SHL DUP2 MSTORE PUSH1 0x4 ADD PUSH1 0x20 PUSH1 0x40 MLOAD DUP1 DUP4 SUB DUP2 PUSH0 DUP8 GAS CALL SWAP3 POP POP POP DUP1 ISZERO PUSH2 0x860 JUMPI POP PUSH1 0x40 MLOAD RETURNDATASIZE PUSH1 0x1F NOT PUSH1 0x1F DUP3 ADD AND DUP3 ADD DUP1 PUSH1 0x40 MSTORE POP DUP2 ADD SWAP1 PUSH2 0x85D SWAP2 SWAP1 PUSH2 0xD81 JUMP JUMPDEST PUSH1 0x1 JUMPDEST PUSH2 0x882 JUMPI PUSH0 PUSH1 0x2 PUSH0 PUSH2 0x100 EXP DUP2 SLOAD DUP2 PUSH1 0xFF MUL NOT AND SWAP1 DUP4 ISZERO ISZERO MUL OR SWAP1 SSTORE POP PUSH2 0x89E JUMP JUMPDEST POP PUSH1 0x1 PUSH1 0x2 PUSH0 PUSH2 0x100 EXP DUP2 SLOAD DUP2 PUSH1 0xFF MUL NOT AND SWAP1 DUP4 ISZERO ISZERO MUL OR SWAP1 SSTORE POP JUMPDEST POP POP JUMP JUMPDEST PUSH1 0x2 PUSH0 SWAP1 SLOAD SWAP1 PUSH2 0x100 EXP SWAP1 DIV PUSH1 0xFF AND DUP2 JUMP JUMPDEST PUSH0 DUP1 REVERT JUMPDEST PUSH0 PUSH20 0xFFFFFFFFFFFFFFFFFFFFFFFFFFFFFFFFFFFFFFFF DUP3 AND SWAP1 POP SWAP2 SWAP1 POP JUMP JUMPDEST PUSH0 PUSH2 0x8E1 DUP3 PUSH2 0x8B8 JUMP JUMPDEST SWAP1 POP SWAP2 SWAP1 POP JUMP JUMPDEST PUSH2 0x8F1 DUP2 PUSH2 0x8D7 JUMP JUMPDEST DUP2 EQ PUSH2 0x8FB JUMPI PUSH0 DUP1 REVERT JUMPDEST POP JUMP JUMPDEST PUSH0 DUP2 CALLDATALOAD SWAP1 POP PUSH2 0x90C DUP2 PUSH2 0x8E8 JUMP JUMPDEST SWAP3 SWAP2 POP POP JUMP JUMPDEST PUSH0 PUSH1 0x20 DUP3 DUP5 SUB SLT ISZERO PUSH2 0x927 JUMPI PUSH2 0x926 PUSH2 0x8B4 JUMP JUMPDEST JUMPDEST PUSH0 PUSH2 0x934 DUP5 DUP3 DUP6 ADD PUSH2 0x8FE JUMP JUMPDEST SWAP2 POP POP SWAP3 SWAP2 POP POP JUMP JUMPDEST PUSH0 DUP2 SWAP1 POP SWAP2 SWAP1 POP JUMP JUMPDEST PUSH2 0x94F DUP2 PUSH2 0x93D JUMP JUMPDEST DUP3 MSTORE POP POP JUMP JUMPDEST PUSH0 PUSH1 0x20 DUP3 ADD SWAP1 POP PUSH2 0x968 PUSH0 DUP4 ADD DUP5 PUSH2 0x946 JUMP JUMPDEST SWAP3 SWAP2 POP POP JUMP JUMPDEST PUSH2 0x977 DUP2 PUSH2 0x93D JUMP JUMPDEST DUP2 EQ PUSH2 0x981 JUMPI PUSH0 DUP1 REVERT JUMPDEST POP JUMP JUMPDEST PUSH0 DUP2 CALLDATALOAD SWAP1 POP PUSH2 0x992 DUP2 PUSH2 0x96E JUMP JUMPDEST SWAP3 SWAP2 POP POP JUMP JUMPDEST PUSH0 PUSH1 0x20 DUP3 DUP5 SUB SLT ISZERO PUSH2 0x9AD JUMPI PUSH2 0x9AC PUSH2 0x8B4 JUMP JUMPDEST JUMPDEST PUSH0 PUSH2 0x9BA DUP5 DUP3 DUP6 ADD PUSH2 0x984 JUMP JUMPDEST SWAP2 POP POP SWAP3 SWAP2 POP POP JUMP JUMPDEST PUSH0 DUP2 ISZERO ISZERO SWAP1 POP SWAP2 SWAP1 POP JUMP JUMPDEST PUSH2 0x9D7 DUP2 PUSH2 0x9C3 JUMP JUMPDEST DUP3 MSTORE POP POP JUMP JUMPDEST PUSH0 PUSH1 0x20 DUP3 ADD SWAP1 POP PUSH2 0x9F0 PUSH0 DUP4 ADD DUP5 PUSH2 0x9CE JUMP JUMPDEST SWAP3 SWAP2 POP POP JUMP JUMPDEST PUSH2 0x9FF DUP2 PUSH2 0x8D7 JUMP JUMPDEST DUP3 MSTORE POP POP JUMP JUMPDEST PUSH0 PUSH1 0x20 DUP3 ADD SWAP1 POP PUSH2 0xA18 PUSH0 DUP4 ADD DUP5 PUSH2 0x9F6 JUMP JUMPDEST SWAP3 SWAP2 POP POP JUMP JUMPDEST PUSH0 DUP1 PUSH1 0x40 DUP4 DUP6 SUB SLT ISZERO PUSH2 0xA34 JUMPI PUSH2 0xA33 PUSH2 0x8B4 JUMP JUMPDEST JUMPDEST PUSH0 PUSH2 0xA41 DUP6 DUP3 DUP7 ADD PUSH2 0x984 JUMP JUMPDEST SWAP3 POP POP PUSH1 0x20 PUSH2 0xA52 DUP6 DUP3 DUP7 ADD PUSH2 0x984 JUMP JUMPDEST SWAP2 POP POP SWAP3 POP SWAP3 SWAP1 POP JUMP JUMPDEST PUSH32 0x4E487B7100000000000000000000000000000000000000000000000000000000 PUSH0 MSTORE PUSH1 0x21 PUSH1 0x4 MSTORE PUSH1 0x24 PUSH0 REVERT JUMPDEST PUSH1 0x3 DUP2 LT PUSH2 0xA9A JUMPI PUSH2 0xA99 PUSH2 0xA5C JUMP JUMPDEST JUMPDEST POP JUMP JUMPDEST PUSH0 DUP2 SWAP1 POP PUSH2 0xAAA DUP3 PUSH2 0xA89 JUMP JUMPDEST SWAP2 SWAP1 POP JUMP JUMPDEST PUSH0 PUSH2 0xAB9 DUP3 PUSH2 0xA9D JUMP JUMPDEST SWAP1 POP SWAP2 SWAP1 POP JUMP JUMPDEST PUSH2 0xAC9 DUP2 PUSH2 0xAAF JUMP JUMPDEST DUP3 MSTORE POP POP JUMP JUMPDEST PUSH0 PUSH1 0x60 DUP3 ADD SWAP1 POP PUSH2 0xAE2 PUSH0 DUP4 ADD DUP7 PUSH2 0x946 JUMP JUMPDEST PUSH2 0xAEF PUSH1 0x20 DUP4 ADD DUP6 PUSH2 0x9F6 JUMP JUMPDEST PUSH2 0xAFC PUSH1 0x40 DUP4 ADD DUP5 PUSH2 0xAC0 JUMP JUMPDEST SWAP5 SWAP4 POP POP POP POP JUMP JUMPDEST PUSH0 DUP2 MLOAD SWAP1 POP SWAP2 SWAP1 POP JUMP JUMPDEST PUSH0 DUP3 DUP3 MSTORE PUSH1 0x20 DUP3 ADD SWAP1 POP SWAP3 SWAP2 POP POP JUMP JUMPDEST PUSH0 JUMPDEST DUP4 DUP2 LT ISZERO PUSH2 0xB3B JUMPI DUP1 DUP3 ADD MLOAD DUP2 DUP5 ADD MSTORE PUSH1 0x20 DUP2 ADD SWAP1 POP PUSH2 0xB20 JUMP JUMPDEST PUSH0 DUP5 DUP5 ADD MSTORE POP POP POP POP JUMP JUMPDEST PUSH0 PUSH1 0x1F NOT PUSH1 0x1F DUP4 ADD AND SWAP1 POP SWAP2 SWAP1 POP JUMP JUMPDEST PUSH0 PUSH2 0xB60 DUP3 PUSH2 0xB04 JUMP JUMPDEST PUSH2 0xB6A DUP2 DUP6 PUSH2 0xB0E JUMP JUMPDEST SWAP4 POP PUSH2 0xB7A DUP2 DUP6 PUSH1 0x20 DUP7 ADD PUSH2 0xB1E JUMP JUMPDEST PUSH2 0xB83 DUP2 PUSH2 0xB46 JUMP JUMPDEST DUP5 ADD SWAP2 POP POP SWAP3 SWAP2 POP POP JUMP JUMPDEST PUSH0 PUSH1 0x20 DUP3 ADD SWAP1 POP DUP2 DUP2 SUB PUSH0 DUP4 ADD MSTORE PUSH2 0xBA6 DUP2 DUP5 PUSH2 0xB56 JUMP JUMPDEST SWAP1 POP SWAP3 SWAP2 POP POP JUMP JUMPDEST PUSH0 PUSH2 0xBB8 DUP3 PUSH2 0x8B8 JUMP JUMPDEST SWAP1 POP SWAP2 SWAP1 POP JUMP JUMPDEST PUSH2 0xBC8 DUP2 PUSH2 0xBAE JUMP JUMPDEST DUP2 EQ PUSH2 0xBD2 JUMPI PUSH0 DUP1 REVERT JUMPDEST POP JUMP JUMPDEST PUSH0 DUP2 CALLDATALOAD SWAP1 POP PUSH2 0xBE3 DUP2 PUSH2 0xBBF JUMP JUMPDEST SWAP3 SWAP2 POP POP JUMP JUMPDEST PUSH0 DUP1 PUSH1 0x40 DUP4 DUP6 SUB SLT ISZERO PUSH2 0xBFF JUMPI PUSH2 0xBFE PUSH2 0x8B4 JUMP JUMPDEST JUMPDEST PUSH0 PUSH2 0xC0C DUP6 DUP3 DUP7 ADD PUSH2 0xBD5 JUMP JUMPDEST SWAP3 POP POP PUSH1 0x20 PUSH2 0xC1D DUP6 DUP3 DUP7 ADD PUSH2 0x984 JUMP JUMPDEST SWAP2 POP POP SWAP3 POP SWAP3 SWAP1 POP JUMP JUMPDEST PUSH32 0x4E6F7420746865206F776E657200000000000000000000000000000000000000 PUSH0 DUP3 ADD MSTORE POP JUMP JUMPDEST PUSH0 PUSH2 0xC5B PUSH1 0xD DUP4 PUSH2 0xB0E JUMP JUMPDEST SWAP2 POP PUSH2 0xC66 DUP3 PUSH2 0xC27 JUMP JUMPDEST PUSH1 0x20 DUP3 ADD SWAP1 POP SWAP2 SWAP1 POP JUMP JUMPDEST PUSH0 PUSH1 0x20 DUP3 ADD SWAP1 POP DUP2 DUP2 SUB PUSH0 DUP4 ADD MSTORE PUSH2 0xC88 DUP2 PUSH2 0xC4F JUMP JUMPDEST SWAP1 POP SWAP2 SWAP1 POP JUMP JUMPDEST PUSH32 0x4E487B7100000000000000000000000000000000000000000000000000000000 PUSH0 MSTORE PUSH1 0x11 PUSH1 0x4 MSTORE PUSH1 0x24 PUSH0 REVERT JUMPDEST PUSH0 PUSH2 0xCC6 DUP3 PUSH2 0x93D JUMP JUMPDEST SWAP2 POP PUSH2 0xCD1 DUP4 PUSH2 0x93D JUMP JUMPDEST SWAP3 POP DUP3 DUP3 ADD SWAP1 POP DUP1 DUP3 GT ISZERO PUSH2 0xCE9 JUMPI PUSH2 0xCE8 PUSH2 0xC8F JUMP JUMPDEST JUMPDEST SWAP3 SWAP2 POP POP JUMP JUMPDEST PUSH32 0x496E73756666696369656E742062616C616E6365000000000000000000000000 PUSH0 DUP3 ADD MSTORE POP JUMP JUMPDEST PUSH0 PUSH2 0xD23 PUSH1 0x14 DUP4 PUSH2 0xB0E JUMP JUMPDEST SWAP2 POP PUSH2 0xD2E DUP3 PUSH2 0xCEF JUMP JUMPDEST PUSH1 0x20 DUP3 ADD SWAP1 POP SWAP2 SWAP1 POP JUMP JUMPDEST PUSH0 PUSH1 0x20 DUP3 ADD SWAP1 POP DUP2 DUP2 SUB PUSH0 DUP4 ADD MSTORE PUSH2 0xD50 DUP2 PUSH2 0xD17 JUMP JUMPDEST SWAP1 POP SWAP2 SWAP1 POP JUMP JUMPDEST PUSH2 0xD60 DUP2 PUSH2 0x9C3 JUMP JUMPDEST DUP2 EQ PUSH2 0xD6A JUMPI PUSH0 DUP1 REVERT JUMPDEST POP JUMP JUMPDEST PUSH0 DUP2 MLOAD SWAP1 POP PUSH2 0xD7B DUP2 PUSH2 0xD57 JUMP JUMPDEST SWAP3 SWAP2 POP POP JUMP JUMPDEST PUSH0 PUSH1 0x20 DUP3 DUP5 SUB SLT ISZERO PUSH2 0xD96 JUMPI PUSH2 0xD95 PUSH2 0x8B4 JUMP JUMPDEST JUMPDEST PUSH0 PUSH2 0xDA3 DUP5 DUP3 DUP6 ADD PUSH2 0xD6D JUMP JUMPDEST SWAP2 POP POP SWAP3 SWAP2 POP POP JUMP INVALID LOG2 PUSH5 0x6970667358 0x22 SLT KECCAK256 0xD3 PUSH0 DUP5 CALLER 0xB3 0xA9 0xA6 0xC0 0xBA PUSH2 0x853 0xE3 0xD8 SMOD ADDRESS 0xDF CALLVALUE 0xEB 0xC0 0x2B PUSH28 0xCFABD293B7135E1469CD64736F6C6343000816003300000000000000 "
				},
				"gasEstimates": {
					"creation": {
						"codeDepositCost": "710800",
						"executionCost": "25010",
						"totalCost": "735810"
					},
					"external": {
						"": "174",
						"abstractFunction()": "infinite",
						"assemblyExample(uint256)": "infinite",
						"balances(address)": "2848",
						"calculate(uint256,uint256)": "infinite",
						"destroyContract()": "32065",
						"getStoreData()": "2455",
						"interfaceFunction()": "405",
						"isCompleted()": "2554",
						"orders(uint256)": "infinite",
						"owner()": "2550",
						"restrictedFunction()": "2367",
						"sendEther(address,uint256)": "infinite",
						"set(uint256)": "24770",
						"storeData()": "2470",
						"tryCatchExample(address)": "infinite"
					},
					"internal": {
						"internalFunction()": "infinite"
					}
				},
				"methodIdentifiers": {
					"abstractFunction()": "bfe9ef4f",
					"assemblyExample(uint256)": "2c964371",
					"balances(address)": "27e235e3",
					"calculate(uint256,uint256)": "8dfa4363",
					"destroyContract()": "092a5cce",
					"getStoreData()": "3de0ec4e",
					"interfaceFunction()": "5eb45731",
					"isCompleted()": "fa391c64",
					"orders(uint256)": "a85c38ef",
					"owner()": "8da5cb5b",
					"restrictedFunction()": "777acf37",
					"sendEther(address,uint256)": "c1756a2c",
					"set(uint256)": "60fe47b1",
					"storeData()": "4abe3052",
					"tryCatchExample(address)": "c816f038"
				}
			},
			"storageLayout": {
				"storage": [
					{
						"astId": 19,
						"contract": "contracts/AllKeywords.sol:SimpleContract",
						"label": "owner",
						"offset": 0,
						"slot": "0",
						"type": "t_address"
					},
					{
						"astId": 21,
						"contract": "contracts/AllKeywords.sol:SimpleContract",
						"label": "storeData",
						"offset": 0,
						"slot": "1",
						"type": "t_uint256"
					},
					{
						"astId": 23,
						"contract": "contracts/AllKeywords.sol:SimpleContract",
						"label": "isCompleted",
						"offset": 0,
						"slot": "2",
						"type": "t_bool"
					},
					{
						"astId": 27,
						"contract": "contracts/AllKeywords.sol:SimpleContract",
						"label": "balances",
						"offset": 0,
						"slot": "3",
						"type": "t_mapping(t_address,t_uint256)"
					},
					{
						"astId": 43,
						"contract": "contracts/AllKeywords.sol:SimpleContract",
						"label": "orders",
						"offset": 0,
						"slot": "4",
						"type": "t_array(t_struct(Order)39_storage)dyn_storage"
					}
				],
				"types": {
					"t_address": {
						"encoding": "inplace",
						"label": "address",
						"numberOfBytes": "20"
					},
					"t_array(t_struct(Order)39_storage)dyn_storage": {
						"base": "t_struct(Order)39_storage",
						"encoding": "dynamic_array",
						"label": "struct SimpleContract.Order[]",
						"numberOfBytes": "32"
					},
					"t_bool": {
						"encoding": "inplace",
						"label": "bool",
						"numberOfBytes": "1"
					},
					"t_enum(Status)31": {
						"encoding": "inplace",
						"label": "enum SimpleContract.Status",
						"numberOfBytes": "1"
					},
					"t_mapping(t_address,t_uint256)": {
						"encoding": "mapping",
						"key": "t_address",
						"label": "mapping(address => uint256)",
						"numberOfBytes": "32",
						"value": "t_uint256"
					},
					"t_struct(Order)39_storage": {
						"encoding": "inplace",
						"label": "struct SimpleContract.Order",
						"members": [
							{
								"astId": 33,
								"contract": "contracts/AllKeywords.sol:SimpleContract",
								"label": "id",
								"offset": 0,
								"slot": "0",
								"type": "t_uint256"
							},
							{
								"astId": 35,
								"contract": "contracts/AllKeywords.sol:SimpleContract",
								"label": "buyer",
								"offset": 0,
								"slot": "1",
								"type": "t_address"
							},
							{
								"astId": 38,
								"contract": "contracts/AllKeywords.sol:SimpleContract",
								"label": "status",
								"offset": 20,
								"slot": "1",
								"type": "t_enum(Status)31"
							}
						],
						"numberOfBytes": "64"
					},
					"t_uint256": {
						"encoding": "inplace",
						"label": "uint256",
						"numberOfBytes": "32"
					}
				}
			},
			"userdoc": {
				"kind": "user",
				"methods": {},
				"version": 1
			}
		}
	}
}