{
	"contracts/Level1_V2.sol": {
		"Level1Template": {
			"abi": [
				{
					"inputs": [
						{
							"internalType": "uint256[2][3]",
							"name": "x",
							"type": "uint256[2][3]"
						},
						{
							"internalType": "uint256[2][3]",
							"name": "y",
							"type": "uint256[2][3]"
						}
					],
					"name": "solution",
					"outputs": [
						{
							"internalType": "uint256[2][3]",
							"name": "finalArray",
							"type": "uint256[2][3]"
						}
					],
					"stateMutability": "pure",
					"type": "function"
				}
			],
			"devdoc": {
				"kind": "dev",
				"methods": {},
				"version": 1
			},
			"evm": {
				"assembly": "    /* \"contracts/Level1_V2.sol\":59:1592  contract Level1Template  {... */\n  mstore(0x40, 0x80)\n  callvalue\n  dup1\n  iszero\n  tag_1\n  jumpi\n  0x00\n  dup1\n  revert\ntag_1:\n  pop\n  dataSize(sub_0)\n  dup1\n  dataOffset(sub_0)\n  0x00\n  codecopy\n  0x00\n  return\nstop\n\nsub_0: assembly {\n        /* \"contracts/Level1_V2.sol\":59:1592  contract Level1Template  {... */\n      mstore(0x40, 0x80)\n      callvalue\n      dup1\n      iszero\n      tag_1\n      jumpi\n      0x00\n      dup1\n      revert\n    tag_1:\n      pop\n      jumpi(tag_2, lt(calldatasize, 0x04))\n      shr(0xe0, calldataload(0x00))\n      dup1\n      0x342a2d9a\n      eq\n      tag_3\n      jumpi\n    tag_2:\n      0x00\n      dup1\n      revert\n        /* \"contracts/Level1_V2.sol\":91:1590  function solution(uint256[2][3] calldata x, uint256[2][3] calldata y) external pure returns (uint256[2][3] memory finalArray) {... */\n    tag_3:\n      tag_4\n      tag_5\n      calldatasize\n      0x04\n      tag_6\n      jump\t// in\n    tag_5:\n      tag_7\n      jump\t// in\n    tag_4:\n      mload(0x40)\n      tag_8\n      swap2\n      swap1\n      tag_9\n      jump\t// in\n    tag_8:\n      mload(0x40)\n      dup1\n      swap2\n      sub\n      swap1\n      return\n    tag_7:\n        /* \"contracts/Level1_V2.sol\":184:215  uint256[2][3] memory finalArray */\n      tag_10\n      tag_11\n      jump\t// in\n    tag_10:\n      pop\n        /* \"contracts/Level1_V2.sol\":413:417  0x40 */\n      0x40\n        /* \"contracts/Level1_V2.sol\":407:418  mload(0x40) */\n      mload\n        /* \"contracts/Level1_V2.sol\":553:554  2 */\n      0x02\n        /* \"contracts/Level1_V2.sol\":534:555  mstore(finalArray, 2) */\n      dup2\n      mstore\n        /* \"contracts/Level1_V2.sol\":682:686  0x20 */\n      0x20\n        /* \"contracts/Level1_V2.sol\":666:687  add(finalArray, 0x20) */\n      dup2\n      add\n        /* \"contracts/Level1_V2.sol\":716:731  calldataload(x) */\n      dup4\n      calldataload\n        /* \"contracts/Level1_V2.sol\":759:774  calldataload(y) */\n      dup4\n      calldataload\n        /* \"contracts/Level1_V2.sol\":803:804  0 */\n      0x00\n        /* \"contracts/Level1_V2.sol\":788:1221  for { let i := 0 } lt(i, 6) { i := add(i, 1) } {... */\n    tag_13:\n        /* \"contracts/Level1_V2.sol\":813:814  6 */\n      0x06\n        /* \"contracts/Level1_V2.sol\":810:811  i */\n      dup2\n        /* \"contracts/Level1_V2.sol\":807:815  lt(i, 6) */\n      lt\n        /* \"contracts/Level1_V2.sol\":788:1221  for { let i := 0 } lt(i, 6) { i := add(i, 1) } {... */\n      iszero\n      tag_15\n      jumpi\n        /* \"contracts/Level1_V2.sol\":870:871  3 */\n      0x03\n        /* \"contracts/Level1_V2.sol\":867:868  i */\n      dup2\n        /* \"contracts/Level1_V2.sol\":863:872  mod(i, 3) */\n      mod\n        /* \"contracts/Level1_V2.sol\":853:985  if iszero(mod(i, 3)) {... */\n      tag_16\n      jumpi\n        /* \"contracts/Level1_V2.sol\":912:913  3 */\n      0x03\n        /* \"contracts/Level1_V2.sol\":903:910  dataPtr */\n      dup5\n        /* \"contracts/Level1_V2.sol\":896:914  mstore(dataPtr, 3) */\n      mstore\n        /* \"contracts/Level1_V2.sol\":962:966  0x20 */\n      0x20\n        /* \"contracts/Level1_V2.sol\":950:960  finalArray */\n      dup6\n        /* \"contracts/Level1_V2.sol\":946:967  add(finalArray, 0x20) */\n      add\n        /* \"contracts/Level1_V2.sol\":935:967  dataPtr := add(finalArray, 0x20) */\n      swap4\n      pop\n        /* \"contracts/Level1_V2.sol\":853:985  if iszero(mod(i, 3)) {... */\n    tag_16:\n        /* \"contracts/Level1_V2.sol\":1023:1044  calldataload(xRowPtr) */\n      dup3\n      calldataload\n        /* \"contracts/Level1_V2.sol\":1046:1067  calldataload(yRowPtr) */\n      dup3\n      calldataload\n        /* \"contracts/Level1_V2.sol\":1019:1068  add(calldataload(xRowPtr), calldataload(yRowPtr)) */\n      add\n        /* \"contracts/Level1_V2.sol\":1003:1069  mstore(dataPtr, add(calldataload(xRowPtr), calldataload(yRowPtr))) */\n      dup5\n      mstore\n        /* \"contracts/Level1_V2.sol\":1110:1114  0x20 */\n      0x20\n        /* \"contracts/Level1_V2.sol\":1097:1115  add(dataPtr, 0x20) */\n      swap4\n      dup5\n      add\n      swap4\n        /* \"contracts/Level1_V2.sol\":1143:1161  add(xRowPtr, 0x20) */\n      swap3\n      dup4\n      add\n      swap3\n        /* \"contracts/Level1_V2.sol\":1189:1207  add(yRowPtr, 0x20) */\n      swap1\n      swap2\n      add\n      swap1\n        /* \"contracts/Level1_V2.sol\":830:831  1 */\n      0x01\n        /* \"contracts/Level1_V2.sol\":823:832  add(i, 1) */\n      add\n        /* \"contracts/Level1_V2.sol\":788:1221  for { let i := 0 } lt(i, 6) { i := add(i, 1) } {... */\n      jump(tag_13)\n    tag_15:\n      pop\n      pop\n      pop\n      pop\n        /* \"contracts/Level1_V2.sol\":1331:1343  mul(9, 0x20) */\n      0x0120\n        /* \"contracts/Level1_V2.sol\":1419:1445  add(finalArray, totalSize) */\n      dup2\n      add\n        /* \"contracts/Level1_V2.sol\":1413:1417  0x40 */\n      0x40\n        /* \"contracts/Level1_V2.sol\":1406:1446  mstore(0x40, add(finalArray, totalSize)) */\n      mstore\n        /* \"contracts/Level1_V2.sol\":91:1590  function solution(uint256[2][3] calldata x, uint256[2][3] calldata y) external pure returns (uint256[2][3] memory finalArray) {... */\n    tag_12:\n      swap3\n      swap2\n      pop\n      pop\n      jump\t// out\n    tag_11:\n      mload(0x40)\n      dup1\n      0x60\n      add\n      0x40\n      mstore\n      dup1\n      0x03\n      swap1\n    tag_17:\n      tag_18\n      tag_19\n      jump\t// in\n    tag_18:\n      dup2\n      mstore\n      0x20\n      add\n      swap1\n      0x01\n      swap1\n      sub\n      swap1\n      dup2\n      tag_17\n      jumpi\n      swap1\n      pop\n      pop\n      swap1\n      jump\t// out\n    tag_19:\n      mload(0x40)\n      dup1\n      0x40\n      add\n      0x40\n      mstore\n      dup1\n      0x02\n      swap1\n      0x20\n      dup3\n      mul\n      dup1\n      calldatasize\n      dup4\n      calldatacopy\n      pop\n      swap2\n      swap3\n      swap2\n      pop\n      pop\n      jump\t// out\n        /* \"#utility.yul\":14:189   */\n    tag_20:\n        /* \"#utility.yul\":123:129   */\n      dup1\n        /* \"#utility.yul\":156:159   */\n      0xc0\n        /* \"#utility.yul\":144:160   */\n      dup2\n      add\n        /* \"#utility.yul\":141:166   */\n      dup4\n      lt\n        /* \"#utility.yul\":138:183   */\n      iszero\n      tag_12\n      jumpi\n        /* \"#utility.yul\":179:180   */\n      0x00\n        /* \"#utility.yul\":176:177   */\n      dup1\n        /* \"#utility.yul\":169:181   */\n      revert\n        /* \"#utility.yul\":194:634   */\n    tag_6:\n        /* \"#utility.yul\":362:368   */\n      0x00\n        /* \"#utility.yul\":370:376   */\n      dup1\n        /* \"#utility.yul\":423:426   */\n      0x0180\n        /* \"#utility.yul\":411:420   */\n      dup4\n        /* \"#utility.yul\":402:409   */\n      dup6\n        /* \"#utility.yul\":398:421   */\n      sub\n        /* \"#utility.yul\":394:427   */\n      slt\n        /* \"#utility.yul\":391:444   */\n      iszero\n      tag_25\n      jumpi\n        /* \"#utility.yul\":440:441   */\n      0x00\n        /* \"#utility.yul\":437:438   */\n      dup1\n        /* \"#utility.yul\":430:442   */\n      revert\n        /* \"#utility.yul\":391:444   */\n    tag_25:\n        /* \"#utility.yul\":463:531   */\n      tag_26\n        /* \"#utility.yul\":523:530   */\n      dup5\n        /* \"#utility.yul\":512:521   */\n      dup5\n        /* \"#utility.yul\":463:531   */\n      tag_20\n      jump\t// in\n    tag_26:\n        /* \"#utility.yul\":453:531   */\n      swap2\n      pop\n        /* \"#utility.yul\":550:628   */\n      tag_27\n        /* \"#utility.yul\":620:627   */\n      dup5\n        /* \"#utility.yul\":614:617   */\n      0xc0\n        /* \"#utility.yul\":603:612   */\n      dup6\n        /* \"#utility.yul\":599:618   */\n      add\n        /* \"#utility.yul\":550:628   */\n      tag_20\n      jump\t// in\n    tag_27:\n        /* \"#utility.yul\":540:628   */\n      swap1\n      pop\n        /* \"#utility.yul\":194:634   */\n      swap3\n      pop\n      swap3\n      swap1\n      pop\n      jump\t// out\n        /* \"#utility.yul\":639:1513   */\n    tag_9:\n        /* \"#utility.yul\":865:868   */\n      0xc0\n        /* \"#utility.yul\":850:869   */\n      dup2\n      add\n        /* \"#utility.yul\":854:863   */\n      dup2\n        /* \"#utility.yul\":946:952   */\n      dup4\n        /* \"#utility.yul\":823:827   */\n      0x00\n        /* \"#utility.yul\":980:1507   */\n    tag_29:\n        /* \"#utility.yul\":994:998   */\n      0x03\n        /* \"#utility.yul\":991:992   */\n      dup2\n        /* \"#utility.yul\":988:999   */\n      lt\n        /* \"#utility.yul\":980:1507   */\n      iszero\n      tag_31\n      jumpi\n        /* \"#utility.yul\":1051:1064   */\n      dup2\n      mload\n        /* \"#utility.yul\":1090:1093   */\n      dup4\n        /* \"#utility.yul\":1173:1174   */\n      0x00\n        /* \"#utility.yul\":1187:1423   */\n    tag_32:\n        /* \"#utility.yul\":1203:1207   */\n      0x02\n        /* \"#utility.yul\":1198:1201   */\n      dup2\n        /* \"#utility.yul\":1195:1208   */\n      lt\n        /* \"#utility.yul\":1187:1423   */\n      iszero\n      tag_34\n      jumpi\n        /* \"#utility.yul\":1276:1291   */\n      dup3\n      mload\n        /* \"#utility.yul\":1262:1292   */\n      dup3\n      mstore\n        /* \"#utility.yul\":1319:1323   */\n      0x20\n        /* \"#utility.yul\":1392:1409   */\n      swap3\n      dup4\n      add\n      swap3\n        /* \"#utility.yul\":1349:1363   */\n      swap1\n      swap2\n      add\n      swap1\n        /* \"#utility.yul\":1227:1228   */\n      0x01\n        /* \"#utility.yul\":1218:1229   */\n      add\n        /* \"#utility.yul\":1187:1423   */\n      jump(tag_32)\n    tag_34:\n      pop\n      pop\n      pop\n        /* \"#utility.yul\":1452:1456   */\n      0x40\n        /* \"#utility.yul\":1443:1457   */\n      swap3\n      swap1\n      swap3\n      add\n      swap2\n        /* \"#utility.yul\":1492:1496   */\n      0x20\n        /* \"#utility.yul\":1480:1497   */\n      swap2\n      swap1\n      swap2\n      add\n      swap1\n        /* \"#utility.yul\":1014:1015   */\n      0x01\n        /* \"#utility.yul\":1007:1016   */\n      add\n        /* \"#utility.yul\":980:1507   */\n      jump(tag_29)\n    tag_31:\n        /* \"#utility.yul\":984:987   */\n      pop\n      pop\n      pop\n        /* \"#utility.yul\":639:1513   */\n      swap3\n      swap2\n      pop\n      pop\n      jump\t// out\n\n    auxdata: 0xa26469706673582212207f8cde1b507f2380c6c5921904147afc906fbc138ef7ed6d3a1b5d245a7db53464736f6c63430008160033\n}\n",
				"bytecode": {
					"linkReferences": {},
					"object": "608060405234801561000f575f80fd5b506101d88061001d5f395ff3fe608060405234801561000f575f80fd5b5060043610610029575f3560e01c8063342a2d9a1461002d575b5f80fd5b61004061003b366004610117565b610056565b60405161004d919061014b565b60405180910390f35b61005e6100bc565b506040516002815260208101833583355f5b60068110156100a9576003810661008c57600384526020850193505b823582350184526020938401939283019290910190600101610070565b5050505061012081016040525b92915050565b60405180606001604052806003905b6100d36100e9565b8152602001906001900390816100cb5790505090565b60405180604001604052806002906020820280368337509192915050565b8060c081018310156100b6575f80fd5b5f806101808385031215610129575f80fd5b6101338484610107565b91506101428460c08501610107565b90509250929050565b60c0810181835f5b6003811015610199578151835f5b6002811015610180578251825260209283019290910190600101610161565b5050506040929092019160209190910190600101610153565b5050509291505056fea26469706673582212207f8cde1b507f2380c6c5921904147afc906fbc138ef7ed6d3a1b5d245a7db53464736f6c63430008160033",
					"opcodes": "PUSH1 0x80 PUSH1 0x40 MSTORE CALLVALUE DUP1 ISZERO PUSH2 0xF JUMPI PUSH0 DUP1 REVERT JUMPDEST POP PUSH2 0x1D8 DUP1 PUSH2 0x1D PUSH0 CODECOPY PUSH0 RETURN INVALID PUSH1 0x80 PUSH1 0x40 MSTORE CALLVALUE DUP1 ISZERO PUSH2 0xF JUMPI PUSH0 DUP1 REVERT JUMPDEST POP PUSH1 0x4 CALLDATASIZE LT PUSH2 0x29 JUMPI PUSH0 CALLDATALOAD PUSH1 0xE0 SHR DUP1 PUSH4 0x342A2D9A EQ PUSH2 0x2D JUMPI JUMPDEST PUSH0 DUP1 REVERT JUMPDEST PUSH2 0x40 PUSH2 0x3B CALLDATASIZE PUSH1 0x4 PUSH2 0x117 JUMP JUMPDEST PUSH2 0x56 JUMP JUMPDEST PUSH1 0x40 MLOAD PUSH2 0x4D SWAP2 SWAP1 PUSH2 0x14B JUMP JUMPDEST PUSH1 0x40 MLOAD DUP1 SWAP2 SUB SWAP1 RETURN JUMPDEST PUSH2 0x5E PUSH2 0xBC JUMP JUMPDEST POP PUSH1 0x40 MLOAD PUSH1 0x2 DUP2 MSTORE PUSH1 0x20 DUP2 ADD DUP4 CALLDATALOAD DUP4 CALLDATALOAD PUSH0 JUMPDEST PUSH1 0x6 DUP2 LT ISZERO PUSH2 0xA9 JUMPI PUSH1 0x3 DUP2 MOD PUSH2 0x8C JUMPI PUSH1 0x3 DUP5 MSTORE PUSH1 0x20 DUP6 ADD SWAP4 POP JUMPDEST DUP3 CALLDATALOAD DUP3 CALLDATALOAD ADD DUP5 MSTORE PUSH1 0x20 SWAP4 DUP5 ADD SWAP4 SWAP3 DUP4 ADD SWAP3 SWAP1 SWAP2 ADD SWAP1 PUSH1 0x1 ADD PUSH2 0x70 JUMP JUMPDEST POP POP POP POP PUSH2 0x120 DUP2 ADD PUSH1 0x40 MSTORE JUMPDEST SWAP3 SWAP2 POP POP JUMP JUMPDEST PUSH1 0x40 MLOAD DUP1 PUSH1 0x60 ADD PUSH1 0x40 MSTORE DUP1 PUSH1 0x3 SWAP1 JUMPDEST PUSH2 0xD3 PUSH2 0xE9 JUMP JUMPDEST DUP2 MSTORE PUSH1 0x20 ADD SWAP1 PUSH1 0x1 SWAP1 SUB SWAP1 DUP2 PUSH2 0xCB JUMPI SWAP1 POP POP SWAP1 JUMP JUMPDEST PUSH1 0x40 MLOAD DUP1 PUSH1 0x40 ADD PUSH1 0x40 MSTORE DUP1 PUSH1 0x2 SWAP1 PUSH1 0x20 DUP3 MUL DUP1 CALLDATASIZE DUP4 CALLDATACOPY POP SWAP2 SWAP3 SWAP2 POP POP JUMP JUMPDEST DUP1 PUSH1 0xC0 DUP2 ADD DUP4 LT ISZERO PUSH2 0xB6 JUMPI PUSH0 DUP1 REVERT JUMPDEST PUSH0 DUP1 PUSH2 0x180 DUP4 DUP6 SUB SLT ISZERO PUSH2 0x129 JUMPI PUSH0 DUP1 REVERT JUMPDEST PUSH2 0x133 DUP5 DUP5 PUSH2 0x107 JUMP JUMPDEST SWAP2 POP PUSH2 0x142 DUP5 PUSH1 0xC0 DUP6 ADD PUSH2 0x107 JUMP JUMPDEST SWAP1 POP SWAP3 POP SWAP3 SWAP1 POP JUMP JUMPDEST PUSH1 0xC0 DUP2 ADD DUP2 DUP4 PUSH0 JUMPDEST PUSH1 0x3 DUP2 LT ISZERO PUSH2 0x199 JUMPI DUP2 MLOAD DUP4 PUSH0 JUMPDEST PUSH1 0x2 DUP2 LT ISZERO PUSH2 0x180 JUMPI DUP3 MLOAD DUP3 MSTORE PUSH1 0x20 SWAP3 DUP4 ADD SWAP3 SWAP1 SWAP2 ADD SWAP1 PUSH1 0x1 ADD PUSH2 0x161 JUMP JUMPDEST POP POP POP PUSH1 0x40 SWAP3 SWAP1 SWAP3 ADD SWAP2 PUSH1 0x20 SWAP2 SWAP1 SWAP2 ADD SWAP1 PUSH1 0x1 ADD PUSH2 0x153 JUMP JUMPDEST POP POP POP SWAP3 SWAP2 POP POP JUMP INVALID LOG2 PUSH5 0x6970667358 0x22 SLT KECCAK256 PUSH32 0x8CDE1B507F2380C6C5921904147AFC906FBC138EF7ED6D3A1B5D245A7DB53464 PUSH20 0x6F6C634300081600330000000000000000000000 "
				},
				"gasEstimates": {
					"creation": {
						"codeDepositCost": "94400",
						"executionCost": "139",
						"totalCost": "94539"
					},
					"external": {
						"solution(uint256[2][3],uint256[2][3])": "infinite"
					}
				},
				"methodIdentifiers": {
					"solution(uint256[2][3],uint256[2][3])": "342a2d9a"
				}
			},
			"storageLayout": {
				"storage": [],
				"types": null
			},
			"userdoc": {
				"kind": "user",
				"methods": {},
				"version": 1
			}
		}
	}
}