{
	"contracts/Level2_2.sol": {
		"Level2Template": {
			"abi": [
				{
					"inputs": [
						{
							"internalType": "uint256[10]",
							"name": "unsortedArray",
							"type": "uint256[10]"
						}
					],
					"name": "solution",
					"outputs": [
						{
							"internalType": "uint256[10]",
							"name": "sortedArray",
							"type": "uint256[10]"
						}
					],
					"stateMutability": "pure",
					"type": "function"
				}
			],
			"devdoc": {
				"kind": "dev",
				"methods": {},
				"version": 1
			},
			"evm": {
				"assembly": "    /* \"contracts/Level2_2.sol\":58:1346  contract Level2Template {... */\n  mstore(0x40, 0x80)\n  callvalue\n  dup1\n  iszero\n  tag_1\n  jumpi\n  0x00\n  dup1\n  revert\ntag_1:\n  pop\n  dataSize(sub_0)\n  dup1\n  dataOffset(sub_0)\n  0x00\n  codecopy\n  0x00\n  return\nstop\n\nsub_0: assembly {\n        /* \"contracts/Level2_2.sol\":58:1346  contract Level2Template {... */\n      mstore(0x40, 0x80)\n      callvalue\n      dup1\n      iszero\n      tag_1\n      jumpi\n      0x00\n      dup1\n      revert\n    tag_1:\n      pop\n      jumpi(tag_2, lt(calldatasize, 0x04))\n      shr(0xe0, calldataload(0x00))\n      dup1\n      0x209b472e\n      eq\n      tag_3\n      jumpi\n    tag_2:\n      0x00\n      dup1\n      revert\n        /* \"contracts/Level2_2.sol\":88:1344  function solution(uint256[10] calldata unsortedArray) external pure returns (uint256[10] memory sortedArray) {... */\n    tag_3:\n      tag_4\n      tag_5\n      calldatasize\n      0x04\n      tag_6\n      jump\t// in\n    tag_5:\n      tag_7\n      jump\t// in\n    tag_4:\n      mload(0x40)\n      tag_8\n      swap2\n      swap1\n      tag_9\n      jump\t// in\n    tag_8:\n      mload(0x40)\n      dup1\n      swap2\n      sub\n      swap1\n      return\n    tag_7:\n        /* \"contracts/Level2_2.sol\":165:195  uint256[10] memory sortedArray */\n      tag_10\n      tag_11\n      jump\t// in\n    tag_10:\n        /* \"contracts/Level2_2.sol\":304:305  0 */\n      0x00\n        /* \"contracts/Level2_2.sol\":289:455  for { let i := 0 } lt(i, 10) { i := add(i, 1) } {... */\n    tag_13:\n        /* \"contracts/Level2_2.sol\":314:316  10 */\n      0x0a\n        /* \"contracts/Level2_2.sol\":311:312  i */\n      dup2\n        /* \"contracts/Level2_2.sol\":308:317  lt(i, 10) */\n      lt\n        /* \"contracts/Level2_2.sol\":289:455  for { let i := 0 } lt(i, 10) { i := add(i, 1) } {... */\n      iszero\n      tag_15\n      jumpi\n        /* \"contracts/Level2_2.sol\":433:437  0x20 */\n      0x20\n        /* \"contracts/Level2_2.sol\":426:438  mul(i, 0x20) */\n      dup2\n      mul\n        /* \"contracts/Level2_2.sol\":407:439  add(unsortedArray, mul(i, 0x20)) */\n      dup4\n      dup2\n      add\n        /* \"contracts/Level2_2.sol\":394:440  calldataload(add(unsortedArray, mul(i, 0x20))) */\n      calldataload\n        /* \"contracts/Level2_2.sol\":362:392  add(sortedArray, mul(i, 0x20)) */\n      swap1\n      dup4\n      add\n        /* \"contracts/Level2_2.sol\":355:441  mstore(add(sortedArray, mul(i, 0x20)), calldataload(add(unsortedArray, mul(i, 0x20)))) */\n      mstore\n        /* \"contracts/Level2_2.sol\":332:333  1 */\n      0x01\n        /* \"contracts/Level2_2.sol\":325:334  add(i, 1) */\n      add\n        /* \"contracts/Level2_2.sol\":289:455  for { let i := 0 } lt(i, 10) { i := add(i, 1) } {... */\n      jump(tag_13)\n    tag_15:\n        /* \"contracts/Level2_2.sol\":293:307  { let i := 0 } */\n      pop\n        /* \"contracts/Level2_2.sol\":511:513  10 */\n      0x0a\n        /* \"contracts/Level2_2.sol\":540:541  0 */\n      0x00\n        /* \"contracts/Level2_2.sol\":555:1299  for { } eq(sorted, 0) { } {... */\n    tag_16:\n        /* \"contracts/Level2_2.sol\":566:572  sorted */\n      dup1\n        /* \"contracts/Level2_2.sol\":555:1299  for { } eq(sorted, 0) { } {... */\n      tag_18\n      jumpi\n      pop\n        /* \"contracts/Level2_2.sol\":609:610  1 */\n      0x01\n        /* \"contracts/Level2_2.sol\":636:637  0 */\n      0x00\n        /* \"contracts/Level2_2.sol\":654:1205  for { } lt(j, sub(n, 1)) { j := add(j, 1) } {... */\n    tag_19:\n        /* \"contracts/Level2_2.sol\":675:676  1 */\n      0x01\n        /* \"contracts/Level2_2.sol\":672:673  n */\n      dup4\n        /* \"contracts/Level2_2.sol\":668:677  sub(n, 1) */\n      sub\n        /* \"contracts/Level2_2.sol\":665:666  j */\n      dup2\n        /* \"contracts/Level2_2.sol\":662:678  lt(j, sub(n, 1)) */\n      lt\n        /* \"contracts/Level2_2.sol\":654:1205  for { } lt(j, sub(n, 1)) { j := add(j, 1) } {... */\n      iszero\n      tag_21\n      jumpi\n        /* \"contracts/Level2_2.sol\":759:763  0x20 */\n      0x20\n        /* \"contracts/Level2_2.sol\":756:757  j */\n      dup2\n        /* \"contracts/Level2_2.sol\":752:764  mul(j, 0x20) */\n      mul\n        /* \"contracts/Level2_2.sol\":739:750  sortedArray */\n      dup5\n        /* \"contracts/Level2_2.sol\":735:765  add(sortedArray, mul(j, 0x20)) */\n      add\n        /* \"contracts/Level2_2.sol\":729:766  mload(add(sortedArray, mul(j, 0x20))) */\n      mload\n        /* \"contracts/Level2_2.sol\":834:838  0x20 */\n      0x20\n        /* \"contracts/Level2_2.sol\":830:831  1 */\n      0x01\n        /* \"contracts/Level2_2.sol\":827:828  j */\n      dup4\n        /* \"contracts/Level2_2.sol\":823:832  add(j, 1) */\n      add\n        /* \"contracts/Level2_2.sol\":819:839  mul(add(j, 1), 0x20) */\n      mul\n        /* \"contracts/Level2_2.sol\":806:817  sortedArray */\n      dup6\n        /* \"contracts/Level2_2.sol\":802:840  add(sortedArray, mul(add(j, 1), 0x20)) */\n      add\n        /* \"contracts/Level2_2.sol\":796:841  mload(add(sortedArray, mul(add(j, 1), 0x20))) */\n      mload\n        /* \"contracts/Level2_2.sol\":872:873  b */\n      dup1\n        /* \"contracts/Level2_2.sol\":869:870  a */\n      dup3\n        /* \"contracts/Level2_2.sol\":866:874  gt(a, b) */\n      gt\n        /* \"contracts/Level2_2.sol\":863:1187  if gt(a, b) {... */\n      iszero\n      tag_22\n      jumpi\n        /* \"contracts/Level2_2.sol\":990:991  b */\n      dup1\n        /* \"contracts/Level2_2.sol\":982:986  0x20 */\n      0x20\n        /* \"contracts/Level2_2.sol\":979:980  j */\n      dup5\n        /* \"contracts/Level2_2.sol\":975:987  mul(j, 0x20) */\n      mul\n        /* \"contracts/Level2_2.sol\":962:973  sortedArray */\n      dup8\n        /* \"contracts/Level2_2.sol\":958:988  add(sortedArray, mul(j, 0x20)) */\n      add\n        /* \"contracts/Level2_2.sol\":951:992  mstore(add(sortedArray, mul(j, 0x20)), b) */\n      mstore\n        /* \"contracts/Level2_2.sol\":1064:1065  a */\n      dup2\n        /* \"contracts/Level2_2.sol\":1056:1060  0x20 */\n      0x20\n        /* \"contracts/Level2_2.sol\":1052:1053  1 */\n      0x01\n        /* \"contracts/Level2_2.sol\":1049:1050  j */\n      dup6\n        /* \"contracts/Level2_2.sol\":1045:1054  add(j, 1) */\n      add\n        /* \"contracts/Level2_2.sol\":1041:1061  mul(add(j, 1), 0x20) */\n      mul\n        /* \"contracts/Level2_2.sol\":1028:1039  sortedArray */\n      dup8\n        /* \"contracts/Level2_2.sol\":1024:1062  add(sortedArray, mul(add(j, 1), 0x20)) */\n      add\n        /* \"contracts/Level2_2.sol\":1017:1066  mstore(add(sortedArray, mul(add(j, 1), 0x20)), a) */\n      mstore\n        /* \"contracts/Level2_2.sol\":1101:1102  0 */\n      0x00\n        /* \"contracts/Level2_2.sol\":1091:1102  sorted := 0 */\n      swap4\n      pop\n        /* \"contracts/Level2_2.sol\":863:1187  if gt(a, b) {... */\n    tag_22:\n      pop\n      pop\n        /* \"contracts/Level2_2.sol\":693:694  1 */\n      0x01\n        /* \"contracts/Level2_2.sol\":686:695  add(j, 1) */\n      add\n        /* \"contracts/Level2_2.sol\":654:1205  for { } lt(j, sub(n, 1)) { j := add(j, 1) } {... */\n      jump(tag_19)\n    tag_21:\n        /* \"contracts/Level2_2.sol\":658:661  { } */\n      pop\n        /* \"contracts/Level2_2.sol\":1234:1235  1 */\n      0x01\n        /* \"contracts/Level2_2.sol\":1231:1232  n */\n      dup3\n        /* \"contracts/Level2_2.sol\":1227:1236  sub(n, 1) */\n      sub\n        /* \"contracts/Level2_2.sol\":1222:1236  n := sub(n, 1) */\n      swap2\n      pop\n        /* \"contracts/Level2_2.sol\":555:1299  for { } eq(sorted, 0) { } {... */\n      jump(tag_16)\n    tag_18:\n        /* \"contracts/Level2_2.sol\":559:562  { } */\n      pop\n      pop\n        /* \"contracts/Level2_2.sol\":88:1344  function solution(uint256[10] calldata unsortedArray) external pure returns (uint256[10] memory sortedArray) {... */\n      swap2\n      swap1\n      pop\n      jump\t// out\n    tag_11:\n      mload(0x40)\n      dup1\n      0x0140\n      add\n      0x40\n      mstore\n      dup1\n      0x0a\n      swap1\n      0x20\n      dup3\n      mul\n      dup1\n      calldatasize\n      dup4\n      calldatacopy\n      pop\n      swap2\n      swap3\n      swap2\n      pop\n      pop\n      jump\t// out\n        /* \"#utility.yul\":14:288   */\n    tag_6:\n        /* \"#utility.yul\":99:105   */\n      0x00\n        /* \"#utility.yul\":130:133   */\n      0x0140\n        /* \"#utility.yul\":174:176   */\n      dup1\n        /* \"#utility.yul\":162:171   */\n      dup4\n        /* \"#utility.yul\":153:160   */\n      dup6\n        /* \"#utility.yul\":149:172   */\n      sub\n        /* \"#utility.yul\":145:177   */\n      slt\n        /* \"#utility.yul\":142:194   */\n      iszero\n      tag_25\n      jumpi\n        /* \"#utility.yul\":190:191   */\n      0x00\n        /* \"#utility.yul\":187:188   */\n      dup1\n        /* \"#utility.yul\":180:192   */\n      revert\n        /* \"#utility.yul\":142:194   */\n    tag_25:\n        /* \"#utility.yul\":229:236   */\n      dup4\n        /* \"#utility.yul\":224:226   */\n      dup2\n        /* \"#utility.yul\":213:222   */\n      dup5\n        /* \"#utility.yul\":209:227   */\n      add\n        /* \"#utility.yul\":206:237   */\n      gt\n        /* \"#utility.yul\":203:254   */\n      iszero\n      tag_26\n      jumpi\n        /* \"#utility.yul\":250:251   */\n      0x00\n        /* \"#utility.yul\":247:248   */\n      dup1\n        /* \"#utility.yul\":240:252   */\n      revert\n        /* \"#utility.yul\":203:254   */\n    tag_26:\n      pop\n        /* \"#utility.yul\":273:282   */\n      swap1\n      swap3\n        /* \"#utility.yul\":14:288   */\n      swap2\n      pop\n      pop\n      jump\t// out\n        /* \"#utility.yul\":293:790   */\n    tag_9:\n        /* \"#utility.yul\":475:478   */\n      0x0140\n        /* \"#utility.yul\":460:479   */\n      dup2\n      add\n        /* \"#utility.yul\":464:473   */\n      dup2\n        /* \"#utility.yul\":556:562   */\n      dup4\n        /* \"#utility.yul\":433:437   */\n      0x00\n        /* \"#utility.yul\":590:784   */\n    tag_28:\n        /* \"#utility.yul\":604:608   */\n      0x0a\n        /* \"#utility.yul\":601:602   */\n      dup2\n        /* \"#utility.yul\":598:609   */\n      lt\n        /* \"#utility.yul\":590:784   */\n      iszero\n      tag_30\n      jumpi\n        /* \"#utility.yul\":663:676   */\n      dup2\n      mload\n        /* \"#utility.yul\":651:677   */\n      dup4\n      mstore\n        /* \"#utility.yul\":700:704   */\n      0x20\n        /* \"#utility.yul\":724:736   */\n      swap3\n      dup4\n      add\n      swap3\n        /* \"#utility.yul\":759:774   */\n      swap1\n      swap2\n      add\n      swap1\n        /* \"#utility.yul\":624:625   */\n      0x01\n        /* \"#utility.yul\":617:626   */\n      add\n        /* \"#utility.yul\":590:784   */\n      jump(tag_28)\n    tag_30:\n        /* \"#utility.yul\":594:597   */\n      pop\n      pop\n      pop\n        /* \"#utility.yul\":293:790   */\n      swap3\n      swap2\n      pop\n      pop\n      jump\t// out\n\n    auxdata: 0xa26469706673582212207e8cdd016f9912eb1814ea64b7757c3b41e9fe98ecc4543ead91b484407b89c064736f6c63430008160033\n}\n",
				"bytecode": {
					"linkReferences": {},
					"object": "608060405234801561000f575f80fd5b506101928061001d5f395ff3fe608060405234801561000f575f80fd5b5060043610610029575f3560e01c8063209b472e1461002d575b5f80fd5b61004061003b366004610103565b610056565b60405161004d919061012b565b60405180910390f35b61005e6100e4565b5f5b600a81101561007d57602081028381013590830152600101610060565b50600a5f5b806100dd575060015f5b600183038110156100d1576020810284015160206001830102850151808211156100c757806020840287015281602060018501028701525f93505b505060010161008c565b50600182039150610082565b5050919050565b604051806101400160405280600a906020820280368337509192915050565b5f610140808385031215610115575f80fd5b838184011115610123575f80fd5b509092915050565b610140810181835f5b600a811015610153578151835260209283019290910190600101610134565b5050509291505056fea26469706673582212207e8cdd016f9912eb1814ea64b7757c3b41e9fe98ecc4543ead91b484407b89c064736f6c63430008160033",
					"opcodes": "PUSH1 0x80 PUSH1 0x40 MSTORE CALLVALUE DUP1 ISZERO PUSH2 0xF JUMPI PUSH0 DUP1 REVERT JUMPDEST POP PUSH2 0x192 DUP1 PUSH2 0x1D PUSH0 CODECOPY PUSH0 RETURN INVALID PUSH1 0x80 PUSH1 0x40 MSTORE CALLVALUE DUP1 ISZERO PUSH2 0xF JUMPI PUSH0 DUP1 REVERT JUMPDEST POP PUSH1 0x4 CALLDATASIZE LT PUSH2 0x29 JUMPI PUSH0 CALLDATALOAD PUSH1 0xE0 SHR DUP1 PUSH4 0x209B472E EQ PUSH2 0x2D JUMPI JUMPDEST PUSH0 DUP1 REVERT JUMPDEST PUSH2 0x40 PUSH2 0x3B CALLDATASIZE PUSH1 0x4 PUSH2 0x103 JUMP JUMPDEST PUSH2 0x56 JUMP JUMPDEST PUSH1 0x40 MLOAD PUSH2 0x4D SWAP2 SWAP1 PUSH2 0x12B JUMP JUMPDEST PUSH1 0x40 MLOAD DUP1 SWAP2 SUB SWAP1 RETURN JUMPDEST PUSH2 0x5E PUSH2 0xE4 JUMP JUMPDEST PUSH0 JUMPDEST PUSH1 0xA DUP2 LT ISZERO PUSH2 0x7D JUMPI PUSH1 0x20 DUP2 MUL DUP4 DUP2 ADD CALLDATALOAD SWAP1 DUP4 ADD MSTORE PUSH1 0x1 ADD PUSH2 0x60 JUMP JUMPDEST POP PUSH1 0xA PUSH0 JUMPDEST DUP1 PUSH2 0xDD JUMPI POP PUSH1 0x1 PUSH0 JUMPDEST PUSH1 0x1 DUP4 SUB DUP2 LT ISZERO PUSH2 0xD1 JUMPI PUSH1 0x20 DUP2 MUL DUP5 ADD MLOAD PUSH1 0x20 PUSH1 0x1 DUP4 ADD MUL DUP6 ADD MLOAD DUP1 DUP3 GT ISZERO PUSH2 0xC7 JUMPI DUP1 PUSH1 0x20 DUP5 MUL DUP8 ADD MSTORE DUP2 PUSH1 0x20 PUSH1 0x1 DUP6 ADD MUL DUP8 ADD MSTORE PUSH0 SWAP4 POP JUMPDEST POP POP PUSH1 0x1 ADD PUSH2 0x8C JUMP JUMPDEST POP PUSH1 0x1 DUP3 SUB SWAP2 POP PUSH2 0x82 JUMP JUMPDEST POP POP SWAP2 SWAP1 POP JUMP JUMPDEST PUSH1 0x40 MLOAD DUP1 PUSH2 0x140 ADD PUSH1 0x40 MSTORE DUP1 PUSH1 0xA SWAP1 PUSH1 0x20 DUP3 MUL DUP1 CALLDATASIZE DUP4 CALLDATACOPY POP SWAP2 SWAP3 SWAP2 POP POP JUMP JUMPDEST PUSH0 PUSH2 0x140 DUP1 DUP4 DUP6 SUB SLT ISZERO PUSH2 0x115 JUMPI PUSH0 DUP1 REVERT JUMPDEST DUP4 DUP2 DUP5 ADD GT ISZERO PUSH2 0x123 JUMPI PUSH0 DUP1 REVERT JUMPDEST POP SWAP1 SWAP3 SWAP2 POP POP JUMP JUMPDEST PUSH2 0x140 DUP2 ADD DUP2 DUP4 PUSH0 JUMPDEST PUSH1 0xA DUP2 LT ISZERO PUSH2 0x153 JUMPI DUP2 MLOAD DUP4 MSTORE PUSH1 0x20 SWAP3 DUP4 ADD SWAP3 SWAP1 SWAP2 ADD SWAP1 PUSH1 0x1 ADD PUSH2 0x134 JUMP JUMPDEST POP POP POP SWAP3 SWAP2 POP POP JUMP INVALID LOG2 PUSH5 0x6970667358 0x22 SLT KECCAK256 PUSH31 0x8CDD016F9912EB1814EA64B7757C3B41E9FE98ECC4543EAD91B484407B89C0 PUSH5 0x736F6C6343 STOP ADDMOD AND STOP CALLER "
				},
				"gasEstimates": {
					"creation": {
						"codeDepositCost": "80400",
						"executionCost": "127",
						"totalCost": "80527"
					},
					"external": {
						"solution(uint256[10])": "infinite"
					}
				},
				"methodIdentifiers": {
					"solution(uint256[10])": "209b472e"
				}
			},
			"storageLayout": {
				"storage": [],
				"types": null
			},
			"userdoc": {
				"kind": "user",
				"methods": {},
				"version": 1
			}
		}
	}
}