{
	"contracts/Level3.sol": {
		"Level2Template": {
			"abi": [
				{
					"inputs": [
						{
							"internalType": "uint256[10]",
							"name": "unsortedArray",
							"type": "uint256[10]"
						}
					],
					"name": "solution",
					"outputs": [
						{
							"internalType": "uint256[10]",
							"name": "sortedArray",
							"type": "uint256[10]"
						}
					],
					"stateMutability": "nonpayable",
					"type": "function"
				}
			],
			"devdoc": {
				"kind": "dev",
				"methods": {},
				"version": 1
			},
			"evm": {
				"assembly": "    /* \"contracts/Level3.sol\":59:1183  contract Level2Template  {... */\n  mstore(0x40, 0x80)\n  callvalue\n  dup1\n  iszero\n  tag_1\n  jumpi\n  0x00\n  dup1\n  revert\ntag_1:\n  pop\n  dataSize(sub_0)\n  dup1\n  dataOffset(sub_0)\n  0x00\n  codecopy\n  0x00\n  return\nstop\n\nsub_0: assembly {\n        /* \"contracts/Level3.sol\":59:1183  contract Level2Template  {... */\n      mstore(0x40, 0x80)\n      callvalue\n      dup1\n      iszero\n      tag_1\n      jumpi\n      0x00\n      dup1\n      revert\n    tag_1:\n      pop\n      jumpi(tag_2, lt(calldatasize, 0x04))\n      shr(0xe0, calldataload(0x00))\n      dup1\n      0x209b472e\n      eq\n      tag_3\n      jumpi\n    tag_2:\n      0x00\n      dup1\n      revert\n        /* \"contracts/Level3.sol\":99:1181  function solution(uint256[10] calldata unsortedArray) external returns (uint256[10] memory sortedArray){... */\n    tag_3:\n      tag_4\n      tag_5\n      calldatasize\n      0x04\n      tag_6\n      jump\t// in\n    tag_5:\n      tag_7\n      jump\t// in\n    tag_4:\n      mload(0x40)\n      tag_8\n      swap2\n      swap1\n      tag_9\n      jump\t// in\n    tag_8:\n      mload(0x40)\n      dup1\n      swap2\n      sub\n      swap1\n      return\n    tag_7:\n        /* \"contracts/Level3.sol\":171:201  uint256[10] memory sortedArray */\n      tag_10\n      tag_11\n      jump\t// in\n    tag_10:\n        /* \"contracts/Level3.sol\":218:227  uint256 i */\n      0x00\n        /* \"contracts/Level3.sol\":213:304  for (uint256 i = 0; i < 10; i++) {... */\n    tag_13:\n        /* \"contracts/Level3.sol\":237:239  10 */\n      0x0a\n        /* \"contracts/Level3.sol\":233:234  i */\n      dup2\n        /* \"contracts/Level3.sol\":233:239  i < 10 */\n      lt\n        /* \"contracts/Level3.sol\":213:304  for (uint256 i = 0; i < 10; i++) {... */\n      iszero\n      tag_14\n      jumpi\n        /* \"contracts/Level3.sol\":277:290  unsortedArray */\n      dup3\n        /* \"contracts/Level3.sol\":291:292  i */\n      dup2\n        /* \"contracts/Level3.sol\":277:293  unsortedArray[i] */\n      0x0a\n      dup2\n      lt\n      tag_17\n      jumpi\n      tag_17\n      tag_18\n      jump\t// in\n    tag_17:\n      0x20\n      mul\n      add\n      calldataload\n        /* \"contracts/Level3.sol\":260:271  sortedArray */\n      dup3\n        /* \"contracts/Level3.sol\":272:273  i */\n      dup3\n        /* \"contracts/Level3.sol\":260:274  sortedArray[i] */\n      0x0a\n      dup2\n      lt\n      tag_20\n      jumpi\n      tag_20\n      tag_18\n      jump\t// in\n    tag_20:\n      0x20\n      mul\n      add\n        /* \"contracts/Level3.sol\":260:293  sortedArray[i] = unsortedArray[i] */\n      mstore\n        /* \"contracts/Level3.sol\":241:244  i++ */\n      0x01\n      add\n        /* \"contracts/Level3.sol\":213:304  for (uint256 i = 0; i < 10; i++) {... */\n      jump(tag_13)\n    tag_14:\n      pop\n        /* \"contracts/Level3.sol\":378:387  uint256 i */\n      0x00\n        /* \"contracts/Level3.sol\":373:1146  for (uint256 i = 0; i < 10; i++) {... */\n    tag_21:\n        /* \"contracts/Level3.sol\":397:399  10 */\n      0x0a\n        /* \"contracts/Level3.sol\":393:394  i */\n      dup2\n        /* \"contracts/Level3.sol\":393:399  i < 10 */\n      lt\n        /* \"contracts/Level3.sol\":373:1146  for (uint256 i = 0; i < 10; i++) {... */\n      iszero\n      tag_22\n      jumpi\n        /* \"contracts/Level3.sol\":425:434  uint256 j */\n      0x00\n        /* \"contracts/Level3.sol\":420:1136  for (uint256 j = 0; j < 9 - i; j++) {... */\n    tag_24:\n        /* \"contracts/Level3.sol\":444:449  9 - i */\n      tag_27\n        /* \"contracts/Level3.sol\":448:449  i */\n      dup3\n        /* \"contracts/Level3.sol\":444:445  9 */\n      0x09\n        /* \"contracts/Level3.sol\":444:449  9 - i */\n      tag_28\n      jump\t// in\n    tag_27:\n        /* \"contracts/Level3.sol\":440:441  j */\n      dup2\n        /* \"contracts/Level3.sol\":440:449  j < 9 - i */\n      lt\n        /* \"contracts/Level3.sol\":420:1136  for (uint256 j = 0; j < 9 - i; j++) {... */\n      iszero\n      tag_25\n      jumpi\n        /* \"contracts/Level3.sol\":699:703  0x20 */\n      0x20\n        /* \"contracts/Level3.sol\":696:697  j */\n      dup2\n        /* \"contracts/Level3.sol\":692:704  mul(j, 0x20) */\n      mul\n        /* \"contracts/Level3.sol\":685:689  0x20 */\n      0x20\n        /* \"contracts/Level3.sol\":672:683  sortedArray */\n      dup5\n        /* \"contracts/Level3.sol\":668:690  add(sortedArray, 0x20) */\n      add\n        /* \"contracts/Level3.sol\":664:705  add(add(sortedArray, 0x20), mul(j, 0x20)) */\n      add\n        /* \"contracts/Level3.sol\":658:706  mload(add(add(sortedArray, 0x20), mul(j, 0x20))) */\n      mload\n        /* \"contracts/Level3.sol\":785:789  0x20 */\n      0x20\n        /* \"contracts/Level3.sol\":781:782  1 */\n      0x01\n        /* \"contracts/Level3.sol\":778:779  j */\n      dup4\n        /* \"contracts/Level3.sol\":774:783  add(j, 1) */\n      add\n        /* \"contracts/Level3.sol\":770:790  mul(add(j, 1), 0x20) */\n      mul\n        /* \"contracts/Level3.sol\":763:767  0x20 */\n      0x20\n        /* \"contracts/Level3.sol\":750:761  sortedArray */\n      dup6\n        /* \"contracts/Level3.sol\":746:768  add(sortedArray, 0x20) */\n      add\n        /* \"contracts/Level3.sol\":742:791  add(add(sortedArray, 0x20), mul(add(j, 1), 0x20)) */\n      add\n        /* \"contracts/Level3.sol\":736:792  mload(add(add(sortedArray, 0x20), mul(add(j, 1), 0x20))) */\n      mload\n        /* \"contracts/Level3.sol\":866:867  b */\n      dup1\n        /* \"contracts/Level3.sol\":863:864  a */\n      dup3\n        /* \"contracts/Level3.sol\":860:868  gt(a, b) */\n      gt\n        /* \"contracts/Level3.sol\":857:1104  if gt(a, b) {... */\n      iszero\n      tag_29\n      jumpi\n        /* \"contracts/Level3.sol\":995:996  b */\n      dup1\n        /* \"contracts/Level3.sol\":987:991  0x20 */\n      0x20\n        /* \"contracts/Level3.sol\":984:985  j */\n      dup5\n        /* \"contracts/Level3.sol\":980:992  mul(j, 0x20) */\n      mul\n        /* \"contracts/Level3.sol\":973:977  0x20 */\n      0x20\n        /* \"contracts/Level3.sol\":960:971  sortedArray */\n      dup8\n        /* \"contracts/Level3.sol\":956:978  add(sortedArray, 0x20) */\n      add\n        /* \"contracts/Level3.sol\":952:993  add(add(sortedArray, 0x20), mul(j, 0x20)) */\n      add\n        /* \"contracts/Level3.sol\":945:997  mstore(add(add(sortedArray, 0x20), mul(j, 0x20)), b) */\n      mstore\n        /* \"contracts/Level3.sol\":1080:1081  a */\n      dup2\n        /* \"contracts/Level3.sol\":1072:1076  0x20 */\n      0x20\n        /* \"contracts/Level3.sol\":1068:1069  1 */\n      0x01\n        /* \"contracts/Level3.sol\":1065:1066  j */\n      dup6\n        /* \"contracts/Level3.sol\":1061:1070  add(j, 1) */\n      add\n        /* \"contracts/Level3.sol\":1057:1077  mul(add(j, 1), 0x20) */\n      mul\n        /* \"contracts/Level3.sol\":1050:1054  0x20 */\n      0x20\n        /* \"contracts/Level3.sol\":1037:1048  sortedArray */\n      dup8\n        /* \"contracts/Level3.sol\":1033:1055  add(sortedArray, 0x20) */\n      add\n        /* \"contracts/Level3.sol\":1029:1078  add(add(sortedArray, 0x20), mul(add(j, 1), 0x20)) */\n      add\n        /* \"contracts/Level3.sol\":1022:1082  mstore(add(add(sortedArray, 0x20), mul(add(j, 1), 0x20)), a) */\n      mstore\n        /* \"contracts/Level3.sol\":857:1104  if gt(a, b) {... */\n    tag_29:\n      pop\n      pop\n        /* \"contracts/Level3.sol\":451:454  j++ */\n      0x01\n      add\n        /* \"contracts/Level3.sol\":420:1136  for (uint256 j = 0; j < 9 - i; j++) {... */\n      jump(tag_24)\n    tag_25:\n      pop\n        /* \"contracts/Level3.sol\":401:404  i++ */\n      0x01\n      add\n        /* \"contracts/Level3.sol\":373:1146  for (uint256 i = 0; i < 10; i++) {... */\n      jump(tag_21)\n    tag_22:\n      pop\n        /* \"contracts/Level3.sol\":99:1181  function solution(uint256[10] calldata unsortedArray) external returns (uint256[10] memory sortedArray){... */\n      swap2\n      swap1\n      pop\n      jump\t// out\n    tag_11:\n      mload(0x40)\n      dup1\n      0x0140\n      add\n      0x40\n      mstore\n      dup1\n      0x0a\n      swap1\n      0x20\n      dup3\n      mul\n      dup1\n      calldatasize\n      dup4\n      calldatacopy\n      pop\n      swap2\n      swap3\n      swap2\n      pop\n      pop\n      jump\t// out\n        /* \"#utility.yul\":14:288   */\n    tag_6:\n        /* \"#utility.yul\":99:105   */\n      0x00\n        /* \"#utility.yul\":130:133   */\n      0x0140\n        /* \"#utility.yul\":174:176   */\n      dup1\n        /* \"#utility.yul\":162:171   */\n      dup4\n        /* \"#utility.yul\":153:160   */\n      dup6\n        /* \"#utility.yul\":149:172   */\n      sub\n        /* \"#utility.yul\":145:177   */\n      slt\n        /* \"#utility.yul\":142:194   */\n      iszero\n      tag_32\n      jumpi\n        /* \"#utility.yul\":190:191   */\n      0x00\n        /* \"#utility.yul\":187:188   */\n      dup1\n        /* \"#utility.yul\":180:192   */\n      revert\n        /* \"#utility.yul\":142:194   */\n    tag_32:\n        /* \"#utility.yul\":229:236   */\n      dup4\n        /* \"#utility.yul\":224:226   */\n      dup2\n        /* \"#utility.yul\":213:222   */\n      dup5\n        /* \"#utility.yul\":209:227   */\n      add\n        /* \"#utility.yul\":206:237   */\n      gt\n        /* \"#utility.yul\":203:254   */\n      iszero\n      tag_33\n      jumpi\n        /* \"#utility.yul\":250:251   */\n      0x00\n        /* \"#utility.yul\":247:248   */\n      dup1\n        /* \"#utility.yul\":240:252   */\n      revert\n        /* \"#utility.yul\":203:254   */\n    tag_33:\n      pop\n        /* \"#utility.yul\":273:282   */\n      swap1\n      swap3\n        /* \"#utility.yul\":14:288   */\n      swap2\n      pop\n      pop\n      jump\t// out\n        /* \"#utility.yul\":293:790   */\n    tag_9:\n        /* \"#utility.yul\":475:478   */\n      0x0140\n        /* \"#utility.yul\":460:479   */\n      dup2\n      add\n        /* \"#utility.yul\":464:473   */\n      dup2\n        /* \"#utility.yul\":556:562   */\n      dup4\n        /* \"#utility.yul\":433:437   */\n      0x00\n        /* \"#utility.yul\":590:784   */\n    tag_35:\n        /* \"#utility.yul\":604:608   */\n      0x0a\n        /* \"#utility.yul\":601:602   */\n      dup2\n        /* \"#utility.yul\":598:609   */\n      lt\n        /* \"#utility.yul\":590:784   */\n      iszero\n      tag_37\n      jumpi\n        /* \"#utility.yul\":663:676   */\n      dup2\n      mload\n        /* \"#utility.yul\":651:677   */\n      dup4\n      mstore\n        /* \"#utility.yul\":700:704   */\n      0x20\n        /* \"#utility.yul\":724:736   */\n      swap3\n      dup4\n      add\n      swap3\n        /* \"#utility.yul\":759:774   */\n      swap1\n      swap2\n      add\n      swap1\n        /* \"#utility.yul\":624:625   */\n      0x01\n        /* \"#utility.yul\":617:626   */\n      add\n        /* \"#utility.yul\":590:784   */\n      jump(tag_35)\n    tag_37:\n        /* \"#utility.yul\":594:597   */\n      pop\n      pop\n      pop\n        /* \"#utility.yul\":293:790   */\n      swap3\n      swap2\n      pop\n      pop\n      jump\t// out\n        /* \"#utility.yul\":795:979   */\n    tag_18:\n        /* \"#utility.yul\":847:924   */\n      0x4e487b7100000000000000000000000000000000000000000000000000000000\n        /* \"#utility.yul\":844:845   */\n      0x00\n        /* \"#utility.yul\":837:925   */\n      mstore\n        /* \"#utility.yul\":944:948   */\n      0x32\n        /* \"#utility.yul\":941:942   */\n      0x04\n        /* \"#utility.yul\":934:949   */\n      mstore\n        /* \"#utility.yul\":968:972   */\n      0x24\n        /* \"#utility.yul\":965:966   */\n      0x00\n        /* \"#utility.yul\":958:973   */\n      revert\n        /* \"#utility.yul\":984:1266   */\n    tag_28:\n        /* \"#utility.yul\":1051:1060   */\n      dup2\n      dup2\n      sub\n        /* \"#utility.yul\":1072:1083   */\n      dup2\n      dup2\n      gt\n        /* \"#utility.yul\":1069:1260   */\n      iszero\n      tag_40\n      jumpi\n        /* \"#utility.yul\":1116:1193   */\n      0x4e487b7100000000000000000000000000000000000000000000000000000000\n        /* \"#utility.yul\":1113:1114   */\n      0x00\n        /* \"#utility.yul\":1106:1194   */\n      mstore\n        /* \"#utility.yul\":1217:1221   */\n      0x11\n        /* \"#utility.yul\":1214:1215   */\n      0x04\n        /* \"#utility.yul\":1207:1222   */\n      mstore\n        /* \"#utility.yul\":1245:1249   */\n      0x24\n        /* \"#utility.yul\":1242:1243   */\n      0x00\n        /* \"#utility.yul\":1235:1250   */\n      revert\n        /* \"#utility.yul\":1069:1260   */\n    tag_40:\n        /* \"#utility.yul\":984:1266   */\n      swap3\n      swap2\n      pop\n      pop\n      jump\t// out\n\n    auxdata: 0xa264697066735822122053e217b166c7fa4c7bd04f2efa809bb64a7a0bbc45019574c7d06b989c31c30f64736f6c63430008160033\n}\n",
				"bytecode": {
					"linkReferences": {},
					"object": "608060405234801561000f575f80fd5b5061022a8061001d5f395ff3fe608060405234801561000f575f80fd5b5060043610610029575f3560e01c8063209b472e1461002d575b5f80fd5b61004061003b366004610130565b610056565b60405161004d9190610158565b60405180910390f35b61005e610111565b5f5b600a81101561009f578281600a811061007b5761007b610189565b60200201358282600a811061009257610092610189565b6020020152600101610060565b505f5b600a81101561010b575f5b6100b88260096101b6565b811015610102576020810260208401015160206001830102602085010151808211156100f857806020840260208701015281602060018501026020870101525b50506001016100ad565b506001016100a2565b50919050565b604051806101400160405280600a906020820280368337509192915050565b5f610140808385031215610142575f80fd5b838184011115610150575f80fd5b509092915050565b610140810181835f5b600a811015610180578151835260209283019290910190600101610161565b50505092915050565b7f4e487b71000000000000000000000000000000000000000000000000000000005f52603260045260245ffd5b818103818111156101ee577f4e487b71000000000000000000000000000000000000000000000000000000005f52601160045260245ffd5b9291505056fea264697066735822122053e217b166c7fa4c7bd04f2efa809bb64a7a0bbc45019574c7d06b989c31c30f64736f6c63430008160033",
					"opcodes": "PUSH1 0x80 PUSH1 0x40 MSTORE CALLVALUE DUP1 ISZERO PUSH2 0xF JUMPI PUSH0 DUP1 REVERT JUMPDEST POP PUSH2 0x22A DUP1 PUSH2 0x1D PUSH0 CODECOPY PUSH0 RETURN INVALID PUSH1 0x80 PUSH1 0x40 MSTORE CALLVALUE DUP1 ISZERO PUSH2 0xF JUMPI PUSH0 DUP1 REVERT JUMPDEST POP PUSH1 0x4 CALLDATASIZE LT PUSH2 0x29 JUMPI PUSH0 CALLDATALOAD PUSH1 0xE0 SHR DUP1 PUSH4 0x209B472E EQ PUSH2 0x2D JUMPI JUMPDEST PUSH0 DUP1 REVERT JUMPDEST PUSH2 0x40 PUSH2 0x3B CALLDATASIZE PUSH1 0x4 PUSH2 0x130 JUMP JUMPDEST PUSH2 0x56 JUMP JUMPDEST PUSH1 0x40 MLOAD PUSH2 0x4D SWAP2 SWAP1 PUSH2 0x158 JUMP JUMPDEST PUSH1 0x40 MLOAD DUP1 SWAP2 SUB SWAP1 RETURN JUMPDEST PUSH2 0x5E PUSH2 0x111 JUMP JUMPDEST PUSH0 JUMPDEST PUSH1 0xA DUP2 LT ISZERO PUSH2 0x9F JUMPI DUP3 DUP2 PUSH1 0xA DUP2 LT PUSH2 0x7B JUMPI PUSH2 0x7B PUSH2 0x189 JUMP JUMPDEST PUSH1 0x20 MUL ADD CALLDATALOAD DUP3 DUP3 PUSH1 0xA DUP2 LT PUSH2 0x92 JUMPI PUSH2 0x92 PUSH2 0x189 JUMP JUMPDEST PUSH1 0x20 MUL ADD MSTORE PUSH1 0x1 ADD PUSH2 0x60 JUMP JUMPDEST POP PUSH0 JUMPDEST PUSH1 0xA DUP2 LT ISZERO PUSH2 0x10B JUMPI PUSH0 JUMPDEST PUSH2 0xB8 DUP3 PUSH1 0x9 PUSH2 0x1B6 JUMP JUMPDEST DUP2 LT ISZERO PUSH2 0x102 JUMPI PUSH1 0x20 DUP2 MUL PUSH1 0x20 DUP5 ADD ADD MLOAD PUSH1 0x20 PUSH1 0x1 DUP4 ADD MUL PUSH1 0x20 DUP6 ADD ADD MLOAD DUP1 DUP3 GT ISZERO PUSH2 0xF8 JUMPI DUP1 PUSH1 0x20 DUP5 MUL PUSH1 0x20 DUP8 ADD ADD MSTORE DUP2 PUSH1 0x20 PUSH1 0x1 DUP6 ADD MUL PUSH1 0x20 DUP8 ADD ADD MSTORE JUMPDEST POP POP PUSH1 0x1 ADD PUSH2 0xAD JUMP JUMPDEST POP PUSH1 0x1 ADD PUSH2 0xA2 JUMP JUMPDEST POP SWAP2 SWAP1 POP JUMP JUMPDEST PUSH1 0x40 MLOAD DUP1 PUSH2 0x140 ADD PUSH1 0x40 MSTORE DUP1 PUSH1 0xA SWAP1 PUSH1 0x20 DUP3 MUL DUP1 CALLDATASIZE DUP4 CALLDATACOPY POP SWAP2 SWAP3 SWAP2 POP POP JUMP JUMPDEST PUSH0 PUSH2 0x140 DUP1 DUP4 DUP6 SUB SLT ISZERO PUSH2 0x142 JUMPI PUSH0 DUP1 REVERT JUMPDEST DUP4 DUP2 DUP5 ADD GT ISZERO PUSH2 0x150 JUMPI PUSH0 DUP1 REVERT JUMPDEST POP SWAP1 SWAP3 SWAP2 POP POP JUMP JUMPDEST PUSH2 0x140 DUP2 ADD DUP2 DUP4 PUSH0 JUMPDEST PUSH1 0xA DUP2 LT ISZERO PUSH2 0x180 JUMPI DUP2 MLOAD DUP4 MSTORE PUSH1 0x20 SWAP3 DUP4 ADD SWAP3 SWAP1 SWAP2 ADD SWAP1 PUSH1 0x1 ADD PUSH2 0x161 JUMP JUMPDEST POP POP POP SWAP3 SWAP2 POP POP JUMP JUMPDEST PUSH32 0x4E487B7100000000000000000000000000000000000000000000000000000000 PUSH0 MSTORE PUSH1 0x32 PUSH1 0x4 MSTORE PUSH1 0x24 PUSH0 REVERT JUMPDEST DUP2 DUP2 SUB DUP2 DUP2 GT ISZERO PUSH2 0x1EE JUMPI PUSH32 0x4E487B7100000000000000000000000000000000000000000000000000000000 PUSH0 MSTORE PUSH1 0x11 PUSH1 0x4 MSTORE PUSH1 0x24 PUSH0 REVERT JUMPDEST SWAP3 SWAP2 POP POP JUMP INVALID LOG2 PUSH5 0x6970667358 0x22 SLT KECCAK256 MSTORE8 0xE2 OR 0xB1 PUSH7 0xC7FA4C7BD04F2E STATICCALL DUP1 SWAP12 0xB6 0x4A PUSH27 0xBBC45019574C7D06B989C31C30F64736F6C634300081600330000 "
				},
				"gasEstimates": {
					"creation": {
						"codeDepositCost": "110800",
						"executionCost": "157",
						"totalCost": "110957"
					},
					"external": {
						"solution(uint256[10])": "infinite"
					}
				},
				"methodIdentifiers": {
					"solution(uint256[10])": "209b472e"
				}
			},
			"storageLayout": {
				"storage": [],
				"types": null
			},
			"userdoc": {
				"kind": "user",
				"methods": {},
				"version": 1
			}
		}
	}
}