{
	"contracts/06_OverflowAverage.sol": {
		"Level5Template": {
			"abi": [
				{
					"inputs": [
						{
							"internalType": "int256",
							"name": "a",
							"type": "int256"
						},
						{
							"internalType": "int256",
							"name": "b",
							"type": "int256"
						}
					],
					"name": "solution",
					"outputs": [
						{
							"internalType": "int256",
							"name": "",
							"type": "int256"
						}
					],
					"stateMutability": "pure",
					"type": "function"
				}
			],
			"devdoc": {
				"kind": "dev",
				"methods": {},
				"version": 1
			},
			"evm": {
				"assembly": "    /* \"contracts/06_OverflowAverage.sol\":61:556  contract Level5Template {... */\n  mstore(0x40, 0x80)\n  callvalue\n  dup1\n  iszero\n  tag_1\n  jumpi\n  0x00\n  dup1\n  revert\ntag_1:\n  pop\n  dataSize(sub_0)\n  dup1\n  dataOffset(sub_0)\n  0x00\n  codecopy\n  0x00\n  return\nstop\n\nsub_0: assembly {\n        /* \"contracts/06_OverflowAverage.sol\":61:556  contract Level5Template {... */\n      mstore(0x40, 0x80)\n      callvalue\n      dup1\n      iszero\n      tag_1\n      jumpi\n      0x00\n      dup1\n      revert\n    tag_1:\n      pop\n      jumpi(tag_2, lt(calldatasize, 0x04))\n      shr(0xe0, calldataload(0x00))\n      dup1\n      0x2c81ea35\n      eq\n      tag_3\n      jumpi\n    tag_2:\n      0x00\n      dup1\n      revert\n        /* \"contracts/06_OverflowAverage.sol\":91:554  function solution(int256 a, int256 b) external pure returns (int256) {... */\n    tag_3:\n      tag_4\n      tag_5\n      calldatasize\n      0x04\n      tag_6\n      jump\t// in\n    tag_5:\n      tag_7\n      jump\t// in\n    tag_4:\n      mload(0x40)\n        /* \"#utility.yul\":409:434   */\n      swap1\n      dup2\n      mstore\n        /* \"#utility.yul\":397:399   */\n      0x20\n        /* \"#utility.yul\":382:400   */\n      add\n        /* \"contracts/06_OverflowAverage.sol\":91:554  function solution(int256 a, int256 b) external pure returns (int256) {... */\n      mload(0x40)\n      dup1\n      swap2\n      sub\n      swap1\n      return\n    tag_7:\n        /* \"contracts/06_OverflowAverage.sol\":152:158  int256 */\n      0x00\n      dup1\n        /* \"contracts/06_OverflowAverage.sol\":309:314  a / 2 */\n      tag_11\n        /* \"contracts/06_OverflowAverage.sol\":313:314  2 */\n      0x02\n        /* \"contracts/06_OverflowAverage.sol\":309:310  a */\n      dup6\n        /* \"contracts/06_OverflowAverage.sol\":309:314  a / 2 */\n      tag_12\n      jump\t// in\n    tag_11:\n        /* \"contracts/06_OverflowAverage.sol\":294:314  int256 halfA = a / 2 */\n      swap1\n      pop\n        /* \"contracts/06_OverflowAverage.sol\":324:336  int256 halfB */\n      0x00\n        /* \"contracts/06_OverflowAverage.sol\":339:344  b / 2 */\n      tag_13\n        /* \"contracts/06_OverflowAverage.sol\":343:344  2 */\n      0x02\n        /* \"contracts/06_OverflowAverage.sol\":339:340  b */\n      dup6\n        /* \"contracts/06_OverflowAverage.sol\":339:344  b / 2 */\n      tag_12\n      jump\t// in\n    tag_13:\n        /* \"contracts/06_OverflowAverage.sol\":324:344  int256 halfB = b / 2 */\n      swap1\n      pop\n        /* \"contracts/06_OverflowAverage.sol\":433:445  int256 carry */\n      0x00\n        /* \"contracts/06_OverflowAverage.sol\":470:471  2 */\n      0x02\n        /* \"contracts/06_OverflowAverage.sol\":457:462  b % 2 */\n      tag_14\n        /* \"contracts/06_OverflowAverage.sol\":470:471  2 */\n      dup2\n        /* \"contracts/06_OverflowAverage.sol\":457:458  b */\n      dup8\n        /* \"contracts/06_OverflowAverage.sol\":457:462  b % 2 */\n      tag_15\n      jump\t// in\n    tag_14:\n        /* \"contracts/06_OverflowAverage.sol\":449:454  a % 2 */\n      tag_16\n        /* \"contracts/06_OverflowAverage.sol\":453:454  2 */\n      0x02\n        /* \"contracts/06_OverflowAverage.sol\":449:450  a */\n      dup10\n        /* \"contracts/06_OverflowAverage.sol\":449:454  a % 2 */\n      tag_15\n      jump\t// in\n    tag_16:\n        /* \"contracts/06_OverflowAverage.sol\":449:462  a % 2 + b % 2 */\n      tag_17\n      swap2\n      swap1\n      tag_18\n      jump\t// in\n    tag_17:\n        /* \"contracts/06_OverflowAverage.sol\":449:466  a % 2 + b % 2 + 1 */\n      tag_19\n      swap1\n        /* \"contracts/06_OverflowAverage.sol\":465:466  1 */\n      0x01\n        /* \"contracts/06_OverflowAverage.sol\":449:466  a % 2 + b % 2 + 1 */\n      tag_18\n      jump\t// in\n    tag_19:\n        /* \"contracts/06_OverflowAverage.sol\":448:471  (a % 2 + b % 2 + 1) / 2 */\n      tag_20\n      swap2\n      swap1\n      tag_12\n      jump\t// in\n    tag_20:\n        /* \"contracts/06_OverflowAverage.sol\":433:471  int256 carry = (a % 2 + b % 2 + 1) / 2 */\n      swap1\n      pop\n      dup1\n        /* \"contracts/06_OverflowAverage.sol\":526:539  halfA + halfB */\n      tag_21\n        /* \"contracts/06_OverflowAverage.sol\":534:539  halfB */\n      dup4\n        /* \"contracts/06_OverflowAverage.sol\":526:531  halfA */\n      dup6\n        /* \"contracts/06_OverflowAverage.sol\":526:539  halfA + halfB */\n      tag_18\n      jump\t// in\n    tag_21:\n        /* \"contracts/06_OverflowAverage.sol\":526:547  halfA + halfB + carry */\n      tag_22\n      swap2\n      swap1\n      tag_18\n      jump\t// in\n    tag_22:\n        /* \"contracts/06_OverflowAverage.sol\":519:547  return halfA + halfB + carry */\n      swap7\n        /* \"contracts/06_OverflowAverage.sol\":91:554  function solution(int256 a, int256 b) external pure returns (int256) {... */\n      swap6\n      pop\n      pop\n      pop\n      pop\n      pop\n      pop\n      jump\t// out\n        /* \"#utility.yul\":14:260   */\n    tag_6:\n        /* \"#utility.yul\":80:86   */\n      0x00\n        /* \"#utility.yul\":88:94   */\n      dup1\n        /* \"#utility.yul\":141:143   */\n      0x40\n        /* \"#utility.yul\":129:138   */\n      dup4\n        /* \"#utility.yul\":120:127   */\n      dup6\n        /* \"#utility.yul\":116:139   */\n      sub\n        /* \"#utility.yul\":112:144   */\n      slt\n        /* \"#utility.yul\":109:161   */\n      iszero\n      tag_27\n      jumpi\n        /* \"#utility.yul\":157:158   */\n      0x00\n        /* \"#utility.yul\":154:155   */\n      dup1\n        /* \"#utility.yul\":147:159   */\n      revert\n        /* \"#utility.yul\":109:161   */\n    tag_27:\n      pop\n      pop\n        /* \"#utility.yul\":180:203   */\n      dup1\n      calldataload\n      swap3\n        /* \"#utility.yul\":250:252   */\n      0x20\n        /* \"#utility.yul\":235:253   */\n      swap1\n      swap2\n      add\n        /* \"#utility.yul\":222:254   */\n      calldataload\n      swap2\n      pop\n        /* \"#utility.yul\":14:260   */\n      jump\t// out\n        /* \"#utility.yul\":445:629   */\n    tag_23:\n        /* \"#utility.yul\":497:574   */\n      0x4e487b7100000000000000000000000000000000000000000000000000000000\n        /* \"#utility.yul\":494:495   */\n      0x00\n        /* \"#utility.yul\":487:575   */\n      mstore\n        /* \"#utility.yul\":594:598   */\n      0x12\n        /* \"#utility.yul\":591:592   */\n      0x04\n        /* \"#utility.yul\":584:599   */\n      mstore\n        /* \"#utility.yul\":618:622   */\n      0x24\n        /* \"#utility.yul\":615:616   */\n      0x00\n        /* \"#utility.yul\":608:623   */\n      revert\n        /* \"#utility.yul\":634:818   */\n    tag_24:\n        /* \"#utility.yul\":686:763   */\n      0x4e487b7100000000000000000000000000000000000000000000000000000000\n        /* \"#utility.yul\":683:684   */\n      0x00\n        /* \"#utility.yul\":676:764   */\n      mstore\n        /* \"#utility.yul\":783:787   */\n      0x11\n        /* \"#utility.yul\":780:781   */\n      0x04\n        /* \"#utility.yul\":773:788   */\n      mstore\n        /* \"#utility.yul\":807:811   */\n      0x24\n        /* \"#utility.yul\":804:805   */\n      0x00\n        /* \"#utility.yul\":797:812   */\n      revert\n        /* \"#utility.yul\":823:1131   */\n    tag_12:\n        /* \"#utility.yul\":862:863   */\n      0x00\n        /* \"#utility.yul\":888:889   */\n      dup3\n        /* \"#utility.yul\":878:913   */\n      tag_33\n      jumpi\n        /* \"#utility.yul\":893:911   */\n      tag_33\n      tag_23\n      jump\t// in\n    tag_33:\n        /* \"#utility.yul\":1010:1076   */\n      0xffffffffffffffffffffffffffffffffffffffffffffffffffffffffffffffff\n        /* \"#utility.yul\":1007:1008   */\n      dup4\n        /* \"#utility.yul\":1004:1077   */\n      eq\n        /* \"#utility.yul\":935:1001   */\n      0x8000000000000000000000000000000000000000000000000000000000000000\n        /* \"#utility.yul\":932:933   */\n      dup4\n        /* \"#utility.yul\":929:1002   */\n      eq\n        /* \"#utility.yul\":925:1078   */\n      and\n        /* \"#utility.yul\":922:1101   */\n      iszero\n      tag_35\n      jumpi\n        /* \"#utility.yul\":1081:1099   */\n      tag_35\n      tag_24\n      jump\t// in\n    tag_35:\n      pop\n        /* \"#utility.yul\":1115:1125   */\n      sdiv\n      swap1\n        /* \"#utility.yul\":823:1131   */\n      jump\t// out\n        /* \"#utility.yul\":1136:1248   */\n    tag_15:\n        /* \"#utility.yul\":1167:1168   */\n      0x00\n        /* \"#utility.yul\":1193:1194   */\n      dup3\n        /* \"#utility.yul\":1183:1218   */\n      tag_38\n      jumpi\n        /* \"#utility.yul\":1198:1216   */\n      tag_38\n      tag_23\n      jump\t// in\n    tag_38:\n      pop\n        /* \"#utility.yul\":1232:1242   */\n      smod\n      swap1\n        /* \"#utility.yul\":1136:1248   */\n      jump\t// out\n        /* \"#utility.yul\":1253:1469   */\n    tag_18:\n        /* \"#utility.yul\":1317:1326   */\n      dup1\n      dup3\n      add\n        /* \"#utility.yul\":1345:1356   */\n      dup3\n      dup2\n      slt\n        /* \"#utility.yul\":1292:1295   */\n      0x00\n        /* \"#utility.yul\":1375:1384   */\n      dup4\n      slt\n        /* \"#utility.yul\":1403:1413   */\n      dup1\n      iszero\n        /* \"#utility.yul\":1399:1418   */\n      dup3\n      and\n        /* \"#utility.yul\":1428:1438   */\n      dup3\n      iszero\n        /* \"#utility.yul\":1420:1439   */\n      dup3\n      and\n        /* \"#utility.yul\":1396:1440   */\n      or\n        /* \"#utility.yul\":1393:1463   */\n      iszero\n      tag_41\n      jumpi\n        /* \"#utility.yul\":1443:1461   */\n      tag_41\n      tag_24\n      jump\t// in\n    tag_41:\n        /* \"#utility.yul\":1393:1463   */\n      pop\n      pop\n        /* \"#utility.yul\":1253:1469   */\n      swap3\n      swap2\n      pop\n      pop\n      jump\t// out\n\n    auxdata: 0xa2646970667358221220b5e01c532d4831206e62b28cb69200f8a995fbef12b6ad279f5b17901d9da67964736f6c63430008160033\n}\n",
				"bytecode": {
					"linkReferences": {},
					"object": "608060405234801561000f575f80fd5b506102188061001d5f395ff3fe608060405234801561000f575f80fd5b5060043610610029575f3560e01c80632c81ea351461002d575b5f80fd5b61004061003b3660046100c7565b610052565b60405190815260200160405180910390f35b5f8061005f600285610141565b90505f61006d600285610141565b90505f600261007c81876101a8565b6100876002896101a8565b61009191906101bb565b61009c9060016101bb565b6100a69190610141565b9050806100b383856101bb565b6100bd91906101bb565b9695505050505050565b5f80604083850312156100d8575f80fd5b50508035926020909101359150565b7f4e487b71000000000000000000000000000000000000000000000000000000005f52601260045260245ffd5b7f4e487b71000000000000000000000000000000000000000000000000000000005f52601160045260245ffd5b5f8261014f5761014f6100e7565b7fffffffffffffffffffffffffffffffffffffffffffffffffffffffffffffffff83147f8000000000000000000000000000000000000000000000000000000000000000831416156101a3576101a3610114565b500590565b5f826101b6576101b66100e7565b500790565b8082018281125f8312801582168215821617156101da576101da610114565b50509291505056fea2646970667358221220b5e01c532d4831206e62b28cb69200f8a995fbef12b6ad279f5b17901d9da67964736f6c63430008160033",
					"opcodes": "PUSH1 0x80 PUSH1 0x40 MSTORE CALLVALUE DUP1 ISZERO PUSH2 0xF JUMPI PUSH0 DUP1 REVERT JUMPDEST POP PUSH2 0x218 DUP1 PUSH2 0x1D PUSH0 CODECOPY PUSH0 RETURN INVALID PUSH1 0x80 PUSH1 0x40 MSTORE CALLVALUE DUP1 ISZERO PUSH2 0xF JUMPI PUSH0 DUP1 REVERT JUMPDEST POP PUSH1 0x4 CALLDATASIZE LT PUSH2 0x29 JUMPI PUSH0 CALLDATALOAD PUSH1 0xE0 SHR DUP1 PUSH4 0x2C81EA35 EQ PUSH2 0x2D JUMPI JUMPDEST PUSH0 DUP1 REVERT JUMPDEST PUSH2 0x40 PUSH2 0x3B CALLDATASIZE PUSH1 0x4 PUSH2 0xC7 JUMP JUMPDEST PUSH2 0x52 JUMP JUMPDEST PUSH1 0x40 MLOAD SWAP1 DUP2 MSTORE PUSH1 0x20 ADD PUSH1 0x40 MLOAD DUP1 SWAP2 SUB SWAP1 RETURN JUMPDEST PUSH0 DUP1 PUSH2 0x5F PUSH1 0x2 DUP6 PUSH2 0x141 JUMP JUMPDEST SWAP1 POP PUSH0 PUSH2 0x6D PUSH1 0x2 DUP6 PUSH2 0x141 JUMP JUMPDEST SWAP1 POP PUSH0 PUSH1 0x2 PUSH2 0x7C DUP2 DUP8 PUSH2 0x1A8 JUMP JUMPDEST PUSH2 0x87 PUSH1 0x2 DUP10 PUSH2 0x1A8 JUMP JUMPDEST PUSH2 0x91 SWAP2 SWAP1 PUSH2 0x1BB JUMP JUMPDEST PUSH2 0x9C SWAP1 PUSH1 0x1 PUSH2 0x1BB JUMP JUMPDEST PUSH2 0xA6 SWAP2 SWAP1 PUSH2 0x141 JUMP JUMPDEST SWAP1 POP DUP1 PUSH2 0xB3 DUP4 DUP6 PUSH2 0x1BB JUMP JUMPDEST PUSH2 0xBD SWAP2 SWAP1 PUSH2 0x1BB JUMP JUMPDEST SWAP7 SWAP6 POP POP POP POP POP POP JUMP JUMPDEST PUSH0 DUP1 PUSH1 0x40 DUP4 DUP6 SUB SLT ISZERO PUSH2 0xD8 JUMPI PUSH0 DUP1 REVERT JUMPDEST POP POP DUP1 CALLDATALOAD SWAP3 PUSH1 0x20 SWAP1 SWAP2 ADD CALLDATALOAD SWAP2 POP JUMP JUMPDEST PUSH32 0x4E487B7100000000000000000000000000000000000000000000000000000000 PUSH0 MSTORE PUSH1 0x12 PUSH1 0x4 MSTORE PUSH1 0x24 PUSH0 REVERT JUMPDEST PUSH32 0x4E487B7100000000000000000000000000000000000000000000000000000000 PUSH0 MSTORE PUSH1 0x11 PUSH1 0x4 MSTORE PUSH1 0x24 PUSH0 REVERT JUMPDEST PUSH0 DUP3 PUSH2 0x14F JUMPI PUSH2 0x14F PUSH2 0xE7 JUMP JUMPDEST PUSH32 0xFFFFFFFFFFFFFFFFFFFFFFFFFFFFFFFFFFFFFFFFFFFFFFFFFFFFFFFFFFFFFFFF DUP4 EQ PUSH32 0x8000000000000000000000000000000000000000000000000000000000000000 DUP4 EQ AND ISZERO PUSH2 0x1A3 JUMPI PUSH2 0x1A3 PUSH2 0x114 JUMP JUMPDEST POP SDIV SWAP1 JUMP JUMPDEST PUSH0 DUP3 PUSH2 0x1B6 JUMPI PUSH2 0x1B6 PUSH2 0xE7 JUMP JUMPDEST POP SMOD SWAP1 JUMP JUMPDEST DUP1 DUP3 ADD DUP3 DUP2 SLT PUSH0 DUP4 SLT DUP1 ISZERO DUP3 AND DUP3 ISZERO DUP3 AND OR ISZERO PUSH2 0x1DA JUMPI PUSH2 0x1DA PUSH2 0x114 JUMP JUMPDEST POP POP SWAP3 SWAP2 POP POP JUMP INVALID LOG2 PUSH5 0x6970667358 0x22 SLT KECCAK256 0xB5 0xE0 SHR MSTORE8 0x2D BASEFEE BALANCE KECCAK256 PUSH15 0x62B28CB69200F8A995FBEF12B6AD27 SWAP16 JUMPDEST OR SWAP1 SAR SWAP14 0xA6 PUSH26 0x64736F6C63430008160033000000000000000000000000000000 "
				},
				"gasEstimates": {
					"creation": {
						"codeDepositCost": "107200",
						"executionCost": "151",
						"totalCost": "107351"
					},
					"external": {
						"solution(int256,int256)": "infinite"
					}
				},
				"methodIdentifiers": {
					"solution(int256,int256)": "2c81ea35"
				}
			},
			"storageLayout": {
				"storage": [],
				"types": null
			},
			"userdoc": {
				"kind": "user",
				"methods": {},
				"version": 1
			}
		}
	}
}