{
	"contracts/05_GreatestPowerOf2_NoAssembly.sol": {
		"Level4Template": {
			"abi": [
				{
					"inputs": [
						{
							"internalType": "uint256",
							"name": "number",
							"type": "uint256"
						}
					],
					"name": "solution",
					"outputs": [
						{
							"internalType": "uint256",
							"name": "",
							"type": "uint256"
						}
					],
					"stateMutability": "pure",
					"type": "function"
				}
			],
			"devdoc": {
				"kind": "dev",
				"methods": {},
				"version": 1
			},
			"evm": {
				"assembly": "    /* \"contracts/05_GreatestPowerOf2_NoAssembly.sol\":58:816  contract Level4Template {... */\n  mstore(0x40, 0x80)\n  callvalue\n  dup1\n  iszero\n  tag_1\n  jumpi\n  0x00\n  dup1\n  revert\ntag_1:\n  pop\n  dataSize(sub_0)\n  dup1\n  dataOffset(sub_0)\n  0x00\n  codecopy\n  0x00\n  return\nstop\n\nsub_0: assembly {\n        /* \"contracts/05_GreatestPowerOf2_NoAssembly.sol\":58:816  contract Level4Template {... */\n      mstore(0x40, 0x80)\n      callvalue\n      dup1\n      iszero\n      tag_1\n      jumpi\n      0x00\n      dup1\n      revert\n    tag_1:\n      pop\n      jumpi(tag_2, lt(calldatasize, 0x04))\n      shr(0xe0, calldataload(0x00))\n      dup1\n      0xdb53653e\n      eq\n      tag_3\n      jumpi\n    tag_2:\n      0x00\n      dup1\n      revert\n        /* \"contracts/05_GreatestPowerOf2_NoAssembly.sol\":88:814  function solution(uint256 number) external pure returns (uint256) {... */\n    tag_3:\n      tag_4\n      tag_5\n      calldatasize\n      0x04\n      tag_6\n      jump\t// in\n    tag_5:\n      tag_7\n      jump\t// in\n    tag_4:\n      mload(0x40)\n        /* \"#utility.yul\":345:370   */\n      swap1\n      dup2\n      mstore\n        /* \"#utility.yul\":333:335   */\n      0x20\n        /* \"#utility.yul\":318:336   */\n      add\n        /* \"contracts/05_GreatestPowerOf2_NoAssembly.sol\":88:814  function solution(uint256 number) external pure returns (uint256) {... */\n      mload(0x40)\n      dup1\n      swap2\n      sub\n      swap1\n      return\n    tag_7:\n        /* \"contracts/05_GreatestPowerOf2_NoAssembly.sol\":145:152  uint256 */\n      0x00\n        /* \"contracts/05_GreatestPowerOf2_NoAssembly.sol\":269:275  number */\n      dup2\n        /* \"contracts/05_GreatestPowerOf2_NoAssembly.sol\":279:280  0 */\n      0x00\n        /* \"contracts/05_GreatestPowerOf2_NoAssembly.sol\":269:280  number == 0 */\n      sub\n        /* \"contracts/05_GreatestPowerOf2_NoAssembly.sol\":265:315  if (number == 0) {... */\n      tag_11\n      jumpi\n      pop\n        /* \"contracts/05_GreatestPowerOf2_NoAssembly.sol\":303:304  0 */\n      0x00\n      swap2\n        /* \"contracts/05_GreatestPowerOf2_NoAssembly.sol\":88:814  function solution(uint256 number) external pure returns (uint256) {... */\n      swap1\n      pop\n      jump\t// out\n        /* \"contracts/05_GreatestPowerOf2_NoAssembly.sol\":265:315  if (number == 0) {... */\n    tag_11:\n        /* \"contracts/05_GreatestPowerOf2_NoAssembly.sol\":441:442  1 */\n      0x01\n        /* \"contracts/05_GreatestPowerOf2_NoAssembly.sol\":534:694  while (number > 1) {... */\n    tag_12:\n        /* \"contracts/05_GreatestPowerOf2_NoAssembly.sol\":550:551  1 */\n      0x01\n        /* \"contracts/05_GreatestPowerOf2_NoAssembly.sol\":541:547  number */\n      dup4\n        /* \"contracts/05_GreatestPowerOf2_NoAssembly.sol\":541:551  number > 1 */\n      gt\n        /* \"contracts/05_GreatestPowerOf2_NoAssembly.sol\":534:694  while (number > 1) {... */\n      iszero\n      tag_13\n      jumpi\n        /* \"contracts/05_GreatestPowerOf2_NoAssembly.sol\":586:587  1 */\n      0x01\n        /* \"contracts/05_GreatestPowerOf2_NoAssembly.sol\":576:587  number >> 1 */\n      swap3\n      dup4\n      shr\n      swap3\n        /* \"contracts/05_GreatestPowerOf2_NoAssembly.sol\":610:621  result << 1 */\n      shl\n        /* \"contracts/05_GreatestPowerOf2_NoAssembly.sol\":534:694  while (number > 1) {... */\n      jump(tag_12)\n    tag_13:\n        /* \"contracts/05_GreatestPowerOf2_NoAssembly.sol\":711:717  result */\n      swap3\n        /* \"contracts/05_GreatestPowerOf2_NoAssembly.sol\":88:814  function solution(uint256 number) external pure returns (uint256) {... */\n      swap2\n      pop\n      pop\n      jump\t// out\n        /* \"#utility.yul\":14:194   */\n    tag_6:\n        /* \"#utility.yul\":73:79   */\n      0x00\n        /* \"#utility.yul\":126:128   */\n      0x20\n        /* \"#utility.yul\":114:123   */\n      dup3\n        /* \"#utility.yul\":105:112   */\n      dup5\n        /* \"#utility.yul\":101:124   */\n      sub\n        /* \"#utility.yul\":97:129   */\n      slt\n        /* \"#utility.yul\":94:146   */\n      iszero\n      tag_16\n      jumpi\n        /* \"#utility.yul\":142:143   */\n      0x00\n        /* \"#utility.yul\":139:140   */\n      dup1\n        /* \"#utility.yul\":132:144   */\n      revert\n        /* \"#utility.yul\":94:146   */\n    tag_16:\n      pop\n        /* \"#utility.yul\":165:188   */\n      calldataload\n      swap2\n        /* \"#utility.yul\":14:194   */\n      swap1\n      pop\n      jump\t// out\n\n    auxdata: 0xa264697066735822122004f5308c6829e720c440830be107300c610299a4759a90cc1ff29d79b97c0a2764736f6c63430008160033\n}\n",
				"bytecode": {
					"linkReferences": {},
					"object": "608060405234801561000f575f80fd5b5060c18061001c5f395ff3fe6080604052348015600e575f80fd5b50600436106026575f3560e01c8063db53653e14602a575b5f80fd5b603960353660046075565b604b565b60405190815260200160405180910390f35b5f815f03605957505f919050565b60015b6001831115606f57600192831c921b605c565b92915050565b5f602082840312156084575f80fd5b503591905056fea264697066735822122004f5308c6829e720c440830be107300c610299a4759a90cc1ff29d79b97c0a2764736f6c63430008160033",
					"opcodes": "PUSH1 0x80 PUSH1 0x40 MSTORE CALLVALUE DUP1 ISZERO PUSH2 0xF JUMPI PUSH0 DUP1 REVERT JUMPDEST POP PUSH1 0xC1 DUP1 PUSH2 0x1C PUSH0 CODECOPY PUSH0 RETURN INVALID PUSH1 0x80 PUSH1 0x40 MSTORE CALLVALUE DUP1 ISZERO PUSH1 0xE JUMPI PUSH0 DUP1 REVERT JUMPDEST POP PUSH1 0x4 CALLDATASIZE LT PUSH1 0x26 JUMPI PUSH0 CALLDATALOAD PUSH1 0xE0 SHR DUP1 PUSH4 0xDB53653E EQ PUSH1 0x2A JUMPI JUMPDEST PUSH0 DUP1 REVERT JUMPDEST PUSH1 0x39 PUSH1 0x35 CALLDATASIZE PUSH1 0x4 PUSH1 0x75 JUMP JUMPDEST PUSH1 0x4B JUMP JUMPDEST PUSH1 0x40 MLOAD SWAP1 DUP2 MSTORE PUSH1 0x20 ADD PUSH1 0x40 MLOAD DUP1 SWAP2 SUB SWAP1 RETURN JUMPDEST PUSH0 DUP2 PUSH0 SUB PUSH1 0x59 JUMPI POP PUSH0 SWAP2 SWAP1 POP JUMP JUMPDEST PUSH1 0x1 JUMPDEST PUSH1 0x1 DUP4 GT ISZERO PUSH1 0x6F JUMPI PUSH1 0x1 SWAP3 DUP4 SHR SWAP3 SHL PUSH1 0x5C JUMP JUMPDEST SWAP3 SWAP2 POP POP JUMP JUMPDEST PUSH0 PUSH1 0x20 DUP3 DUP5 SUB SLT ISZERO PUSH1 0x84 JUMPI PUSH0 DUP1 REVERT JUMPDEST POP CALLDATALOAD SWAP2 SWAP1 POP JUMP INVALID LOG2 PUSH5 0x6970667358 0x22 SLT KECCAK256 DIV CREATE2 ADDRESS DUP13 PUSH9 0x29E720C440830BE107 ADDRESS 0xC PUSH2 0x299 LOG4 PUSH22 0x9A90CC1FF29D79B97C0A2764736F6C63430008160033 "
				},
				"gasEstimates": {
					"creation": {
						"codeDepositCost": "38600",
						"executionCost": "91",
						"totalCost": "38691"
					},
					"external": {
						"solution(uint256)": "infinite"
					}
				},
				"methodIdentifiers": {
					"solution(uint256)": "db53653e"
				}
			},
			"storageLayout": {
				"storage": [],
				"types": null
			},
			"userdoc": {
				"kind": "user",
				"methods": {},
				"version": 1
			}
		}
	}
}