{
	"contracts/06_OverflowAverage_Asm.sol": {
		"Level5Template": {
			"abi": [
				{
					"inputs": [
						{
							"internalType": "int256",
							"name": "a",
							"type": "int256"
						},
						{
							"internalType": "int256",
							"name": "b",
							"type": "int256"
						}
					],
					"name": "solution",
					"outputs": [
						{
							"internalType": "int256",
							"name": "",
							"type": "int256"
						}
					],
					"stateMutability": "pure",
					"type": "function"
				}
			],
			"devdoc": {
				"kind": "dev",
				"methods": {},
				"version": 1
			},
			"evm": {
				"assembly": "    /* \"contracts/06_OverflowAverage_Asm.sol\":59:1082  contract Level5Template {... */\n  mstore(0x40, 0x80)\n  callvalue\n  dup1\n  iszero\n  tag_1\n  jumpi\n  0x00\n  dup1\n  revert\ntag_1:\n  pop\n  dataSize(sub_0)\n  dup1\n  dataOffset(sub_0)\n  0x00\n  codecopy\n  0x00\n  return\nstop\n\nsub_0: assembly {\n        /* \"contracts/06_OverflowAverage_Asm.sol\":59:1082  contract Level5Template {... */\n      mstore(0x40, 0x80)\n      callvalue\n      dup1\n      iszero\n      tag_1\n      jumpi\n      0x00\n      dup1\n      revert\n    tag_1:\n      pop\n      jumpi(tag_2, lt(calldatasize, 0x04))\n      shr(0xe0, calldataload(0x00))\n      dup1\n      0x2c81ea35\n      eq\n      tag_3\n      jumpi\n    tag_2:\n      0x00\n      dup1\n      revert\n        /* \"contracts/06_OverflowAverage_Asm.sol\":89:1080  function solution(int256 a, int256 b) external pure returns (int256) {... */\n    tag_3:\n      tag_4\n      tag_5\n      calldatasize\n      0x04\n      tag_6\n      jump\t// in\n    tag_5:\n      tag_7\n      jump\t// in\n    tag_4:\n      mload(0x40)\n        /* \"#utility.yul\":409:434   */\n      swap1\n      dup2\n      mstore\n        /* \"#utility.yul\":397:399   */\n      0x20\n        /* \"#utility.yul\":382:400   */\n      add\n        /* \"contracts/06_OverflowAverage_Asm.sol\":89:1080  function solution(int256 a, int256 b) external pure returns (int256) {... */\n      mload(0x40)\n      dup1\n      swap2\n      sub\n      swap1\n      return\n    tag_7:\n        /* \"contracts/06_OverflowAverage_Asm.sol\":981:985  0x40 */\n      0x40\n        /* \"contracts/06_OverflowAverage_Asm.sol\":975:986  mload(0x40) */\n      mload\n        /* \"contracts/06_OverflowAverage_Asm.sol\":281:282  2 */\n      0x02\n        /* \"contracts/06_OverflowAverage_Asm.sol\":309:319  sdiv(b, 2) */\n      dup1\n      dup4\n      sdiv\n        /* \"contracts/06_OverflowAverage_Asm.sol\":273:283  sdiv(a, 2) */\n      dup2\n      dup6\n      sdiv\n        /* \"contracts/06_OverflowAverage_Asm.sol\":860:877  add(halfA, halfB) */\n      add\n        /* \"contracts/06_OverflowAverage_Asm.sol\":657:658  1 */\n      0x01\n        /* \"contracts/06_OverflowAverage_Asm.sol\":461:471  smod(b, 2) */\n      dup3\n      dup6\n      smod\n        /* \"contracts/06_OverflowAverage_Asm.sol\":403:413  smod(a, 2) */\n      dup4\n      dup8\n      smod\n        /* \"contracts/06_OverflowAverage_Asm.sol\":587:606  add(carryA, carryB) */\n      add\n        /* \"contracts/06_OverflowAverage_Asm.sol\":646:659  add(carry, 1) */\n      add\n        /* \"contracts/06_OverflowAverage_Asm.sol\":713:727  sdiv(carry, 2) */\n      swap2\n      swap1\n      swap2\n      sdiv\n        /* \"contracts/06_OverflowAverage_Asm.sol\":856:885  add(add(halfA, halfB), carry) */\n      add\n        /* \"contracts/06_OverflowAverage_Asm.sol\":999:1027  mstore(free_mem_ptr, result) */\n      dup1\n      dup3\n      mstore\n        /* \"contracts/06_OverflowAverage_Asm.sol\":150:156  int256 */\n      0x00\n      swap2\n        /* \"contracts/06_OverflowAverage_Asm.sol\":1061:1063  32 */\n      0x20\n        /* \"contracts/06_OverflowAverage_Asm.sol\":975:986  mload(0x40) */\n      dup2\n        /* \"contracts/06_OverflowAverage_Asm.sol\":1040:1064  return(free_mem_ptr, 32) */\n      return\n        /* \"#utility.yul\":14:260   */\n    tag_6:\n        /* \"#utility.yul\":80:86   */\n      0x00\n        /* \"#utility.yul\":88:94   */\n      dup1\n        /* \"#utility.yul\":141:143   */\n      0x40\n        /* \"#utility.yul\":129:138   */\n      dup4\n        /* \"#utility.yul\":120:127   */\n      dup6\n        /* \"#utility.yul\":116:139   */\n      sub\n        /* \"#utility.yul\":112:144   */\n      slt\n        /* \"#utility.yul\":109:161   */\n      iszero\n      tag_13\n      jumpi\n        /* \"#utility.yul\":157:158   */\n      0x00\n        /* \"#utility.yul\":154:155   */\n      dup1\n        /* \"#utility.yul\":147:159   */\n      revert\n        /* \"#utility.yul\":109:161   */\n    tag_13:\n      pop\n      pop\n        /* \"#utility.yul\":180:203   */\n      dup1\n      calldataload\n      swap3\n        /* \"#utility.yul\":250:252   */\n      0x20\n        /* \"#utility.yul\":235:253   */\n      swap1\n      swap2\n      add\n        /* \"#utility.yul\":222:254   */\n      calldataload\n      swap2\n      pop\n        /* \"#utility.yul\":14:260   */\n      jump\t// out\n\n    auxdata: 0xa2646970667358221220975b40bf6f17e9285b79cb7886b092b8db689805354b05a7ab4068924f90591664736f6c63430008160033\n}\n",
				"bytecode": {
					"linkReferences": {},
					"object": "608060405234801561000f575f80fd5b5060c58061001c5f395ff3fe6080604052348015600e575f80fd5b50600436106026575f3560e01c80632c81ea3514602a575b5f80fd5b603960353660046070565b604b565b60405190815260200160405180910390f35b6040516002808305818505016001828507838707010191909105018082525f91602081f35b5f80604083850312156080575f80fd5b5050803592602090910135915056fea2646970667358221220975b40bf6f17e9285b79cb7886b092b8db689805354b05a7ab4068924f90591664736f6c63430008160033",
					"opcodes": "PUSH1 0x80 PUSH1 0x40 MSTORE CALLVALUE DUP1 ISZERO PUSH2 0xF JUMPI PUSH0 DUP1 REVERT JUMPDEST POP PUSH1 0xC5 DUP1 PUSH2 0x1C PUSH0 CODECOPY PUSH0 RETURN INVALID PUSH1 0x80 PUSH1 0x40 MSTORE CALLVALUE DUP1 ISZERO PUSH1 0xE JUMPI PUSH0 DUP1 REVERT JUMPDEST POP PUSH1 0x4 CALLDATASIZE LT PUSH1 0x26 JUMPI PUSH0 CALLDATALOAD PUSH1 0xE0 SHR DUP1 PUSH4 0x2C81EA35 EQ PUSH1 0x2A JUMPI JUMPDEST PUSH0 DUP1 REVERT JUMPDEST PUSH1 0x39 PUSH1 0x35 CALLDATASIZE PUSH1 0x4 PUSH1 0x70 JUMP JUMPDEST PUSH1 0x4B JUMP JUMPDEST PUSH1 0x40 MLOAD SWAP1 DUP2 MSTORE PUSH1 0x20 ADD PUSH1 0x40 MLOAD DUP1 SWAP2 SUB SWAP1 RETURN JUMPDEST PUSH1 0x40 MLOAD PUSH1 0x2 DUP1 DUP4 SDIV DUP2 DUP6 SDIV ADD PUSH1 0x1 DUP3 DUP6 SMOD DUP4 DUP8 SMOD ADD ADD SWAP2 SWAP1 SWAP2 SDIV ADD DUP1 DUP3 MSTORE PUSH0 SWAP2 PUSH1 0x20 DUP2 RETURN JUMPDEST PUSH0 DUP1 PUSH1 0x40 DUP4 DUP6 SUB SLT ISZERO PUSH1 0x80 JUMPI PUSH0 DUP1 REVERT JUMPDEST POP POP DUP1 CALLDATALOAD SWAP3 PUSH1 0x20 SWAP1 SWAP2 ADD CALLDATALOAD SWAP2 POP JUMP INVALID LOG2 PUSH5 0x6970667358 0x22 SLT KECCAK256 SWAP8 JUMPDEST BLOCKHASH 0xBF PUSH16 0x17E9285B79CB7886B092B8DB68980535 0x4B SDIV 0xA7 0xAB BLOCKHASH PUSH9 0x924F90591664736F6C PUSH4 0x43000816 STOP CALLER "
				},
				"gasEstimates": {
					"creation": {
						"codeDepositCost": "39400",
						"executionCost": "91",
						"totalCost": "39491"
					},
					"external": {
						"solution(int256,int256)": "319"
					}
				},
				"methodIdentifiers": {
					"solution(int256,int256)": "2c81ea35"
				}
			},
			"storageLayout": {
				"storage": [],
				"types": null
			},
			"userdoc": {
				"kind": "user",
				"methods": {},
				"version": 1
			}
		}
	}
}