{
	"contracts/4_Level0.sol": {
		"L": {
			"abi": [
				{
					"inputs": [],
					"name": "solution",
					"outputs": [
						{
							"internalType": "uint8",
							"name": "",
							"type": "uint8"
						}
					],
					"stateMutability": "pure",
					"type": "function"
				}
			],
			"devdoc": {
				"kind": "dev",
				"methods": {},
				"version": 1
			},
			"evm": {
				"assembly": "    /* \"contracts/4_Level0.sol\":24:257  contract L {... */\n  mstore(0x40, 0x80)\n  callvalue\n  dup1\n  iszero\n  tag_1\n  jumpi\n  0x00\n  dup1\n  revert\ntag_1:\n  pop\n  dataSize(sub_0)\n  dup1\n  dataOffset(sub_0)\n  0x00\n  codecopy\n  0x00\n  return\nstop\n\nsub_0: assembly {\n        /* \"contracts/4_Level0.sol\":24:257  contract L {... */\n      mstore(0x40, 0x80)\n      callvalue\n      dup1\n      iszero\n      tag_1\n      jumpi\n      0x00\n      dup1\n      revert\n    tag_1:\n      pop\n      jumpi(tag_2, lt(calldatasize, 0x04))\n      shr(0xe0, calldataload(0x00))\n      dup1\n      0x4fb60251\n      eq\n      tag_3\n      jumpi\n    tag_2:\n      0x00\n      dup1\n      revert\n        /* \"contracts/4_Level0.sol\":41:255  function solution() external pure returns (uint8) {... */\n    tag_3:\n      tag_4\n      tag_5\n      jump\t// in\n    tag_4:\n      mload(0x40)\n        /* \"#utility.yul\":186:190   */\n      0xff\n        /* \"#utility.yul\":174:191   */\n      swap1\n      swap2\n      and\n        /* \"#utility.yul\":156:192   */\n      dup2\n      mstore\n        /* \"#utility.yul\":144:146   */\n      0x20\n        /* \"#utility.yul\":129:147   */\n      add\n        /* \"contracts/4_Level0.sol\":41:255  function solution() external pure returns (uint8) {... */\n      mload(0x40)\n      dup1\n      swap2\n      sub\n      swap1\n      return\n    tag_5:\n        /* \"contracts/4_Level0.sol\":84:89  uint8 */\n      0x00\n        /* \"contracts/4_Level0.sol\":137:139  42 */\n      0x2a\n        /* \"contracts/4_Level0.sol\":131:135  0x80 */\n      0x80\n        /* \"contracts/4_Level0.sol\":124:140  mstore(0x80, 42) */\n      mstore\n        /* \"contracts/4_Level0.sol\":198:200  32 */\n      0x20\n        /* \"contracts/4_Level0.sol\":131:135  0x80 */\n      0x80\n        /* \"contracts/4_Level0.sol\":185:201  return(0x80, 32) */\n      return\n\n    auxdata: 0xa26469706673582212204ba70af0ecdd791c6d1aa2ac45c1670a3b63f5d40b5ef4722ffcc61132b8ccb464736f6c63430008160033\n}\n",
				"bytecode": {
					"linkReferences": {},
					"object": "6080604052348015600e575f80fd5b5060888061001b5f395ff3fe6080604052348015600e575f80fd5b50600436106026575f3560e01c80634fb6025114602a575b5f80fd5b60306046565b60405160ff909116815260200160405180910390f35b5f602a60805260206080f3fea26469706673582212204ba70af0ecdd791c6d1aa2ac45c1670a3b63f5d40b5ef4722ffcc61132b8ccb464736f6c63430008160033",
					"opcodes": "PUSH1 0x80 PUSH1 0x40 MSTORE CALLVALUE DUP1 ISZERO PUSH1 0xE JUMPI PUSH0 DUP1 REVERT JUMPDEST POP PUSH1 0x88 DUP1 PUSH2 0x1B PUSH0 CODECOPY PUSH0 RETURN INVALID PUSH1 0x80 PUSH1 0x40 MSTORE CALLVALUE DUP1 ISZERO PUSH1 0xE JUMPI PUSH0 DUP1 REVERT JUMPDEST POP PUSH1 0x4 CALLDATASIZE LT PUSH1 0x26 JUMPI PUSH0 CALLDATALOAD PUSH1 0xE0 SHR DUP1 PUSH4 0x4FB60251 EQ PUSH1 0x2A JUMPI JUMPDEST PUSH0 DUP1 REVERT JUMPDEST PUSH1 0x30 PUSH1 0x46 JUMP JUMPDEST PUSH1 0x40 MLOAD PUSH1 0xFF SWAP1 SWAP2 AND DUP2 MSTORE PUSH1 0x20 ADD PUSH1 0x40 MLOAD DUP1 SWAP2 SUB SWAP1 RETURN JUMPDEST PUSH0 PUSH1 0x2A PUSH1 0x80 MSTORE PUSH1 0x20 PUSH1 0x80 RETURN INVALID LOG2 PUSH5 0x6970667358 0x22 SLT KECCAK256 0x4B 0xA7 EXP CREATE 0xEC 0xDD PUSH26 0x1C6D1AA2AC45C1670A3B63F5D40B5EF4722FFCC61132B8CCB464 PUSH20 0x6F6C634300081600330000000000000000000000 "
				},
				"gasEstimates": {
					"creation": {
						"codeDepositCost": "27200",
						"executionCost": "79",
						"totalCost": "27279"
					},
					"external": {
						"solution()": "135"
					}
				},
				"methodIdentifiers": {
					"solution()": "4fb60251"
				}
			},
			"storageLayout": {
				"storage": [],
				"types": null
			},
			"userdoc": {
				"kind": "user",
				"methods": {},
				"version": 1
			}
		}
	}
}