{
	"contracts/05_GreatestPowerOf2_Assembly.sol": {
		"Level4Template": {
			"abi": [
				{
					"inputs": [
						{
							"internalType": "uint256",
							"name": "numbe",
							"type": "uint256"
						}
					],
					"name": "solution",
					"outputs": [
						{
							"internalType": "uint256",
							"name": "",
							"type": "uint256"
						}
					],
					"stateMutability": "pure",
					"type": "function"
				}
			],
			"devdoc": {
				"kind": "dev",
				"methods": {},
				"version": 1
			},
			"evm": {
				"assembly": "    /* \"contracts/05_GreatestPowerOf2_Assembly.sol\":59:1385  contract Level4Template {... */\n  mstore(0x40, 0x80)\n  callvalue\n  dup1\n  iszero\n  tag_1\n  jumpi\n  0x00\n  dup1\n  revert\ntag_1:\n  pop\n  dataSize(sub_0)\n  dup1\n  dataOffset(sub_0)\n  0x00\n  codecopy\n  0x00\n  return\nstop\n\nsub_0: assembly {\n        /* \"contracts/05_GreatestPowerOf2_Assembly.sol\":59:1385  contract Level4Template {... */\n      mstore(0x40, 0x80)\n      callvalue\n      dup1\n      iszero\n      tag_1\n      jumpi\n      0x00\n      dup1\n      revert\n    tag_1:\n      pop\n      jumpi(tag_2, lt(calldatasize, 0x04))\n      shr(0xe0, calldataload(0x00))\n      dup1\n      0xdb53653e\n      eq\n      tag_3\n      jumpi\n    tag_2:\n      0x00\n      dup1\n      revert\n        /* \"contracts/05_GreatestPowerOf2_Assembly.sol\":89:1383  function solution(uint256 numbe) external pure returns (uint256) {... */\n    tag_3:\n      tag_4\n      tag_5\n      calldatasize\n      0x04\n      tag_6\n      jump\t// in\n    tag_5:\n      tag_7\n      jump\t// in\n    tag_4:\n      mload(0x40)\n        /* \"#utility.yul\":345:370   */\n      swap1\n      dup2\n      mstore\n        /* \"#utility.yul\":333:335   */\n      0x20\n        /* \"#utility.yul\":318:336   */\n      add\n        /* \"contracts/05_GreatestPowerOf2_Assembly.sol\":89:1383  function solution(uint256 numbe) external pure returns (uint256) {... */\n      mload(0x40)\n      dup1\n      swap2\n      sub\n      swap1\n      return\n    tag_7:\n        /* \"contracts/05_GreatestPowerOf2_Assembly.sol\":145:152  uint256 */\n      0x00\n        /* \"contracts/05_GreatestPowerOf2_Assembly.sol\":255:260  numbe */\n      dup2\n        /* \"contracts/05_GreatestPowerOf2_Assembly.sol\":397:400  num */\n      dup1\n        /* \"contracts/05_GreatestPowerOf2_Assembly.sol\":387:480  if iszero(num) {... */\n      tag_11\n      jumpi\n        /* \"contracts/05_GreatestPowerOf2_Assembly.sol\":432:433  0 */\n      0x00\n        /* \"contracts/05_GreatestPowerOf2_Assembly.sol\":427:430  0x0 */\n      dup1\n        /* \"contracts/05_GreatestPowerOf2_Assembly.sol\":420:434  mstore(0x0, 0) */\n      mstore\n        /* \"contracts/05_GreatestPowerOf2_Assembly.sol\":463:465  32 */\n      0x20\n        /* \"contracts/05_GreatestPowerOf2_Assembly.sol\":458:461  0x0 */\n      0x00\n        /* \"contracts/05_GreatestPowerOf2_Assembly.sol\":451:466  return(0x0, 32) */\n      return\n        /* \"contracts/05_GreatestPowerOf2_Assembly.sol\":387:480  if iszero(num) {... */\n    tag_11:\n        /* \"contracts/05_GreatestPowerOf2_Assembly.sol\":766:767  1 */\n      0x01\n        /* \"contracts/05_GreatestPowerOf2_Assembly.sol\":762:776  shr(1, result) */\n      dup2\n      dup2\n      shr\n        /* \"contracts/05_GreatestPowerOf2_Assembly.sol\":751:777  or(result, shr(1, result)) */\n      swap1\n      swap2\n      or\n        /* \"contracts/05_GreatestPowerOf2_Assembly.sol\":815:816  2 */\n      0x02\n        /* \"contracts/05_GreatestPowerOf2_Assembly.sol\":811:825  shr(2, result) */\n      dup2\n      swap1\n      shr\n        /* \"contracts/05_GreatestPowerOf2_Assembly.sol\":800:826  or(result, shr(2, result)) */\n      or\n        /* \"contracts/05_GreatestPowerOf2_Assembly.sol\":864:865  4 */\n      0x04\n        /* \"contracts/05_GreatestPowerOf2_Assembly.sol\":860:874  shr(4, result) */\n      dup2\n      swap1\n      shr\n        /* \"contracts/05_GreatestPowerOf2_Assembly.sol\":849:875  or(result, shr(4, result)) */\n      or\n        /* \"contracts/05_GreatestPowerOf2_Assembly.sol\":913:914  8 */\n      0x08\n        /* \"contracts/05_GreatestPowerOf2_Assembly.sol\":909:923  shr(8, result) */\n      dup2\n      swap1\n      shr\n        /* \"contracts/05_GreatestPowerOf2_Assembly.sol\":898:924  or(result, shr(8, result)) */\n      or\n        /* \"contracts/05_GreatestPowerOf2_Assembly.sol\":962:964  16 */\n      0x10\n        /* \"contracts/05_GreatestPowerOf2_Assembly.sol\":958:973  shr(16, result) */\n      dup2\n      swap1\n      shr\n        /* \"contracts/05_GreatestPowerOf2_Assembly.sol\":947:974  or(result, shr(16, result)) */\n      or\n        /* \"contracts/05_GreatestPowerOf2_Assembly.sol\":1012:1014  32 */\n      0x20\n        /* \"contracts/05_GreatestPowerOf2_Assembly.sol\":1008:1023  shr(32, result) */\n      dup2\n      dup2\n      shr\n        /* \"contracts/05_GreatestPowerOf2_Assembly.sol\":997:1024  or(result, shr(32, result)) */\n      swap1\n      swap2\n      or\n        /* \"contracts/05_GreatestPowerOf2_Assembly.sol\":1062:1064  64 */\n      0x40\n        /* \"contracts/05_GreatestPowerOf2_Assembly.sol\":1058:1073  shr(64, result) */\n      dup2\n      swap1\n      shr\n        /* \"contracts/05_GreatestPowerOf2_Assembly.sol\":1047:1074  or(result, shr(64, result)) */\n      or\n        /* \"contracts/05_GreatestPowerOf2_Assembly.sol\":1112:1115  128 */\n      0x80\n        /* \"contracts/05_GreatestPowerOf2_Assembly.sol\":1108:1124  shr(128, result) */\n      dup2\n      swap1\n      shr\n        /* \"contracts/05_GreatestPowerOf2_Assembly.sol\":1097:1125  or(result, shr(128, result)) */\n      or\n        /* \"contracts/05_GreatestPowerOf2_Assembly.sol\":1209:1223  add(result, 1) */\n      dup3\n      add\n        /* \"contracts/05_GreatestPowerOf2_Assembly.sol\":1246:1260  shr(1, result) */\n      swap1\n      swap2\n      shr\n        /* \"contracts/05_GreatestPowerOf2_Assembly.sol\":1327:1330  0x0 */\n      0x00\n        /* \"contracts/05_GreatestPowerOf2_Assembly.sol\":1320:1339  mstore(0x0, result) */\n      dup2\n      dup2\n      mstore\n        /* \"contracts/05_GreatestPowerOf2_Assembly.sol\":1246:1260  shr(1, result) */\n      swap1\n      swap2\n        /* \"contracts/05_GreatestPowerOf2_Assembly.sol\":1012:1014  32 */\n      swap1\n        /* \"contracts/05_GreatestPowerOf2_Assembly.sol\":1352:1367  return(0x0, 32) */\n      return\n        /* \"#utility.yul\":14:194   */\n    tag_6:\n        /* \"#utility.yul\":73:79   */\n      0x00\n        /* \"#utility.yul\":126:128   */\n      0x20\n        /* \"#utility.yul\":114:123   */\n      dup3\n        /* \"#utility.yul\":105:112   */\n      dup5\n        /* \"#utility.yul\":101:124   */\n      sub\n        /* \"#utility.yul\":97:129   */\n      slt\n        /* \"#utility.yul\":94:146   */\n      iszero\n      tag_14\n      jumpi\n        /* \"#utility.yul\":142:143   */\n      0x00\n        /* \"#utility.yul\":139:140   */\n      dup1\n        /* \"#utility.yul\":132:144   */\n      revert\n        /* \"#utility.yul\":94:146   */\n    tag_14:\n      pop\n        /* \"#utility.yul\":165:188   */\n      calldataload\n      swap2\n        /* \"#utility.yul\":14:194   */\n      swap1\n      pop\n      jump\t// out\n\n    auxdata: 0xa26469706673582212205291cffa665f4013619f11042abf2484c3ee0da5e346deed78f18a950145871564736f6c63430008160033\n}\n",
				"bytecode": {
					"linkReferences": {},
					"object": "608060405234801561000f575f80fd5b5060e78061001c5f395ff3fe6080604052348015600e575f80fd5b50600436106026575f3560e01c8063db53653e14602a575b5f80fd5b60396035366004609b565b604b565b60405190815260200160405180910390f35b5f81806059575f805260205ff35b600181811c909117600281901c17600481901c17600881901c17601081901c17602081811c909117604081901c17608081901c17820190911c5f818152909190f35b5f6020828403121560aa575f80fd5b503591905056fea26469706673582212205291cffa665f4013619f11042abf2484c3ee0da5e346deed78f18a950145871564736f6c63430008160033",
					"opcodes": "PUSH1 0x80 PUSH1 0x40 MSTORE CALLVALUE DUP1 ISZERO PUSH2 0xF JUMPI PUSH0 DUP1 REVERT JUMPDEST POP PUSH1 0xE7 DUP1 PUSH2 0x1C PUSH0 CODECOPY PUSH0 RETURN INVALID PUSH1 0x80 PUSH1 0x40 MSTORE CALLVALUE DUP1 ISZERO PUSH1 0xE JUMPI PUSH0 DUP1 REVERT JUMPDEST POP PUSH1 0x4 CALLDATASIZE LT PUSH1 0x26 JUMPI PUSH0 CALLDATALOAD PUSH1 0xE0 SHR DUP1 PUSH4 0xDB53653E EQ PUSH1 0x2A JUMPI JUMPDEST PUSH0 DUP1 REVERT JUMPDEST PUSH1 0x39 PUSH1 0x35 CALLDATASIZE PUSH1 0x4 PUSH1 0x9B JUMP JUMPDEST PUSH1 0x4B JUMP JUMPDEST PUSH1 0x40 MLOAD SWAP1 DUP2 MSTORE PUSH1 0x20 ADD PUSH1 0x40 MLOAD DUP1 SWAP2 SUB SWAP1 RETURN JUMPDEST PUSH0 DUP2 DUP1 PUSH1 0x59 JUMPI PUSH0 DUP1 MSTORE PUSH1 0x20 PUSH0 RETURN JUMPDEST PUSH1 0x1 DUP2 DUP2 SHR SWAP1 SWAP2 OR PUSH1 0x2 DUP2 SWAP1 SHR OR PUSH1 0x4 DUP2 SWAP1 SHR OR PUSH1 0x8 DUP2 SWAP1 SHR OR PUSH1 0x10 DUP2 SWAP1 SHR OR PUSH1 0x20 DUP2 DUP2 SHR SWAP1 SWAP2 OR PUSH1 0x40 DUP2 SWAP1 SHR OR PUSH1 0x80 DUP2 SWAP1 SHR OR DUP3 ADD SWAP1 SWAP2 SHR PUSH0 DUP2 DUP2 MSTORE SWAP1 SWAP2 SWAP1 RETURN JUMPDEST PUSH0 PUSH1 0x20 DUP3 DUP5 SUB SLT ISZERO PUSH1 0xAA JUMPI PUSH0 DUP1 REVERT JUMPDEST POP CALLDATALOAD SWAP2 SWAP1 POP JUMP INVALID LOG2 PUSH5 0x6970667358 0x22 SLT KECCAK256 MSTORE SWAP2 0xCF STATICCALL PUSH7 0x5F4013619F1104 0x2A 0xBF 0x24 DUP5 0xC3 0xEE 0xD 0xA5 0xE3 CHAINID 0xDE 0xED PUSH25 0xF18A950145871564736F6C6343000816003300000000000000 "
				},
				"gasEstimates": {
					"creation": {
						"codeDepositCost": "46200",
						"executionCost": "97",
						"totalCost": "46297"
					},
					"external": {
						"solution(uint256)": "377"
					}
				},
				"methodIdentifiers": {
					"solution(uint256)": "db53653e"
				}
			},
			"storageLayout": {
				"storage": [],
				"types": null
			},
			"userdoc": {
				"kind": "user",
				"methods": {},
				"version": 1
			}
		}
	}
}