{
	"data": {
		"bytecode": {
			"linkReferences": {},
			"object": "608060405234801561000f575f80fd5b5061026f8061001d5f395ff3fe608060405234801561000f575f80fd5b5060043610610029575f3560e01c8063ce0b12381461002d575b5f80fd5b61004061003b366004610170565b610086565b6040805161ffff909416845291151560208401527fffffffffffff0000000000000000000000000000000000000000000000000000169082015260600160405180910390f35b5f805f83516009146100f8576040517f08c379a000000000000000000000000000000000000000000000000000000000815260206004820152601560248201527f496e76616c6964207061636b6564206c656e6774680000000000000000000000604482015260640160405180910390fd5b5050506020810151602282015160239092015160f09190911c9260f89290921c600114917fffffffffffff000000000000000000000000000000000000000000000000000090911690565b7f4e487b71000000000000000000000000000000000000000000000000000000005f52604160045260245ffd5b5f60208284031215610180575f80fd5b813567ffffffffffffffff80821115610197575f80fd5b818401915084601f8301126101aa575f80fd5b8135818111156101bc576101bc610143565b604051601f82017fffffffffffffffffffffffffffffffffffffffffffffffffffffffffffffffe0908116603f0116810190838211818310171561020257610202610143565b8160405282815287602084870101111561021a575f80fd5b826020860160208301375f92810160200192909252509594505050505056fea2646970667358221220076de09387fec2a978c3ba9f4abe656568df49558954213ef984fc12aa6726c864736f6c63430008160033",
			"opcodes": "PUSH1 0x80 PUSH1 0x40 MSTORE CALLVALUE DUP1 ISZERO PUSH2 0xF JUMPI PUSH0 DUP1 REVERT JUMPDEST POP PUSH2 0x26F DUP1 PUSH2 0x1D PUSH0 CODECOPY PUSH0 RETURN INVALID PUSH1 0x80 PUSH1 0x40 MSTORE CALLVALUE DUP1 ISZERO PUSH2 0xF JUMPI PUSH0 DUP1 REVERT JUMPDEST POP PUSH1 0x4 CALLDATASIZE LT PUSH2 0x29 JUMPI PUSH0 CALLDATALOAD PUSH1 0xE0 SHR DUP1 PUSH4 0xCE0B1238 EQ PUSH2 0x2D JUMPI JUMPDEST PUSH0 DUP1 REVERT JUMPDEST PUSH2 0x40 PUSH2 0x3B CALLDATASIZE PUSH1 0x4 PUSH2 0x170 JUMP JUMPDEST PUSH2 0x86 JUMP JUMPDEST PUSH1 0x40 DUP1 MLOAD PUSH2 0xFFFF SWAP1 SWAP5 AND DUP5 MSTORE SWAP2 ISZERO ISZERO PUSH1 0x20 DUP5 ADD MSTORE PUSH32 0xFFFFFFFFFFFF0000000000000000000000000000000000000000000000000000 AND SWAP1 DUP3 ADD MSTORE PUSH1 0x60 ADD PUSH1 0x40 MLOAD DUP1 SWAP2 SUB SWAP1 RETURN JUMPDEST PUSH0 DUP1 PUSH0 DUP4 MLOAD PUSH1 0x9 EQ PUSH2 0xF8 JUMPI PUSH1 0x40 MLOAD PUSH32 0x8C379A000000000000000000000000000000000000000000000000000000000 DUP2 MSTORE PUSH1 0x20 PUSH1 0x4 DUP3 ADD MSTORE PUSH1 0x15 PUSH1 0x24 DUP3 ADD MSTORE PUSH32 0x496E76616C6964207061636B6564206C656E6774680000000000000000000000 PUSH1 0x44 DUP3 ADD MSTORE PUSH1 0x64 ADD PUSH1 0x40 MLOAD DUP1 SWAP2 SUB SWAP1 REVERT JUMPDEST POP POP POP PUSH1 0x20 DUP2 ADD MLOAD PUSH1 0x22 DUP3 ADD MLOAD PUSH1 0x23 SWAP1 SWAP3 ADD MLOAD PUSH1 0xF0 SWAP2 SWAP1 SWAP2 SHR SWAP3 PUSH1 0xF8 SWAP3 SWAP1 SWAP3 SHR PUSH1 0x1 EQ SWAP2 PUSH32 0xFFFFFFFFFFFF0000000000000000000000000000000000000000000000000000 SWAP1 SWAP2 AND SWAP1 JUMP JUMPDEST PUSH32 0x4E487B7100000000000000000000000000000000000000000000000000000000 PUSH0 MSTORE PUSH1 0x41 PUSH1 0x4 MSTORE PUSH1 0x24 PUSH0 REVERT JUMPDEST PUSH0 PUSH1 0x20 DUP3 DUP5 SUB SLT ISZERO PUSH2 0x180 JUMPI PUSH0 DUP1 REVERT JUMPDEST DUP2 CALLDATALOAD PUSH8 0xFFFFFFFFFFFFFFFF DUP1 DUP3 GT ISZERO PUSH2 0x197 JUMPI PUSH0 DUP1 REVERT JUMPDEST DUP2 DUP5 ADD SWAP2 POP DUP5 PUSH1 0x1F DUP4 ADD SLT PUSH2 0x1AA JUMPI PUSH0 DUP1 REVERT JUMPDEST DUP2 CALLDATALOAD DUP2 DUP2 GT ISZERO PUSH2 0x1BC JUMPI PUSH2 0x1BC PUSH2 0x143 JUMP JUMPDEST PUSH1 0x40 MLOAD PUSH1 0x1F DUP3 ADD PUSH32 0xFFFFFFFFFFFFFFFFFFFFFFFFFFFFFFFFFFFFFFFFFFFFFFFFFFFFFFFFFFFFFFE0 SWAP1 DUP2 AND PUSH1 0x3F ADD AND DUP2 ADD SWAP1 DUP4 DUP3 GT DUP2 DUP4 LT OR ISZERO PUSH2 0x202 JUMPI PUSH2 0x202 PUSH2 0x143 JUMP JUMPDEST DUP2 PUSH1 0x40 MSTORE DUP3 DUP2 MSTORE DUP8 PUSH1 0x20 DUP5 DUP8 ADD ADD GT ISZERO PUSH2 0x21A JUMPI PUSH0 DUP1 REVERT JUMPDEST DUP3 PUSH1 0x20 DUP7 ADD PUSH1 0x20 DUP4 ADD CALLDATACOPY PUSH0 SWAP3 DUP2 ADD PUSH1 0x20 ADD SWAP3 SWAP1 SWAP3 MSTORE POP SWAP6 SWAP5 POP POP POP POP POP JUMP INVALID LOG2 PUSH5 0x6970667358 0x22 SLT KECCAK256 SMOD PUSH14 0xE09387FEC2A978C3BA9F4ABE6565 PUSH9 0xDF49558954213EF984 0xFC SLT 0xAA PUSH8 0x26C864736F6C6343 STOP ADDMOD AND STOP CALLER "
		},
		"gasEstimates": {
			"creation": {
				"codeDepositCost": "124600",
				"executionCost": "169",
				"totalCost": "124769"
			},
			"external": {
				"solution(bytes)": "infinite"
			}
		},
		"methodIdentifiers": {
			"solution(bytes)": "ce0b1238"
		}
	},
	"abi": [
		{
			"inputs": [
				{
					"internalType": "bytes",
					"name": "packed",
					"type": "bytes"
				}
			],
			"name": "solution",
			"outputs": [
				{
					"internalType": "uint16",
					"name": "a",
					"type": "uint16"
				},
				{
					"internalType": "bool",
					"name": "b",
					"type": "bool"
				},
				{
					"internalType": "bytes6",
					"name": "c",
					"type": "bytes6"
				}
			],
			"stateMutability": "pure",
			"type": "function"
		}
	]
}