{
	"data": {
		"bytecode": {
			"linkReferences": {},
			"object": "6080604052348015600e575f5ffd5b506101d88061001c5f395ff3fe608060405234801561000f575f5ffd5b5060043610610029575f3560e01c8063342a2d9a1461002d575b5f5ffd5b61004061003b366004610117565b610056565b60405161004d919061014b565b60405180910390f35b61005e6100bc565b506040516002815260208101833583355f5b60068110156100a9576003810661008c57600384526020850193505b823582350184526020938401939283019290910190600101610070565b5050505061012081016040525b92915050565b60405180606001604052806003905b6100d36100e9565b8152602001906001900390816100cb5790505090565b60405180604001604052806002906020820280368337509192915050565b8060c081018310156100b6575f5ffd5b5f5f6101808385031215610129575f5ffd5b6101338484610107565b91506101428460c08501610107565b90509250929050565b60c0810181835f5b6003811015610199578151835f5b6002811015610180578251825260209283019290910190600101610161565b5050506040929092019160209190910190600101610153565b5050509291505056fea26469706673582212208fb95a8414b44dabb9d46de563df0fd545ae9f698bc39e04d57a47cf0459111764736f6c634300081b0033",
			"opcodes": "PUSH1 0x80 PUSH1 0x40 MSTORE CALLVALUE DUP1 ISZERO PUSH1 0xE JUMPI PUSH0 PUSH0 REVERT JUMPDEST POP PUSH2 0x1D8 DUP1 PUSH2 0x1C PUSH0 CODECOPY PUSH0 RETURN INVALID PUSH1 0x80 PUSH1 0x40 MSTORE CALLVALUE DUP1 ISZERO PUSH2 0xF JUMPI PUSH0 PUSH0 REVERT JUMPDEST POP PUSH1 0x4 CALLDATASIZE LT PUSH2 0x29 JUMPI PUSH0 CALLDATALOAD PUSH1 0xE0 SHR DUP1 PUSH4 0x342A2D9A EQ PUSH2 0x2D JUMPI JUMPDEST PUSH0 PUSH0 REVERT JUMPDEST PUSH2 0x40 PUSH2 0x3B CALLDATASIZE PUSH1 0x4 PUSH2 0x117 JUMP JUMPDEST PUSH2 0x56 JUMP JUMPDEST PUSH1 0x40 MLOAD PUSH2 0x4D SWAP2 SWAP1 PUSH2 0x14B JUMP JUMPDEST PUSH1 0x40 MLOAD DUP1 SWAP2 SUB SWAP1 RETURN JUMPDEST PUSH2 0x5E PUSH2 0xBC JUMP JUMPDEST POP PUSH1 0x40 MLOAD PUSH1 0x2 DUP2 MSTORE PUSH1 0x20 DUP2 ADD DUP4 CALLDATALOAD DUP4 CALLDATALOAD PUSH0 JUMPDEST PUSH1 0x6 DUP2 LT ISZERO PUSH2 0xA9 JUMPI PUSH1 0x3 DUP2 MOD PUSH2 0x8C JUMPI PUSH1 0x3 DUP5 MSTORE PUSH1 0x20 DUP6 ADD SWAP4 POP JUMPDEST DUP3 CALLDATALOAD DUP3 CALLDATALOAD ADD DUP5 MSTORE PUSH1 0x20 SWAP4 DUP5 ADD SWAP4 SWAP3 DUP4 ADD SWAP3 SWAP1 SWAP2 ADD SWAP1 PUSH1 0x1 ADD PUSH2 0x70 JUMP JUMPDEST POP POP POP POP PUSH2 0x120 DUP2 ADD PUSH1 0x40 MSTORE JUMPDEST SWAP3 SWAP2 POP POP JUMP JUMPDEST PUSH1 0x40 MLOAD DUP1 PUSH1 0x60 ADD PUSH1 0x40 MSTORE DUP1 PUSH1 0x3 SWAP1 JUMPDEST PUSH2 0xD3 PUSH2 0xE9 JUMP JUMPDEST DUP2 MSTORE PUSH1 0x20 ADD SWAP1 PUSH1 0x1 SWAP1 SUB SWAP1 DUP2 PUSH2 0xCB JUMPI SWAP1 POP POP SWAP1 JUMP JUMPDEST PUSH1 0x40 MLOAD DUP1 PUSH1 0x40 ADD PUSH1 0x40 MSTORE DUP1 PUSH1 0x2 SWAP1 PUSH1 0x20 DUP3 MUL DUP1 CALLDATASIZE DUP4 CALLDATACOPY POP SWAP2 SWAP3 SWAP2 POP POP JUMP JUMPDEST DUP1 PUSH1 0xC0 DUP2 ADD DUP4 LT ISZERO PUSH2 0xB6 JUMPI PUSH0 PUSH0 REVERT JUMPDEST PUSH0 PUSH0 PUSH2 0x180 DUP4 DUP6 SUB SLT ISZERO PUSH2 0x129 JUMPI PUSH0 PUSH0 REVERT JUMPDEST PUSH2 0x133 DUP5 DUP5 PUSH2 0x107 JUMP JUMPDEST SWAP2 POP PUSH2 0x142 DUP5 PUSH1 0xC0 DUP6 ADD PUSH2 0x107 JUMP JUMPDEST SWAP1 POP SWAP3 POP SWAP3 SWAP1 POP JUMP JUMPDEST PUSH1 0xC0 DUP2 ADD DUP2 DUP4 PUSH0 JUMPDEST PUSH1 0x3 DUP2 LT ISZERO PUSH2 0x199 JUMPI DUP2 MLOAD DUP4 PUSH0 JUMPDEST PUSH1 0x2 DUP2 LT ISZERO PUSH2 0x180 JUMPI DUP3 MLOAD DUP3 MSTORE PUSH1 0x20 SWAP3 DUP4 ADD SWAP3 SWAP1 SWAP2 ADD SWAP1 PUSH1 0x1 ADD PUSH2 0x161 JUMP JUMPDEST POP POP POP PUSH1 0x40 SWAP3 SWAP1 SWAP3 ADD SWAP2 PUSH1 0x20 SWAP2 SWAP1 SWAP2 ADD SWAP1 PUSH1 0x1 ADD PUSH2 0x153 JUMP JUMPDEST POP POP POP SWAP3 SWAP2 POP POP JUMP INVALID LOG2 PUSH5 0x6970667358 0x22 SLT KECCAK256 DUP16 0xB9 GAS DUP5 EQ 0xB4 0x4D 0xAB 0xB9 0xD4 PUSH14 0xE563DF0FD545AE9F698BC39E04D5 PUSH27 0x47CF0459111764736F6C634300081B003300000000000000000000 "
		},
		"gasEstimates": {
			"creation": {
				"codeDepositCost": "94400",
				"executionCost": "139",
				"totalCost": "94539"
			},
			"external": {
				"solution(uint256[2][3],uint256[2][3])": "infinite"
			}
		},
		"methodIdentifiers": {
			"solution(uint256[2][3],uint256[2][3])": "342a2d9a"
		}
	},
	"abi": [
		{
			"inputs": [
				{
					"internalType": "uint256[2][3]",
					"name": "x",
					"type": "uint256[2][3]"
				},
				{
					"internalType": "uint256[2][3]",
					"name": "y",
					"type": "uint256[2][3]"
				}
			],
			"name": "solution",
			"outputs": [
				{
					"internalType": "uint256[2][3]",
					"name": "finalArray",
					"type": "uint256[2][3]"
				}
			],
			"stateMutability": "pure",
			"type": "function"
		}
	]
}